:020000040800F2
:1000000000000220A5290008D9270008E7270008DA
:10001000ED270008F3270008F9270008000000007A
:10002000000000000000000000000000FF270008A2
:100030000D280008000000001B28000829280008DF
:10004000F5290008F5290008F5290008F529000818
:10005000F5290008F5290008F5290008F529000808
:10006000F5290008F5290008F5290008F5290008F8
:10007000F5290008F5290008F5290008F5290008E8
:10008000F5290008F5290008F5290008F5290008D8
:10009000F5290008F5290008F5290008F5290008C8
:1000A000F5290008F5290008F5290008F5290008B8
:1000B000F5290008F5290008F5290008F5290008A8
:1000C000F5290008F5290008F5290008F529000898
:1000D000F5290008F5290008F5290008F529000888
:1000E000F5290008F5290008F5290008F529000878
:1000F000F5290008F5290008F5290008F529000868
:10010000F5290008F5290008F5290008F529000857
:10011000F5290008F5290008F5290008F529000847
:10012000F5290008F529000839280008F5290008F4
:10013000452900080000000000000000F529000823
:10014000F5290008F5290008F5290008F529000817
:10015000F5290008F5290008F5290008F529000807
:10016000F5290008F5290008F5290008F5290008F7
:10017000F5290008F5290008000000000000000033
:08018000F5290008F52900082B
:1001880010B5054C237833B9044B13B10448AFF3C9
:1001980000800123237010BD28010020000000000A
:1001A800705A000808B5034B1BB103490348AFF365
:1001B800008008BD000000002C010020705A0008D3
:1001C80053B94AB9002908BF00281CBF4FF0FF31B6
:1001D8004FF0FF3000F074B9ADF1080C6DE904CEB2
:1001E80000F006F8DDF804E0DDE9022304B070470A
:1001F8002DE9F047089D04468E46002B4DD18A42D2
:10020800944669D9B2FA82F252B101FA02F3C2F104
:10021800200120FA01F10CFA02FC41EA030E944095
:100228004FEA1C48210CBEFBF8F61FFA8CF708FBB6
:1002380016E341EA034306FB07F199420AD91CEB8E
:10024800030306F1FF3080F01F81994240F21C81C0
:10025800023E63445B1AA4B2B3FBF8F008FB103308
:1002680044EA034400FB07F7A7420AD91CEB04043D
:1002780000F1FF3380F00A81A74240F2078164440D
:10028800023840EA0640E41B00261DB1D440002392
:10029800C5E900433146BDE8F0878B4209D9002DF6
:1002A80000F0EF800026C5E9000130463146BDE880
:1002B800F087B3FA83F6002E4AD18B4202D38242EA
:1002C80000F2F980841A61EB030301209E46002D99
:1002D800E0D0C5E9004EDDE702B9FFDEB2FA82F2EE
:1002E800002A40F09280A1EB0C014FEA1C471FFA4C
:1002F8008CFE0126200CB1FBF7F307FB131140EA33
:1003080001410EFB03F0884208D91CEB010103F1FF
:10031800FF3802D2884200F2CB804346091AA4B2C1
:10032800B1FBF7F007FB101144EA01440EFB00FE95
:10033800A64508D91CEB040400F1FF3102D2A645FA
:1003480000F2BB800846A4EB0E0440EA03409CE799
:10035800C6F12007B34022FA07FC4CEA030C20FA46
:1003680007F401FA06F31C43F9404FEA1C4900FA66
:1003780006F3B1FBF9F8200C1FFA8CFE09FB1811E3
:1003880040EA014108FB0EF0884202FA06F20BD956
:100398001CEB010108F1FF3A80F08880884240F2A6
:1003A8008580A8F102086144091AA4B2B1FBF9F0EA
:1003B80009FB101144EA014100FB0EFE8E4508D9E5
:1003C8001CEB010100F1FF346CD28E456AD902386A
:1003D800614440EA0840A0FB0294A1EB0E01A1424F
:1003E800C846A64656D353D05DB1B3EB080261EBBD
:1003F8000E0101FA07F722FA06F3F1401F43C5E997
:10040800007100263146BDE8F087C2F12003D840CC
:100418000CFA02FC21FA03F3914001434FEA1C470E
:100428001FFA8CFEB3FBF7F007FB10360B0C43EA00
:10043800064300FB0EF69E4204FA02F408D91CEBB0
:10044800030300F1FF382FD29E422DD902386344AE
:100458009B1B89B2B3FBF7F607FB163341EA03414E
:1004680006FB0EF38B4208D91CEB010106F1FF389D
:1004780016D28B4214D9023E6144C91A46EA004694
:1004880038E72E46284605E70646E3E61846F8E626
:100498004B45A9D2B9EB020864EB0C0E0138A3E76F
:1004A8004646EAE7204694E74046D1E7D0467BE750
:1004B800023B614432E7304609E76444023842E7C8
:1004C800704700BF80B483B000AF03463960FB803B
:1004D8003B681B88FA889A4202D93B68FA881A80D6
:1004E80000BF0C37BD465DF8047B704780B485B00B
:1004F80000AF0346B9607A60FB81BB681B88FA8944
:100508009A4202D2BB68FA891A807B681B88FA89EA
:100518009A4202D97B68FA891A8000BF1437BD460F
:100528005DF8047B7047000080B582B000AF0023FF
:10053800FB7102F0C3FA0346642B5AD92F4B5B6850
:100548001B681B889BB22E4A2E491846FFF7CEFF20
:1005580002F0B4FA0346B3F5167F4AD90423FB71B7
:10056800264B9B891A46254B5B89D31A002BB8BFAB
:100578005B42092B39D8214B9B891A461F4B5B8953
:1005880013445B089AB21D4B1A811C4B1B89C3F597
:1005980037730133002BB8BF5B42092B20D800F01A
:1005A8002FFE194801F068F9144B01221A75134BF4
:1005B8001B7D18469FED150A00F0A4FD0F4BDB6963
:1005C80000225A810D4BDB694FF6FF721A810B4BE3
:1005D80000221A86094B00225A860323FB7108E081
:1005E800064B052283F8202003E0044B052283F8FC
:1005F8002020FB7918460837BD4680BD380000200A
:1006080044000020420000205C0000200000A043BD
:1006180080B582B000AF0223FB713D4B1B681B689D
:100628001B889BB21A463A4B5B681B681B889BB2B7
:100638001344C3F5805383EAE372A2EBE372344BAD
:10064800DB6892B29A80324BDB689A88304BDB6861
:10065800063319461046FFF735FF2E4801F026F9F4
:10066800034683F00103DBB2002B17D0284BDB686D
:100678009A88274BDB681B889A4244D2244B5B68D4
:100688001B681B8898B2224B1B6903F10801204B99
:100698001B690A331A46FFF729FF34E01C4BDB6855
:1006A8009A881B4BDB681B889A4227D2184B1B6918
:1006B8001B89B3F5487F21D2154B1B695B8940F62E
:1006C800B83293421AD9124B1B691A89104B1B690D
:1006D80007EE902AF8EE677AC3ED017A0C4B1B6996
:1006E8005A890B4B1B6907EE902AF8EE677AC3ED1F
:1006F800007A00F085FD0123FB7104E00423FB71FF
:10070800034B09221A72FB7918460837BD4680BD8B
:100718006C0000208400002080B582B000AF032365
:10072800FB716B4B5B681B681B889BB21A46684B56
:100738001B681B681B889BB21344C3F5805383EA6C
:10074800E372A2EBE372624B9B6992B29A80604BB0
:100758009B699A885E4B9B69063319461046FFF7DA
:10076800B1FE5C4801F0A2F8034683F00103DBB256
:10077800002B6DD0564B9B699A88554B9B691B88FB
:100788009A4234BF01230023BB71BB79002B15D0DB
:100798004F4B1B8E01339AB24D4B1A864C4B5B68FC
:1007A8001B681B8898B24A4BDB6903F10801484B68
:1007B800DB690A331A46FFF799FE15E0444B5A8E57
:1007C800434B1B8E9A4209D9414B5B8E642B05D94A
:1007D8000423FB713E4B082283F820203C4B5B8EA0
:1007E80001339AB23A4B5A86394B1B7D002B1CD0E9
:1007F800012B2AD1BB7983F00103DBB2002B5ED039
:10080800334B1B8E642B5AD9314B00225A86304BFE
:1008180000221A862E4B00221A752D4B1B7D184676
:100828009FED2D0A00F06EFC49E0BB7983F00103CF
:10083800DBB2002B45D0264B1B8E642B41D9244BB1
:1008480002221A7500F09EFC3BE000F09BFC39E0A8
:100858001F4B9B699B88B3F5CD7F29D21C4BDB6965
:100868001B89B3F5487F23D2194BDB695B89B3F544
:10087800616F1DD900F0C4FC154BDB691A89144B54
:10088800DB6907EE902AF8EE677AC3ED017A104B20
:10089800DB695A890E4BDB6907EE902AF8EE677A16
:1008A800C3ED007A022000F0FDFD0123FB7109E091
:1008B8000423FB71064B082283F8202002E000BFC6
:1008C80000E000BFFB7918460837BD4680BD00BF71
:1008D800380000205C0000200000A04380B582B0F2
:1008E80000AF00F053F8F0EE407A254BC3ED047AE0
:1008F80000F0A0F8F0EE407A224BC3ED057A214BC8
:10090800D3ED057A1E4B93ED047AF0EE470AB0EE6C
:10091800670A00F071FA87ED010AD7ED017AF5EE62
:10092800C07AF1EE10FAACBF01230023FB70FB780C
:10093800002B02D0D7ED017A03E0D7ED017AF1EE72
:10094800677AC7ED017AFB78002B07D0012B0BD112
:10095800012097ED010A00F0D5FB0BE0002097ED90
:10096800010A00F0CFFB05E002209FED070A00F026
:10097800C9FB00BF012318460837BD4680BD00BF2C
:10098800380000206C0000200000000080B483B014
:1009980000AF4FF000037B60234B5B689B889BB2E2
:1009A80007EE903AB8EEE77A1F4BDB69D3ED017A90
:1009B800B4EEE77AF1EE10FA2CDB1B4B5B689B88F0
:1009C8009BB207EE903AB8EE677A174BDB69D3ED26
:1009D800017A37EE677A144BDB69D3ED006A124B64
:1009E800DB69D3ED017A76EEE76A9FED106AC6EE11
:1009F800267A67EE277AC7ED017AD7ED017A9FED5F
:100A08000B7AF4EEC77AF1EE10FA01DD084B00E03C
:100A18007B687B607B6807EE903AB0EE670A0C371C
:100A2800BD465DF8047B70473800002000007A441A
:100A380000007A4480B483B000AF4FF000037B60BD
:100A4800234B5B689B889BB207EE903AB8EEE77A37
:100A58001F4B1B69D3ED017AB4EEE77AF1EE10FA79
:100A68002CDB1B4B5B689B889BB207EE903AB8EE79
:100A7800677A174B1B69D3ED017A37EE677A144B07
:100A88001B69D3ED006A124B1B69D3ED017A76EE30
:100A9800E76A9FED106AC6EE267A67EE277AC7EDF9
:100AA800017AD7ED017A9FED0B7AF4EEC77AF1EE71
:100AB80010FA01DD084B00E07B687B607B6807EE7D
:100AC800903AB0EE670A0C37BD465DF8047B704774
:100AD8006C00002000007A4400007A4480B483B09F
:100AE80000AF78600B467B807B68DB897A889A4206
:100AF8000AD97B68D3ED007AB7EE007A77EEC77A29
:100B08007B68C3ED007A0EE07B689B897A889A42FD
:100B180009D27B68D3ED017AB7EE007A77EE877A4F
:100B28007B68C3ED017A00BF0C37BD465DF8047BD6
:100B3800704780B584B000AFF860B96011461A46B6
:100B48000B46FB801346BB80FA88BB881344C3F569
:100B58008053002BB8BF5B429AB2FB689A80FB684F
:100B68009A88FB68063319461046FFF7ABFCFB680A
:100B78009A88FB681B889A420AD2FB681B7A002B6A
:100B880015D0FB681B7A013BDAB2FB681A720EE0DB
:100B9800BB881946B868FFF7A1FFBB691B78002B13
:100BA80005D1FB681B7A0133DAB2FB681A72FB685D
:100BB8001B7A002B03D1BB6900221A7009E0FB687D
:100BC8001A7AFB689B789A4203D9FB68DA78BB6982
:100BD8001A7000BF1037BD4680BD000080B582B0D6
:100BE80000AF0023FB710021012000F0FDFB03464C
:100BF800394A13600121012000F0F6FB0346364A0A
:100C080053600221012000F0EFFB0346334A1360D2
:100C18000321012000F0E8FB0346304A53602E4BC5
:100C28001B68002B51D02C4B1B681B68002B4CD029
:100C3800294B5B68002B48D0274B5B681B68002B4F
:100C480043D0264B1B68002B3FD0244B1B681B68E6
:100C5800002B3AD0214B5B68002B36D01F4B5B68CA
:100C68001B68002B31D0002241F288311C4800F06B
:100C7800ADFD0346FB71FB79002B04D1184800F049
:100C8800D1FD0346FB71FB79002B0FD1002240F206
:100C9800DC51144800F09AFD0346FB71FB79002BE8
:100CA80004D1104800F0BEFD0346FB71FB79002B10
:100CB8000DD100F0E3F90346002B03D10A4B0022C3
:100CC8001A7204E00723FB7101E00223FB71FB7930
:100CD80018460837BD4680BD380000206C0000204B
:100CE800840000205C0000209000002090B583B0B4
:100CF80002AF00F0C7FA0346032B02D1394B042296
:100D08001A72384B1B7A032B61D801A252F823F0D0
:100D1800290D0008530D0008370D0008450D00087F
:100D2800FFF702FC03461A462E4B1A7255E0FFF7EE
:100D38006FFC03461A462B4B1A724EE0FFF7ECFC89
:100D480003461A46274B1A7247E0274B9869264BE9
:100D5800D969254B1B689B889CB2234B5B689B8891
:100D68009AB2214BDB695B899A4203D91E4BDB6936
:100D78005B8903E01C4B5B689B889BB21B4A009213
:100D88002246FFF7D6FE1A4BD868194B1969184B3B
:100D98001B689B889AB2164B5B689B889BB2154C64
:100DA8000094FFF7C6FE124B1B7A002B0BD10E4B9B
:100DB80093F82030002B06D1FFF790FD03461A4622
:100DC800084B1A7209E0074B04221A7205E000F07A
:100DD800D9F9012000F066FB00BF00BF0437BD460B
:100DE80090BD00BF9000002038000020580000206F
:100DF8006C0000207400002080B487B000AF87ED3D
:100E0800010AC7ED000A97ED017AD7ED007A77EE6F
:100E1800677AC7ED037A724BD3ED007A97ED037AC0
:100E280067EE277AC7ED027A6D4B93ED077A6C4B24
:100E3800D3ED017AF6EE006A67EEA66A684BD3ED49
:100E4800067A66EEA76A664B93ED086AD7ED037AD1
:100E580076EE277A66EEA77A77EE277A604BC3EDAF
:100E6800077A4FF000037B614FF000033B615C4B56
:100E7800D3ED057A97ED027AB4EEE77AF1EE10FA3F
:100E880008D5574B93ED057AD7ED027A77EE677A56
:100E9800C7ED047A524BD3ED047A97ED027AB4EE9B
:100EA800E77AF1EE10FA08DD4D4B93ED047AD7EDB1
:100EB800027A77EE677AC7ED057A494BD3ED077A60
:100EC80097ED047AB4EEE77AF1EE10FA01D53B69B2
:100ED80001E0434BDB69424AD361414BD3ED077ACA
:100EE80097ED057AB4EEE77AF1EE10FA01DD7B6949
:100EF80001E03B4BDB693A4AD361394BD3ED027AC7
:100F080037EEA77A364BD3ED0A7AD7ED006A76EE3C
:100F1800E77A27EE277A324BD3ED037A77EEA76A82
:100F28002F4BD3ED067A76EEE76A2D4BD3ED097A8F
:100F380066EEA77A77EE276A294BD3ED037A37EE68
:100F4800A77A274BD3ED067A37EE277AC6EE877A4B
:100F5800234BC3ED097A224B93ED077AD7ED027A3A
:100F680037EE277A1E4BD3ED097A77EE277A1C4B9A
:100F7800C3ED0B7A1A4B93ED0B7A194BD3ED057A27
:100F8800B4EEE77AF1EE10FA02DD154B5B6901E089
:100F9800134BDB6A124AD362114B93ED0B7A104B59
:100FA800D3ED047AB4EEE77AF1EE10FA02D50C4BE1
:100FB8001B6901E00A4BDB6A094AD362084AFB68ED
:100FC8001362074A3B689362054BDB6A07EE903A67
:100FD800B0EE670A1C37BD465DF8047B704700BF5A
:100FE8009C00002080B400AF064B1B6800221A60EA
:100FF800044B5B6800221A6000BFBD465DF8047BA5
:10100800704700BF4401002080B485B000AF87ED71
:10101800010AD7ED017A9FED167A67EE877AC7ED58
:10102800037AD7ED037A9FED137AF4EEC77AF1EEDF
:1010380010FA01DD104B00E0FB68FB60D7ED037A86
:10104800F5EEC07AF1EE10FA02D54FF0000300E099
:10105800FB68FB60D7ED037AFCEEE77A17EE903A6F
:10106800BB60BB6818461437BD465DF8047B704703
:10107800DBF9564000F0514500F0514580B582B08B
:1010880000AF0023FB7100211C4803F0DDFD03467F
:10109800002B01D00423FB710C21184803F0D4FD68
:1010A8000346002B01D00423FB71FB79002B19D1D7
:1010B800124B1B68002B13D0104B1B684033104A8F
:1010C80013600E4B1B6834330D4A536000F05AF816
:1010D8000B4B1B7BDBB2022B04D00723FB7101E017
:1010E8000223FB71FB79002B02D0054B03221A73F4
:1010F800FB7918460837BD4680BD00BFD4030020E1
:101108004401002080B582B000AF87ED010A034694
:10111800FB701B4B1B7BDBB2012B29D197ED010A1E
:10112800FFF772FF0346164A9360FB78002B0BD03B
:10113800012B13D1124B5B6800221A60104B1B68FD
:101148000F4A92681A6012E00D4B1B6800221A6061
:101158000B4B5B680A4A92681A6008E0084B5B68A8
:1011680000221A60064B1B6800221A6000BF02E0CA
:1011780000F008F800BF00BF0837BD4680BD00BFBB
:101188004401002080B500AFFFF72CFF00224FF488
:101198000071184802F0E2FF00224FF480611648FF
:1011A80002F0DCFF00224FF40071134802F0D6FF72
:1011B8004FF400710F4802F0B9FF0346002B13D11A
:1011C8004FF480610C4802F0B1FF0346002B0BD1AD
:1011D8004FF40071084802F0A9FF0346002B03D121
:1011E800064B02221A7303E0044B03221A7300BF52
:1011F80000BF80BD000802400000024044010020FA
:1012080080B500AFFFF7EEFE1B4B1B7BDBB2022B5A
:1012180030D101224FF40071184802F09FFF0122DB
:101228004FF48061164802F099FF01224FF40071D3
:10123800134802F093FF4FF40071104802F076FF54
:101248000346012B13D14FF480610D4802F06EFF65
:101258000346012B0BD14FF40071094802F066FFD9
:101268000346012B03D1044B01221A7302E0024BFF
:1012780003221A7300BF80BD440100200008024009
:101288000000024080B400AF034B1B7BDBB2184662
:10129800BD465DF8047B70474401002090B587B0D7
:1012A80000AFF8600B467A60FB720023FB75FB7A8F
:1012B800012B4BD87B68DAB2FB7A2849CB5C9A427F
:1012C80044D8FB7A264A52F823307A681946F868D7
:1012D80001F044FC0346002B35D100233B612DE08F
:1012E800FB7A1F4A52F823003B695900FB7A1D4AD2
:1012F80052F823403A6913469B0013449B00234449
:1013080042181A60FB7A174A52F823103A691346B2
:101318009B0013449B000B440022DA81FB7A114A9C
:1013280052F823103A6913469B0013449B000B4460
:101338004FF6FF721A823B6901333B613A697B6859
:101348009A42CDD304E00423FB7501E00323FB7527
:10135800FB7D18461C37BD4690BD00BF885A000863
:101368008C5A0008945A000880B483B000AF7860A3
:101378007B68002B19D07B689B889AB27B681B8A94
:101388009BB29A4204D27B689B889AB27B681A8285
:101398007B689B889AB27B68DB899BB29A4204D9A6
:1013A8007B689B889AB27B68DA8100BF0C37BD46A0
:1013B8005DF8047B7047000080B485B000AF034639
:1013C800FB710023FB60FB79012B04D8FB79054AEC
:1013D80052F82330FB60FB6818461437BD465DF8A9
:1013E800047B7047945A000880B485B000AF034668
:1013F8000A46FB711346BB710023FB60FB79012B86
:1014080010D8FB790B4AD35CBA799A420AD8FB798F
:10141800094A52F82310BA7913469B0013449B00DB
:101428000B44FB60FB6818461437BD465DF8047B27
:10143800704700BF885A0008945A000880B500AF6A
:10144800164B1B78022B1FD0022B23DC002B02D05B
:10145800012B06D01EE000220421114802F07EFE76
:1014680019E004210E4802F061FE0346012B05D164
:10147800002204210A4802F071FE0CE00122042136
:10148800074802F06BFE06E001220421044802F03E
:1014980065FE00E000BF00BF80BD00BFD80100208E
:1014A8000000024080B483B000AF0346FB71044AD9
:1014B800FB79137000BF0C37BD465DF8047B70479D
:1014C800D801002080B586B000AFF860B9607A60B6
:1014D8000023FB75194AFB681360B86803F0FCFA2F
:1014E8000346002B01D00423FB75FB7D002B1FD185
:1014F800786800F049FAB86800F0E8F8104800F099
:1015080021F800233B610EE00C4B19683A69134639
:101518009B0013449B000B440833184600F012F854
:101528003B6901333B613B69032BEDD900F03CFA81
:10153800FB7D18461837BD4680BD00BFFC01002062
:10154800F001002080B483B000AF78607B6800228F
:101558001A607B6800229A607B684FF0FF325A60FD
:1015680000BF0C37BD465DF8047B704780B483B07C
:1015780000AF00237B600BE00B4A7B6852F82330F6
:101588005A1C09497B6841F823207B6801337B603A
:101598007B68032BF0D9054B01221A7000BF0C376A
:1015A800BD465DF8047B7047DC010020EC0100209B
:1015B80080B500AF00F002F8FCE7000080B500AF8E
:1015C800054B1B78DBB2002B04D000F007F8024B68
:1015D80000221A7000BF80BDEC01002090B583B0D6
:1015E80000AF264800F082F800237B6035E0244AEB
:1015F8007B6852F82310234B18687A6813469B00BF
:1016080013449B0003445B68994223D31E4800F0AF
:1016180081F81C4B19687A6813469B0013449B0099
:101628000B441B689847174B19687A6813469B0048
:1016380013449B000B4403F10804134800F07CF8A2
:1016480003461946204600F023F80D4A7B6800211E
:1016580042F823107B6801337B607B68032BC6D973
:10166800064800F069F838603968084800F010F852
:1016780000F09AF900BF0C37BD4690BD000200206B
:10168800DC010020FC01002008020020F0010020FD
:1016980080B483B000AF786039607B689B683A6833
:1016A8009A4202D97B683A689A607B685B683A68B4
:1016B8009A4202D27B683A685A607B683A681A6034
:1016C80000BF0C37BD465DF8047B704780B483B01B
:1016D80000AF7860044A7B68136000BF0C37BD46D2
:1016E8005DF8047B704700BF1002002080B483B00F
:1016F80000AF7860064B1B681B6800225A627B6843
:1017080000221A6000BF0C37BD465DF8047B7047A5
:101718001002002080B483B000AF7860054B1B68CE
:101728001B685A6A7B681A6000BF0C37BD465DF8B3
:10173800047B70471002002080B485B000AF786049
:101748000023FB600D4B1B681B685A6A7B685A6054
:101758007B685A687B681B689A4205D97B685A6817
:101768007B681B68D31A00E00023FB60FB681846FF
:101778001437BD465DF8047B704700BF1002002097
:1017880080B582B000AF0E4B1B6801330C4A136062
:1017980000237B6009E00B4A7B6852F82330184627
:1017A80000F0D3F87B6801337B60074B1B687A68CD
:1017B8009A42F0D300BF00BF0837BD4680BD00BFC6
:1017C80040020020140200203C02002080B487B0B0
:1017D80000AFF860B9601346FB710023FB75FB6826
:1017E800002B13D0BB680E4AA2FB0323DA08FB6860
:1017F8005A60FB68FA799A72FB6800221A72FB68D1
:1018080000221A60FB6800225A7201E00223FB756D
:10181800FB7D18461C37BD465DF8047B704700BF4A
:10182800CDCCCCCC80B485B000AF78600023FB73FE
:101838007B68002B12D00E4B1B68092B0BD80C4B66
:101848001B680C497A6841F82320094B1B6801334F
:10185800074A136004E00C23FB7301E00223FB73C7
:10186800FB7B18461437BD465DF8047B704700BF04
:101878003C0200201402002080B483B000AF7860DE
:101888007B681B7A83F00103DBB2002B08D07B68EE
:1018980000221A607B6800225A727B6801221A7241
:1018A80000BF0C37BD465DF8047B704780B483B039
:1018B80000AF78607B685B7A18460C37BD465DF8E8
:1018C800047B704780B483B000AF78607B680022E7
:1018D8001A607B6801225A727B689B7A83F0010345
:1018E800DBB2002B02D07B6800221A7200BF0C37D3
:1018F800BD465DF8047B704780B483B000AF786064
:101908007B681A687B685B689A422CBF01230023B6
:10191800DBB218460C37BD465DF8047B704780B4CF
:1019280085B000AF78600023FB737B68002B05D07F
:101938007B681B7A002B01D00123FB73FB7B1846C5
:101948001437BD465DF8047B704780B582B000AFA0
:1019580078607868FFF7E3FF0346002B10D07B68B8
:1019680000225A727B681B685A1C7B681A60786868
:10197800FFF7C2FF0346002B02D07868FFF7A2FFEB
:1019880000BF0837BD4680BD80B483B000AF786023
:10199800044A7B68136000BF0C37BD465DF8047BC2
:1019A800704700BF4402002080B400AF054B1B689D
:1019B8001B684AF6AA221A6000BFBD465DF8047B80
:1019C800704700BF4402002080B500AFFFF78EF9D2
:1019D80000BF80BD80B500AFFFF7D2FE00BF80BD5D
:1019E80080B400AF00BFBD465DF8047B704780B58A
:1019F80000AFFFF723FD00BF80BD000080B500AF3A
:101A080000F0F6FF00F06AF800F06EFB00F0D2F884
:101A180000F0ACF900F0F8F900F03EFB00F0D6FA5F
:101A280000F028F900F080FA00F0D4F9254B1B7873
:101A380003F01003DBB2002B42D10222002122481E
:101A4800FFF72CFC0346002B04D01E4A137843F002
:101A580001031370042201211C48FFF71FFC0346F1
:101A6800002B04D0174A137843F00103137000F0D9
:101A78008BFE0346002B04D0124A137843F002036E
:101A88001370FFF7ABF80346002B04D00D4A137808
:101A980043F0040313700B4BD3E9002313430FD116
:101AA8000B4A0C490C48FFF70DFD0346002B02D1E9
:101AB800FFF77EFD04E0034A137843F00803137030
:101AC800FEE700BF480200205002002098020020D4
:101AD800C80300201C040020CC00002080B594B06E
:101AE80000AF07F1200330220021184603F0B4FFAD
:101AF80007F10C0300221A605A609A60DA601A61D2
:101B08000023BB60294B1B6C284A43F080531364A5
:101B1800264B1B6C03F08053BB60BB6800237B60C3
:101B2800234B1B68224A43F480431360204B1B68F5
:101B380003F480437B607B6809233B624FF4803366
:101B48007B6201237B630223BB634FF48003FB6347
:101B580010233B644FF4A8737B640223BB64072300
:101B6800FB6407F12003184602F054FB0346002BE0
:101B780001D000F053FB0F23FB6002233B610023DD
:101B88007B614FF4A053BB614FF4A053FB6107F195
:101B98000C030521184602F0B5FD0346002B01D0C1
:101BA80000F03CFB00BF5037BD4680BD0038024006
:101BB8000070004080B584B000AF3B4600221A6038
:101BC8005A609A60DA60284B284A1A60264B4FF40C
:101BD80040325A60244B00229A60234B01221A613A
:101BE800214B01221A76204B002283F820201E4B1D
:101BF8000022DA621C4B1E4A9A621B4B0022DA60F2
:101C0800194B0222DA61184B012283F83020164B57
:101C180001225A61144800F05DFF0346002B01D0F1
:101C280000F0FCFA01233B6001237B600723BB60C3
:101C38003B4619460C4801F0BFF80346002B01D07B
:101C480000F0ECFA03233B6002237B603B46194615
:101C5800054801F0B1F80346002B01D000F0DEFA88
:101C680000BF1037BD4680BD500200200020014053
:101C78000100000F80B584B000AF3B4600221A6017
:101C88005A609A60DA60364B364A1A60344B4FF421
:101C980040325A60324B00229A60314B01221A615D
:101CA8002F4B01221A762E4B002283F820202C4B32
:101CB8000022DA622A4B2C4A9A62294B0022DA6007
:101CC800274B0422DA61264B012283F83020244B6B
:101CD80001225A61224800F0FDFE0346002B01D084
:101CE80000F09CFA05233B6001237B600723BB605F
:101CF8003B4619461A4801F05FF80346002B01D00D
:101D080000F08CFA07233B6002237B603B461946B0
:101D1800134801F051F80346002B01D000F07EFA79
:101D280009233B6003237B603B4619460C4801F0BE
:101D380043F80346002B01D000F070FA0F233B60F4
:101D480004237B603B461946054801F035F80346F5
:101D5800002B01D000F062FA00BF1037BD4680BDED
:101D680098020020002101400100000F80B500AF5B
:101D7800164B174A1A60154B10225A60134B002253
:101D88009A60124B0022DA60104B00221A610F4B46
:101D980000225A610D4B00221A760C4B00225A760B
:101DA8000A4B00229A76094B0022DA76074B00226A
:101DB8001A77064B00225A77044801F09DFA034629
:101DC800002B01D000F02AFA00BF80BDA00300203C
:101DD8000064004080B500AF094B0A4A1A60084BFE
:101DE80001225A60064B07229A60054802F0CFF993
:101DF8000346002B01D000F011FA00BF80BD00BFE0
:101E0800C80300200030004080B592B000AF07F151
:101E1800400300221A605A6007F1240300221A6066
:101E28005A609A60DA601A615A619A613B1D2022F1
:101E38000021184603F010FE394B3A4A1A60384B15
:101E480000225A60364B00229A60354B40F61F52EA
:101E5800DA60334B00221A61314B00225A61304B51
:101E680000229A612E4802F09FFE0346002B01D003
:101E780000F0D4F900233B6400237B6407F140039E
:101E88001946274803F0F6FC0346002B01D000F062
:101E9800C5F960237B620023BB620023FB62002339
:101EA8003B6300237B630023BB630023FB6307F1D1
:101EB8002403002219461A4803F07AF80346002B37
:101EC80001D000F0ABF907F124030C22194614489D
:101ED80003F06EF80346002B01D000F09FF90023B1
:101EE8007B600023BB600023FB6000233B61002371
:101EF8007B614FF40053BB6100233B623B1D1946D5
:101F0800074803F033FD0346002B01D000F086F9A3
:101F1800034800F097FB00BF4837BD4680BD00BFAF
:101F2800D40300200000014080B586B000AF07F15F
:101F3800100300221A605A603B4600221A605A6059
:101F48009A60DA60204B4FF080421A601E4B0022E4
:101F58005A601D4B00229A601B4BA722DA601A4B6D
:101F680000221A61184B00229A61174802F034FFC8
:101F78000346002B01D000F051F900233B610023F8
:101F88007B6107F1100319460F4803F073FC034601
:101F9800002B01D000F042F900233B6001237B6055
:101FA8000023BB600023FB603B4604221946064819
:101FB80002F061FF0346002B01D000F02FF900BFAB
:101FC8001837BD4680BD00BF1C04002080B58AB00C
:101FD80000AF07F1200300221A605A603B1D00225F
:101FE8001A605A609A60DA601A615A619A61284BDD
:101FF800284A1A60264B40F28F625A60244B00220E
:102008009A60234B40F2E732DA60214B00221A61D2
:102018001F4B00229A611E4802F0C6FD0346002BA2
:1020280001D000F0FBF800233B6200237B6207F13C
:1020380020031946164803F01DFC0346002B01D067
:1020480000F0ECF860237B600023BB600023FB609A
:1020580000237B613B1D002219460D4802F0A8FFB2
:102068000346002B01D000F0D9F83B1D0822194681
:10207800074802F09DFF0346002B01D000F0CEF880
:10208800034800F0DFFA00BF2837BD4680BD00BF17
:10209800640400200004004080B582B000AF002333
:1020A8007B60104B1B6B0F4A43F4800313630D4B8B
:1020B8001B6B03F480037B607B68002200213A20BD
:1020C80001F0F1FA3A2001F00AFB002200213C203D
:1020D80001F0E9FA3C2001F002FB00BF0837BD46D9
:1020E80080BD00BF0038024080B58AB000AF07F15C
:1020F800140300221A605A609A60DA601A61002399
:102108003B61424B1B6B414A43F0800313633F4BD7
:102118001B6B03F080033B613B690023FB603B4B77
:102128001B6B3A4A43F004031363384B1B6B03F0F1
:102138000403FB60FB680023BB60344B1B6B334A12
:1021480043F001031363314B1B6B03F00103BB60C6
:10215800BB6800237B602D4B1B6B2C4A43F00203AA
:1021680013632A4B1B6B03F002037B607B6800221E
:1021780040F20461264801F0F1FF00224FF480414B
:10218800244801F0EBFF00224FF40071224801F0CF
:10219800E5FF06237B610023BB610023FB6107F198
:1021A800140319461C4801F025FE40F204637B61C4
:1021B8000123BB610023FB6100233B6207F1140389
:1021C8001946134801F016FE4FF480437B61012342
:1021D800BB610023FB6100233B6207F1140319462E
:1021E8000C4801F007FE4FF400737B610123BB61CB
:1021F8000023FB6100233B6207F1140319460648DC
:1022080001F0F8FD00BF2837BD4680BD0038024008
:1022180000000240000402400008024080B400AF01
:10222800044A137843F01003137000BFBD465DF8ED
:10223800047B70474802002080B483B000AF0023BD
:102248007B60104B5B6C0F4A43F4804353640D4B27
:102258005B6C03F480437B607B6800233B60094B25
:102268001B6C084A43F080531364064B1B6C03F045
:1022780080533B603B6800BF0C37BD465DF8047B6C
:10228800704700BF0038024080B58EB000AF78605C
:1022980007F1240300221A605A609A60DA601A6112
:1022A8007B681B687A4A934259D100233B62794B79
:1022B8005B6C784A43F480735364764B5B6C03F42D
:1022C80080733B623B6A0023FB61724B1B6B714A54
:1022D80043F0010313636F4B1B6B03F00103FB61B6
:1022E800FB690A237B620323BB620023FB6207F1BD
:1022F80024031946684801F07DFD684B684A1A6056
:10230800664B00225A60654B00229A60634B00229C
:10231800DA60624B4FF480621A61604B4FF40062DE
:102328005A615E4B4FF400529A615C4B4FF48072D5
:10233800DA615A4B4FF440321A62584B00225A6203
:10234800564801F0E7F90346002B01D0FFF766FF76
:102358007B68524A9A63514A7B68936393E07B682F
:102368001B68504A934240F08E800023BB61494B62
:102378005B6C484A43F400735364464B5B6C03F44C
:102388000073BB61BB6900237B61424B1B6B414AF5
:1023980043F0010313633F4B1B6B03F001037B61A5
:1023A8007B6900233B613B4B1B6B3A4A43F00403B8
:1023B8001363384B1B6B03F004033B613B69002339
:1023C800FB60344B1B6B334A43F002031363314BFE
:1023D8001B6B03F00203FB60FB68A0237B620323F3
:1023E800BB620023FB6207F1240319462A4801F067
:1023F80001FD20237B620323BB620023FB6207F1FC
:1024080024031946284801F0F5FC02237B620323C4
:10241800BB620023FB6207F124031946234801F03D
:10242800E9FC234B234A1A60214B4FF000725A6093
:102438001F4B00229A601E4B0022DA601C4B4FF49F
:1024480080621A611A4B4FF400625A61184B4FF4BC
:1024580000529A61164B4FF48072DA61144B4FF4B4
:1024680000321A62124B00225A62114801F052F9E6
:102478000346002B01D0FFF7D1FE7B680C4A9A6314
:102488000B4A7B68936300BF3837BD4680BD00BFE9
:10249800002001400038024000000240E002002015
:1024A800706402400021014000080240000402401C
:1024B800400300204064024080B58AB000AF7860D5
:1024C80007F1140300221A605A609A60DA601A61F0
:1024D8007B681B68194A93422CD100233B61184B37
:1024E8001B6C174A43F000731364154B1B6C03F005
:1024F80000733B613B690023FB60114B1B6B104A67
:1025080043F0020313630E4B1B6B03F00203FB60E3
:10251800FB684FF440737B610223BB610023FB61BE
:1025280003233B6209237B6207F11403194605481C
:1025380001F060FC00BF2837BD4680BD0064004044
:10254800003802400004024080B485B000AF7860D3
:102558007B681B68154A93420ED10023FB60144B1D
:102568005B6C134A43F001035364114B5B6C03F03B
:102578000103FB60FB6812E07B681B680D4A93420D
:102588000DD10023BB600A4B1B6C094A43F00203C0
:102598001364074B1B6C03F00203BB60BB6800BFEE
:1025A8001437BD465DF8047B704700BF000001404A
:1025B800003802400004004080B58AB000AF78605F
:1025C80007F1140300221A605A609A60DA601A61EF
:1025D8007B681B68B3F1804F2BD100233B61174BFD
:1025E8001B6C164A43F001031364144B1B6C03F075
:1025F80001033B613B690023FB60104B1B6B0F4AD7
:1026080043F0020313630D4B1B6B03F00203FB60E3
:10261800FB6808237B610223BB610023FB61002365
:102628003B6201237B6207F114031946044801F059
:10263800E1FB00BF2837BD4680BD00BF003802401F
:102648000004024080B58AB000AF786007F1140337
:1026580000221A605A609A60DA601A617B681B6807
:10266800254A93421FD100233B61244B1B6B234A0D
:1026780043F001031363214B1B6B03F001033B6120
:102688003B694FF410637B610223BB610023FB614C
:1026980000233B6201237B6207F1140319461848A3
:1026A80001F0A8FB23E07B681B68164A93421ED101
:1026B8000023FB60114B1B6B104A43F004031363A8
:1026C8000E4B1B6B03F00403FB60FB684FF4A07315
:1026D8007B610223BB610023FB6100233B62022371
:1026E8007B6207F114031946074801F083FB00BF1A
:1026F8002837BD4680BD00BF0000014000380240B9
:1027080000000240000400400008024080B485B088
:1027180000AF786039600023FB810023BB8103236D
:10272800BB8119E0BB8903F10043013B5B007A6878
:102738001A44BB895B0079680B44128892B21A80EC
:10274800BB895B007A6813441B889AB2FB891344DF
:10275800FB81BB89013BBB81BB89002BE2D13B6874
:102768001B889AB27B681A803B681B889AB2FB89DF
:102778001344FB81FB899B08FB81FB8918461437AE
:10278800BD465DF8047B704780B582B000AF00237A
:10279800FB710020FEF710FE03460B4A1360012070
:1027A800FEF70AFE0346094A1360074B1B68002B15
:1027B80003D0064B1B68002B01D10223FB71FB7968
:1027C80018460837BD4680BDAC040020B004002080
:1027D80080B400AF00BFBD465DF8047B704780B48D
:1027E80000AFFEE780B400AFFEE780B400AFFEE7BD
:1027F80080B400AFFEE780B400AF00BFBD465DF80F
:10280800047B704780B400AF00BFBD465DF8047B11
:10281800704780B400AF00BFBD465DF8047B7047C9
:1028280080B500AF00F036F9FEF7A0FE00BF80BD0E
:1028380098B500AF3E4801F073F83E4B1B689A1DEF
:102848003C4B1B681B683B490C6819461046FFF750
:102858005DFF0346A380374B1B6814339A1D354B25
:102868001B6814331968334B1B6803F114041046B2
:10287800FFF74CFF0346A3802E4B1B6828339A1D95
:102888002C4B1B68283319682A4B1B6803F1280452
:102898001046FFF73BFF0346A380264B1B683C33DB
:1028A8009A1D244B1B683C331968224B1B6803F1A3
:1028B8003C041046FFF72AFF0346A38000F0FEF809
:1028C8000346642B16D91B4B1B681846FEF74CFDB4
:1028D800184B1B6814331846FEF746FD154B1B684A
:1028E80028331846FEF740FD124B1B683C33184648
:1028F800FEF73AFD0F4B1B689B889AB20E4B1A8065
:102908000C4B1B6814339B889AB20B4B5A80094BAB
:102918001B6828339B889AB2074B9A80054B1B6823
:102928003C339B889AB2044BDA8000BF98BD00BF45
:1029380040030020B0040020B404002098B500AF84
:10294800094800F0EDFF094B1B689A1D074B1B68EF
:102958001B6806490C6819461046FFF7D7FE034660
:10296800A38000BF98BD00BFE0020020AC04002097
:1029780080B400AF084BD3F88830074A43F470039B
:10298800C2F88830044B4FF000629A6000BFBD4621
:102998005DF8047B704700BF00ED00E0DFF834D03D
:1029A800002103E00C4B5B58435004310B480C4B9F
:1029B80042189A42F6D30B4A02E0002342F8043B3D
:1029C800094B9A42F9D3FFF7D3FF03F021F8FFF739
:1029D80015F8704700000220C45A000800000020C3
:1029E8002801002028010020C0040020FEE7000084
:1029F80080B500AF0E4B1B680D4A43F4007313609B
:102A08000B4B1B680A4A43F480631360084B1B682E
:102A1800074A43F480731360032000F039FE002056
:102A280000F008F8FFF708FC0023184680BD00BF37
:102A3800003C024080B582B000AF7860124B1A6843
:102A4800124B1B7819464FF47A73B3FBF1F3B2FBC0
:102A5800F3F3184600F051FE0346002B01D0012382
:102A68000EE07B680F2B0AD8002279684FF0FF3000
:102A780000F019FE064A7B681360002300E001237A
:102A880018460837BD4680BD1C01002024010020DF
:102A98002001002080B400AF064B1B781A46064B75
:102AA8001B681344044A136000BFBD465DF8047BED
:102AB800704700BF24010020BC04002080B400AF90
:102AC800034B1B681846BD465DF8047B704700BF82
:102AD800BC04002080B584B000AF78600023FB738D
:102AE8007B68002B01D1012333E07B681B6C002B32
:102AF80009D17868FFF7C8FB7B6800225A647B68B5
:102B0800002283F83C207B681B6C03F01003002B29
:102B180018D17B681B6C23F4885323F0020343F01D
:102B280002027B681A64786800F068FA7B68002201
:102B38005A647B681B6C23F0030343F001027B6833
:102B48001A6401E00123FB737B68002283F83C20B0
:102B5800FB7B18461037BD4680BD000080B586B0A7
:102B680000AFF860B9607A6000233B61FB6893F8B6
:102B78003C30012B01D10223E9E0FB68012283F8F4
:102B88003C20FB681B689B6803F00103012B18D0ED
:102B9800FB681B689A68FB681B6842F001029A6030
:102BA8006D4B1B686D4AA2FB03239A0C13465B000E
:102BB80013443B6102E03B69013B3B613B69002BED
:102BC800F9D1FB681B689B6803F48073B3F5807FB9
:102BD80007D1FB681B689A68FB681B6822F480723F
:102BE8009A60FB681B689B6803F00103012B40F0A7
:102BF800A180FB681B6C23F4E06323F0010343F41A
:102C08008072FB681A64FB681B685B6803F4806366
:102C1800002B07D0FB681B6C23F4405343F480520D
:102C2800FB681A64FB681B6C03F48053B3F5805F80
:102C380006D1FB685B6C23F00602FB685A6402E06D
:102C4800FB6800225A64FB68002283F83C20444B4E
:102C58007B61FB689B6B434ADA63FB689B6B424A68
:102C68001A64FB689B6B414ADA64FB681B686FF067
:102C780022021A60FB681B685A68FB681B6842F0EE
:102C880080625A60FB681B689A68FB681B6842F49C
:102C980080729A60FB68986BFB681B684C33194616
:102CA800BA687B6800F0E4FD7B695B6803F01F038A
:102CB800002B2AD1FB681B682D4A934215D0FB686C
:102CC8001B682C4A934205D1254B5B6803F01F0310
:102CD800002B0AD0FB681B68274A934236D1204B49
:102CE8005B6803F01003002B30D1FB681B689B68FE
:102CF80003F04053002B29D1FB681B689A68FB68D6
:102D08001B6842F080429A6020E0FB681B68184A02
:102D180093421BD1FB681B689B6803F04053002B50
:102D280014D1FB681B689A68FB681B6842F08042F4
:102D38009A600BE0FB681B6C43F01002FB681A6496
:102D4800FB685B6C43F00102FB685A640023184679
:102D58001837BD4680BD00BF1C01002083DE1B4321
:102D680000230140FD310008B7320008D3320008C3
:102D780000200140002101400022014080B483B0BE
:102D880000AF786000BF0C37BD465DF8047B704724
:102D980080B483B000AF786000BF0C37BD465DF8E3
:102DA800047B704780B483B000AF786000BF0C37F5
:102DB800BD465DF8047B704780B485B000AF78608D
:102DC80039600023BB607B6893F83C30012B01D14C
:102DD800022305E17B68012283F83C203B681B68DD
:102DE800092B25D97B681B68D9683B681B689BB28F
:102DF8001A4613465B0013441E3B072202FA03F3EC
:102E0800DA437B681B680A40DA607B681B68D9680C
:102E18003B689A683B681B689BB2184603465B0090
:102E280003441E3B9A407B681B680A43DA6022E031
:102E38007B681B6819693B681B689BB21A46134676
:102E48005B001344072202FA03F3DA437B681B682A
:102E58000A401A617B681B6819693B689A683B6875
:102E68001B689BB2184603465B0003449A407B6884
:102E78001B680A431A613B685B68062B24D87B6889
:102E88001B68596B3B685A6813469B001344053B03
:102E98001F2202FA03F3DA437B681B680A405A636D
:102EA8007B681B68596B3B681B689BB218463B687C
:102EB8005A6813469B001344053B00FA03F27B68EB
:102EC8001B680A435A634CE03B685B680C2B24D8A8
:102ED8007B681B68196B3B685A6813469B00134450
:102EE800233B1F2202FA03F3DA437B681B680A407C
:102EF8001A637B681B68196B3B681B689BB2184692
:102F08003B685A6813469B001344233B00FA03F2BC
:102F18007B681B680A431A6323E07B681B68D96ACD
:102F28003B685A6813469B001344413B1F2202FA30
:102F380003F3DA437B681B680A40DA627B681B6824
:102F4800D96A3B681B689BB218463B685A681346A7
:102F58009B001344413B00FA03F27B681B680A4359
:102F6800DA62224BFB607B681B68214A934209D1D5
:102F78003B681B68122B05D1FB685B6843F4800231
:102F8800FB685A607B681B68194A934223D13B68E7
:102F98001B68102B03D03B681B68112B1BD1FB68E7
:102FA8005B6843F40002FB685A603B681B68102B9F
:102FB80011D1104B1B68104AA2FB03239A0C13462D
:102FC8009B0013445B00BB6002E0BB68013BBB6035
:102FD800BB68002BF9D17B68002283F83C200023D2
:102FE80018461437BD465DF8047B7047002301403E
:102FF800002001401C01002083DE1B4380B485B003
:1030080000AF7860794BFB60FB685B6823F4403263
:10301800FB685A60FB685A687B685B681A43FB6800
:103028005A607B681B685A687B681B6822F4807248
:103038005A607B681B6859687B681B691A027B6841
:103048001B680A435A607B681B685A687B681B6860
:1030580022F040725A607B681B6859687B689A68DE
:103068007B681B680A435A607B681B689A687B68A0
:103078001B6822F400629A607B681B6899687B6809
:10308800DA687B681B680A439A607B689B6A584ABF
:10309800934222D07B681B689A687B681B6822F081
:1030A80070629A607B681B6899687B689A6A7B681B
:1030B8001B680A439A607B681B689A687B681B6870
:1030C80022F040529A607B681B6899687B68DA6ACC
:1030D8007B681B680A439A600FE07B681B689A68E4
:1030E8007B681B6822F070629A607B681B689A682C
:1030F8007B681B6822F040529A607B681B689A685C
:103108007B681B6822F002029A607B681B689968DA
:103118007B681B7E5A007B681B680A439A607B6841
:1031280093F82030002B1BD07B681B685A687B689B
:103138001B6842F400625A607B681B685A687B68A7
:103148001B6822F460425A607B681B6859687B6878
:103158005B6A013B5A037B681B680A435A6007E0B5
:103168007B681B685A687B681B6822F400625A6097
:103178007B681B68DA6A7B681B6822F47002DA6273
:103188007B681B68D96A7B68DB69013B1A057B6829
:103198001B680A43DA627B681B689A687B681B684D
:1031A80022F400729A607B681B6899687B6893F8C0
:1031B80030305A027B681B680A439A607B681B6838
:1031C8009A687B681B6822F480629A607B681B6837
:1031D80099687B685B699A027B681B680A439A60F6
:1031E80000BF1437BD465DF8047B704700230140DB
:1031F8000100000F80B584B000AF78607B689B6BDE
:10320800FB60FB681B6C03F05003002B3CD1FB6890
:103218001B6C43F40072FB681A64FB681B689B68AC
:1032280003F04053002B2BD1FB681B7E002B27D1CA
:10323800FB681B68DB6A03F47003002B06D0FB688D
:103248001B689B6803F48063002B19D1FB681B681B
:103258005A68FB681B6822F020025A60FB681B6CE6
:1032680023F48072FB681A64FB681B6C03F48053B8
:10327800002B05D1FB681B6C43F00102FB681A6444
:10328800F868FFF77BFD0EE0FB681B6C03F010038A
:10329800002B03D0F868FFF785FD04E0FB689B6B03
:1032A800DB6C7868984700BF1037BD4680BD80B595
:1032B80084B000AF78607B689B6BFB60F868FFF7B1
:1032C80067FD00BF1037BD4680BD80B584B000AF34
:1032D80078607B689B6BFB60FB6840221A64FB6824
:1032E8005B6C43F00402FB685A64F868FFF75AFD08
:1032F80000BF1037BD4680BD80B584B000AF786090
:103308007B68002B01D10123EDE07B6893F8203026
:10331800DBB2002B02D17868FFF7CEF87B681B6818
:103328001A687B681B6842F001021A60FFF7C6FB47
:10333800F86012E0FFF7C2FB0246FB68D31A0A2BBB
:103348000BD97B685B6A43F400327B685A627B68FE
:10335800052283F820200123C5E07B681B685B6891
:1033680003F00103002BE5D07B681B681A687B68B3
:103378001B6822F002021A60FFF7A0FBF86012E057
:10338800FFF79CFB0246FB68D31A0A2B0BD97B6814
:103398005B6A43F400327B685A627B68052283F8D3
:1033A800202001239FE07B681B685B6803F0020311
:1033B800002BE5D17B681B7E012B08D17B681B683D
:1033C8001A687B681B6842F080021A6007E07B6815
:1033D8001B681A687B681B6822F080021A607B6889
:1033E8005B7E012B08D17B681B681A687B681B68A9
:1033F80042F040021A6007E07B681B681A687B6825
:103408001B6822F040021A607B689B7E012B08D162
:103418007B681B681A687B681B6842F020021A6088
:1034280007E07B681B681A687B681B6822F020022B
:103438001A607B68DB7E012B08D17B681B681A68E1
:103448007B681B6822F010021A6007E07B681B6823
:103458001A687B681B6842F010021A607B681B7F41
:10346800012B08D17B681B681A687B681B6842F0CF
:1034780008021A6007E07B681B681A687B681B688B
:1034880022F008021A607B685B7F012B08D17B68F9
:103498001B681A687B681B6842F004021A6007E020
:1034A8007B681B681A687B681B6822F004021A6034
:1034B8007B689A687B68DB681A437B681B691A43D8
:1034C8007B685B6942EA03017B685B685A1E7B681C
:1034D8001B680A43DA617B6800225A627B68012212
:1034E80083F82020002318461037BD4680BD000011
:1034F80080B485B000AF78607B6803F00703FB6099
:103508000C4BDB68BB60BA684FF6FF031340BB6027
:10351800FB681A02BB68134343F0BF6343F40033EC
:10352800BB60044ABB68D36000BF1437BD465DF872
:10353800047B704700ED00E080B400AF044BDB680B
:103548001B0A03F007031846BD465DF8047B704765
:1035580000ED00E080B483B000AF0346FB7197F93B
:103568000730002B0BDBFB7903F01F02074997F9A3
:1035780007305B09012000FA02F241F8232000BF5E
:103588000C37BD465DF8047B704700BF00E100E0E2
:1035980080B483B000AF03463960FB7197F90730F8
:1035A800002B0ADB3B68DAB20C4997F907301201A5
:1035B800D2B20B4483F800230AE03B68DAB2084928
:1035C800FB7903F00F03043B1201D2B20B441A76C5
:1035D80000BF0C37BD465DF8047B704700E100E092
:1035E80000ED00E080B489B000AFF860B9607A609F
:1035F800FB6803F00703FB61FB69C3F10703042BB6
:1036080028BF0423BB61FB690433062B02D9FB697D
:10361800033B00E000237B614FF0FF32BB6902FAF5
:1036280003F3DA43BB681A407B699A404FF0FF31D5
:103638007B6901FA03F3D9437B680B4013431846AF
:103648002437BD465DF8047B7047000080B582B022
:1036580000AF78607B68013BB3F1807F01D3012321
:103668000FE00A4A7B68013B53600F214FF0FF309F
:10367800FFF78EFF054B00229A60044B07221A6061
:10368800002318460837BD4680BD00BF10E000E0A3
:1036980080B582B000AF78607868FFF729FF00BF77
:1036A8000837BD4680BD80B586B000AF0346B96017
:1036B8007A60FB7300237B61FFF73EFF78617A68CD
:1036C800B9687869FFF78EFF024697F90F301146FF
:1036D8001846FFF75DFF00BF1837BD4680BD80B5AF
:1036E80082B000AF0346FB7197F907301846FFF721
:1036F80031FF00BF0837BD4680BD80B582B000AF3E
:1037080078607868FFF7A2FF034618460837BD4679
:1037180080BD000080B586B000AF786000237B6173
:10372800FFF7CCF938617B68002B01D1012399E0C0
:103738007B68022283F835207B68002283F83420D6
:103748007B681B681A687B681B6822F001021A6094
:103758000FE0FFF7B3F902463B69D31A052B08D9E6
:103768007B6820225A657B68032283F8352003236F
:1037780078E07B681B681B6803F00103002BE8D125
:103788007B681B681B687B617A69384B13407B61D7
:103798007B685A687B689B681A437B68DB681A43B6
:1037A8007B681B691A437B685B691A437B689B6962
:1037B8001A437B68DB691A437B681B6A13437A697F
:1037C80013437B617B685B6A042B07D17B68DA6AE9
:1037D8007B681B6B13437A6913437B617B681B68A7
:1037E8007A691A607B681B685B697B617B6923F077
:1037F80007037B617B685B6A7A6913437B617B683B
:103808005B6A042B17D17B689B6A7A6913437B61D7
:103818007B68DB6A002B0ED0786800F06FFA0346ED
:10382800002B08D07B6840225A657B68012283F808
:103838003520012316E07B681B687A695A6178682D
:1038480000F026FA0346FB607B68DB6D3F229A4056
:10385800FB689A607B6800225A657B68012283F8BE
:103868003520002318461837BD4680BD3F8010F02C
:1038780080B586B000AFF860B9607A603B6000231D
:10388800FB75FB689B6D3B61FB6893F83430012B3B
:1038980001D1022340E0FB68012283F83420FB6851
:1038A80093F83530DBB2012B2FD1FB68022283F865
:1038B8003520FB6800225A653B687A68B968F86861
:1038C80000F0B8F9FB68DB6D3F229A403B699A60CB
:1038D800FB681B681A68FB681B6842F016021A60CE
:1038E800FB681B6C002B07D0FB681B681A68FB6819
:1038F8001B6842F008021A60FB681B681A68FB68BC
:103908001B6842F001021A6005E0FB68002283F898
:1039180034200223FB75FB7D18461837BD4680BD51
:1039280080B586B000AF78600023BB608E4B1B6803
:103938008E4AA2FB03239B0A7B617B689B6D3B61DC
:103948003B691B68FB607B68DB6D08229A40FB685B
:103958001340002B1AD07B681B681B6803F0040314
:10396800002B13D07B681B681A687B681B6822F0E1
:1039780004021A607B68DB6D08229A403B699A60F2
:103988007B685B6D43F001027B685A657B68DB6D81
:1039980001229A40FB681340002B12D07B681B68F9
:1039A8005B6903F08003002B0BD07B68DB6D012281
:1039B8009A403B699A607B685B6D43F002027B68C2
:1039C8005A657B68DB6D04229A40FB681340002B24
:1039D80012D07B681B681B6803F00203002B0BD016
:1039E8007B68DB6D04229A403B699A607B685B6D5B
:1039F80043F004027B685A657B68DB6D10229A40AD
:103A0800FB681340002B43D07B681B681B6803F0DE
:103A18000803002B3CD07B68DB6D10229A403B6981
:103A28009A607B681B681B6803F48023002B18D0FE
:103A38007B681B681B6803F40023002B08D17B6894
:103A48001B6C002B24D07B681B6C786898471FE0A0
:103A58007B689B6C002B1BD07B689B6C78689847B5
:103A680016E07B681B681B6803F48073002B07D182
:103A78007B681B681A687B681B6822F008021A605A
:103A88007B681B6C002B03D07B681B6C786898479D
:103A98007B68DB6D20229A40FB681340002B00F006
:103AA8008F807B681B681B6803F01003002B00F0F5
:103AB80087807B68DB6D20229A403B699A607B682F
:103AC80093F83530DBB2052B36D17B681B681A6852
:103AD8007B681B6822F016021A607B681B685A69AB
:103AE8007B681B6822F080025A617B681B6C002B84
:103AF80003D17B689B6C002B07D07B681B681A6816
:103B08007B681B6822F008021A607B68DB6D3F2225
:103B18009A403B699A607B68012283F835207B686C
:103B2800002283F834207B681B6D002B7ED07B68D5
:103B38001B6D7868984779E07B681B681B6803F4FD
:103B48008023002B1DD07B681B681B6803F40023AF
:103B5800002B0DD17B685B6C002B31D07B685B6CD4
:103B6800786898472CE000BF1C010020B5814E1BE7
:103B78007B68DB6B002B23D07B68DB6B786898470E
:103B88001EE07B681B681B6803F48073002B0FD151
:103B98007B681B681A687B681B6822F010021A6031
:103BA8007B68012283F835207B68002283F8342063
:103BB8007B68DB6B002B03D07B68DB6B78689847EE
:103BC8007B685B6D002B32D07B685B6D03F0010373
:103BD800002B22D07B68052283F835207B681B6880
:103BE8001A687B681B6822F001021A60BB680133FF
:103BF800BB607A699A4207D37B681B681B6803F02D
:103C08000103002BF2D100E000BF7B68012283F89A
:103C180035207B68002283F834207B68DB6C002B1E
:103C280005D07B68DB6C7868984700E000BF1837E0
:103C3800BD4680BD80B485B000AFF860B9607A60D9
:103C48003B60FB681B681A68FB681B6822F48022CB
:103C58001A60FB681B683A685A60FB689B68402BCF
:103C680008D1FB681B687A689A60FB681B68BA68A9
:103C7800DA6007E0FB681B68BA689A60FB681B6833
:103C88007A68DA6000BF1437BD465DF8047B704778
:103C980080B485B000AF78607B681B68DBB2103BEE
:103CA800144AA2FB03231B09FB60134AFB68134455
:103CB8001B781A467B68DA65FB68032B09D97B6891
:103CC8001B6823F47F7323F003031A1D7B689A652E
:103CD80007E07B681B6823F47F7323F003037A688B
:103CE80093657B689B6D18461437BD465DF8047B69
:103CF800704700BFABAAAAAAAC5A000880B485B026
:103D080000AF78600023FB737B689B6ABB607B68AD
:103D18009B69002B1FD1BB68032B56D801A252F810
:103D280023F000BF3D3D00084F3D00083D3D000821
:103D3800D33D00087B68DB6A03F08073002B46D014
:103D48000123FB7343E07B68DB6AB3F1C07F40D19A
:103D58000123FB733DE07B689B69B3F5005F21D1CC
:103D6800BB68032B37D801A252F823F0853D000821
:103D78008B3D0008853D00089D3D00080123FB732D
:103D880030E07B68DB6A03F08073002B25D00123C9
:103D9800FB7322E07B68DB6AB3F1C07F1FD101238C
:103DA800FB731CE0BB68022B03D9BB68032B03D051
:103DB80018E00123FB7315E07B68DB6A03F080736E
:103DC800002B0ED00123FB730BE000BF0AE000BFFD
:103DD80008E000BF06E000BF04E000BF02E000BF4B
:103DE80000E000BFFB7B18461437BD465DF8047B36
:103DF800704700BF80B489B000AF78603960002395
:103E08007B6100233B610023BB610023FB616BE105
:103E18000122FB6902FA03F37B613B681B687A693C
:103E280013403B613A697B699A4240F05A813B688A
:103E38005B6803F00303012B05D03B685B6803F064
:103E48000303022B30D17B689B68BB61FB695B0075
:103E5800032202FA03F3DB43BA691340BB613B68F0
:103E6800DA68FB695B0002FA03F3BA691343BB61C2
:103E78007B68BA699A607B685B68BB610122FB69F1
:103E880002FA03F3DB43BA691340BB613B685B6822
:103E98001B0903F00102FB6902FA03F3BA69134331
:103EA800BB617B68BA695A603B685B6803F00303CF
:103EB800032B17D07B68DB68BB61FB695B000322BF
:103EC80002FA03F3DB43BA691340BB613B689A68A3
:103ED800FB695B0002FA03F3BA691343BB617B68B1
:103EE800BA69DA603B685B6803F00303022B23D1ED
:103EF800FB69DA087B68083253F82230BB61FB693A
:103F080003F007039B000F2202FA03F3DB43BA69AD
:103F18001340BB613B681A69FB6903F007039B0008
:103F280002FA03F3BA691343BB61FB69DA087B68D9
:103F38000832B96943F822107B681B68BB61FB69CA
:103F48005B00032202FA03F3DB43BA691340BB6147
:103F58003B685B6803F00302FB695B0002FA03F34A
:103F6800BA691343BB617B68BA691A603B685B68CE
:103F780003F44033002B00F0B4800023FB60604B57
:103F88005B6C5F4A43F4804353645D4B5B6C03F4A2
:103F98008043FB60FB685B4AFB699B08023352F86D
:103FA8002330BB61FB6903F003039B000F2202FA75
:103FB80003F3DB43BA691340BB617B68524A9342FF
:103FC8002BD07B68514A934225D07B68504A934254
:103FD8001FD07B684F4A934219D07B684E4A934260
:103FE80013D07B684D4A93420DD07B684C4A93426C
:103FF80007D07B684B4A934201D107230EE0082380
:104008000CE006230AE0052308E0042306E0032366
:1040180004E0022302E0012300E00023FA6902F031
:10402800030292009340BA691343BB613549FB69A7
:104038009B080233BA6941F823203B4B9B68BB615C
:104048003B69DB43BA691340BB613B685B6803F4B7
:104058008013002B03D0BA693B691343BB61324A12
:10406800BB699360304BDB68BB613B69DB43BA6972
:104078001340BB613B685B6803F40013002B03D05B
:10408800BA693B691343BB61274ABB69D360264BB6
:104098005B68BB613B69DB43BA691340BB613B6842
:1040A8005B6803F40033002B03D0BA693B69134300
:1040B800BB611D4ABB6953601B4B1B68BB613B69F5
:1040C800DB43BA691340BB613B685B6803F4803328
:1040D800002B03D0BA693B691343BB61124ABB6921
:1040E8001360FB690133FB61FB690F2B7FF690AE10
:1040F80000BF00BF2437BD465DF8047B704700BF92
:10410800003802400038014000000240000402402C
:1041180000080240000C0240001002400014024057
:1041280000180240001C0240003C014080B485B0E9
:1041380000AF78600B467B807B681A697B881340E8
:10414800002B02D00123FB7301E00023FB73FB7BF0
:1041580018461437BD465DF8047B704780B483B0B9
:1041680000AF78600B467B8013467B707B78002B12
:1041780003D07A887B689A6103E07B881A047B689D
:104188009A6100BF0C37BD465DF8047B704780B567
:1041980084B000AF78607B68002B01D1012334E044
:1041A8007B681B684CF6CC421A607B681B6845F23A
:1041B80055521A607B681B687A6852685A607B6837
:1041C8001B687A6892689A60FEF778FCF8600FE0DE
:1041D800FEF774FC0246FB68D31A312B08D97B68BA
:1041E8001B68DB6803F00303002B01D003230CE0FA
:1041F8007B681B68DB6803F00303002BE8D17B684E
:104208001B684AF6AA221A60002318461037BD46D2
:1042180080BD000080B586B000AF78607B68002B59
:1042280001D1012367E27B681B6803F00103002BBF
:1042380075D0884B9B6803F00C03042B0CD0854B7E
:104248009B6803F00C03082B12D1824B5B6803F4C4
:104258008003B3F5800F0BD17E4B1B6803F400334A
:10426800002B5BD07B685B68002B57D1012342E2AF
:104278007B685B68B3F5803F06D1764B1B68754A4F
:1042880043F4803313601DE07B685B68B3F5A02FAF
:104298000CD1704B1B686F4A43F4802313606D4B3D
:1042A8001B686C4A43F4803313600BE0694B1B684E
:1042B800684A23F480331360664B1B68654A23F40D
:1042C800802313607B685B68002B13D0FEF7F6FB36
:1042D800386108E0FEF7F2FB02463B69D31A642B0B
:1042E80001D9032307E25B4B1B6803F40033002B5F
:1042F800F0D014E0FEF7E2FB386108E0FEF7DEFBE1
:1043080002463B69D31A642B01D90323F3E1514BCD
:104318001B6803F40033002BF0D100E000BF7B687A
:104328001B6803F00203002B63D04A4B9B6803F021
:104338000C03002B0BD0474B9B6803F00C03082B96
:104348001CD1444B5B6803F48003002B16D1414B0E
:104358001B6803F00203002B05D07B68DB68012B88
:1043680001D00123C7E13B4B1B6823F0F8027B68AF
:104378001B69DB00374913430B603AE07B68DB6855
:10438800002B20D0344B01221A60FEF797FB3861CE
:1043980008E0FEF793FB02463B69D31A022B01D9CA
:1043A8000323A8E12B4B1B6803F00203002BF0D07A
:1043B800284B1B6823F0F8027B681B69DB00254942
:1043C80013430B6015E0244B00221A60FEF776FBBE
:1043D800386108E0FEF772FB02463B69D31A022BEC
:1043E80001D9032387E11B4B1B6803F00203002B51
:1043F800F0D17B681B6803F00803002B36D07B687C
:104408005B69002B16D0154B01221A60FEF756FB8C
:10441800386108E0FEF752FB02463B69D31A022BCB
:1044280001D9032367E10B4B5B6F03F00203002BF9
:10443800F0D01BE0094B00221A60FEF73FFB386101
:104448000EE0FEF73BFB02463B69D31A022B07D965
:10445800032350E10038024000004742800E4742E3
:10446800884B5B6F03F00203002BEAD17B681B6863
:1044780003F00403002B00F097800023FB75814BA9
:104488001B6C03F08053002B0FD10023BB607D4BC6
:104498001B6C7C4A43F0805313647A4B1B6C03F00B
:1044A8008053BB60BB680123FB75774B1B6803F423
:1044B8008073002B18D1744B1B68734A43F48073C4
:1044C8001360FEF7FBFA386108E0FEF7F7FA0246D8
:1044D8003B69D31A022B01D903230CE16A4B1B68F1
:1044E80003F48073002BF0D07B689B68012B06D106
:1044F800644B1B6F634A43F0010313671CE07B683E
:104508009B68052B0CD15F4B1B6F5E4A43F004037D
:1045180013675C4B1B6F5B4A43F0010313670BE0A7
:10452800584B1B6F574A23F001031367554B1B6FFA
:10453800544A23F0040313677B689B68002B15D04B
:10454800FEF7BCFA38610AE0FEF7B8FA02463B69A2
:10455800D31A41F28832934201D90323CBE0494B65
:104568001B6F03F00203002BEED014E0FEF7A6FA4F
:1045780038610AE0FEF7A2FA02463B69D31A41F213
:104588008832934201D90323B5E03E4B1B6F03F0F9
:104598000203002BEED1FB7D012B05D1394B1B6C9F
:1045A800384A23F0805313647B689B69002B00F022
:1045B800A180344B9B6803F00C03082B5CD07B680C
:1045C8009B69022B41D1314B00221A60FEF776FA23
:1045D800386108E0FEF772FA02463B69D31A022BEB
:1045E80001D9032387E0274B1B6803F00073002BD6
:1045F800F0D17B68DA697B681B6A1A437B685B6A5F
:104608009B011A437B689B6A5B08013B1B041A43A6
:104618007B68DB6A1B061B4913434B601B4B01225B
:104628001A60FEF74BFA386108E0FEF747FA0246CF
:104638003B69D31A022B01D903235CE0114B1B6899
:1046480003F00073002BF0D054E0104B00221A60E6
:10465800FEF734FA386108E0FEF730FA02463B69A3
:10466800D31A022B01D9032345E0064B1B6803F03C
:104678000073002BF0D13DE07B689B69012B07D1CB
:10468800012338E0003802400070004060004742D3
:104698001B4B5B68FB607B689B69012B28D0FB6820
:1046A80003F480027B68DB699A4221D1FB6803F03E
:1046B8003F027B681B6A9A421AD1FA6847F6C073B0
:1046C80013407A68526A9201934211D1FB6803F44D
:1046D80040327B689B6A5B08013B1B049A4207D106
:1046E800FB6803F070627B68DB6A1B069A4201D0A4
:1046F800012300E0002318461837BD4680BD00BFDF
:104708000038024080B584B000AF786039607B68BB
:10471800002B01D10123CCE0684B1B6803F0070391
:104728003A689A420CD9654B3A68D2B21A70634B10
:104738001B6803F007033A689A4201D00123B8E0E6
:104748007B681B6803F00203002B20D07B681B6882
:1047580003F00403002B05D0594B9B68584A43F4D7
:10476800E05393607B681B6803F00803002B05D0B7
:10477800534B9B68524A43F460439360504B9B6889
:1047880023F0F0027B689B684D4913438B607B687C
:104798001B6803F00103002B44D07B685B68012B86
:1047A80007D1474B1B6803F40033002B19D10123B1
:1047B8007FE07B685B68022B03D07B685B68032B18
:1047C80007D13F4B1B6803F00073002B09D101236D
:1047D8006FE03B4B1B6803F00203002B01D1012360
:1047E80067E0374B9B6823F003027B685B683449BA
:1047F80013438B60FEF762F9F8600AE0FEF75EF992
:104808000246FB68D31A41F28832934201D9032346
:104818004FE02B4B9B6803F00C027B685B689B00A6
:104828009A42EBD1254B1B6803F007033A689A427A
:104838000CD2224B3A68D2B21A70204B1B6803F094
:1048480007033A689A4201D0012332E07B681B686B
:1048580003F00403002B08D0194B9B6823F4E052A3
:104868007B68DB68164913438B607B681B6803F021
:104878000803002B09D0124B9B6823F460427B6825
:104888001B69DB000E4913438B6000F021F80246D8
:104898000B4B9B681B0903F00F030A49CB5C22FAF8
:1048A80003F3094A1360094B1B681846FEF7C2F860
:1048B800002318461037BD4680BD00BF003C0240AB
:1048C800003802409C5A00081C01002020010020EA
:1048D8002DE9B04F94B000AF00237B640023FB6444
:1048E80000233B640023BB64794B9B6803F00C03F3
:1048F800082B0DD0082B00F2E180002B02D0042BEE
:1049080003D0DBE0734BBB64DBE0724BBB64D8E0E5
:104918006F4B5B6803F03F037B646D4B5B6803F48C
:104928008003002B63D06A4B5B689B090022BB6342
:10493800FA63BB6BC3F308033B6300237B63D7E9CC
:104948000C4522462B464FF000004FF0000159015C
:1049580041EAD261500102460B462146511A39619B
:10496800294663EB01037B614FF000024FF000031F
:10497800D7E904AB59468B01514643EA9163514646
:104988008A015146B2EB0108594663EB01094FF021
:1049980000024FF000034FEAC90343EA58734FEA95
:1049A800C80290469946234618EB0303BB602B4682
:1049B80049EB0303FB604FF000024FF00003D7E917
:1049C800024529468B02214643EA915321468A0231
:1049D800104619467B6C0022BB62FA62D7E90A23AB
:1049E800FBF7EEFB02460B461346FB6458E0384BD8
:1049F8005B689B09002218461146C0F308033B6216
:104A080000237B62D7E9088942464B464FF00000F5
:104A18004FF00001590141EAD261500102460B46AC
:104A28004146B2EB010A494663EB010B4FF0000225
:104A38004FF000034FEA8B1343EA9A634FEA8A1256
:104A4800B2EB0A0463EB0B054FF000024FF00003D2
:104A5800EB0043EA5473E20014461D464346E3184C
:104A68003B604B4645EB03037B604FF000024FF081
:104A78000003D7E9004529468B02214643EA9153B2
:104A880021468A02104619467B6C0022BB61FA61F6
:104A9800D7E90623FBF794FB02460B461346FB6453
:104AA8000B4B5B681B0C03F0030301335B003B6497
:104AB800FA6C3B6CB2FBF3F3BB6402E0054BBB64DE
:104AC80000BFBB6C18465037BD46BDE8B08F00BF6D
:104AD800003802400024F40080B485B000AF78604C
:104AE8007B6893F83D30DBB2012B01D0012346E00F
:104AF8007B68022283F83D207B681B68234A934227
:104B080022D07B681B68B3F1804F1DD07B681B687F
:104B18001F4A934218D07B681B681E4A934213D0E1
:104B28007B681B681C4A93420ED07B681B681B4A33
:104B3800934209D07B681B68194A934204D07B686A
:104B48001B68184A934211D17B681B689B6803F065
:104B58000703FB60FB68062B10D07B681B681A688C
:104B68007B681B6842F001021A6007E07B681B68DB
:104B78001A687B681B6842F001021A600023184615
:104B88001437BD465DF8047B704700BF0000014044
:104B98000004004000080040000C004000040140F0
:104BA800004001400018004080B582B000AF786036
:104BB8007B68002B01D1012341E07B6893F83D30ED
:104BC800DBB2002B06D17B68002283F83C20786892
:104BD800FDF7BAFC7B68022283F83D207B681A68DF
:104BE8007B6804331946104600F0A4FA7B6801225A
:104BF80083F846207B68012283F83E207B680122E7
:104C080083F83F207B68012283F840207B680122DB
:104C180083F841207B68012283F842207B680122C7
:104C280083F843207B68012283F844207B680122B3
:104C380083F845207B68012283F83D20002318462D
:104C48000837BD4680BD000080B584B000AF7860ED
:104C580039603B68002B09D17B6893F83E30DBB2A2
:104C6800012B14BF01230023DBB222E03B68042B95
:104C780009D17B6893F83F30DBB2012B14BF0123C5
:104C88000023DBB215E03B68082B09D17B6893F859
:104C98004030DBB2012B14BF01230023DBB208E054
:104CA8007B6893F84130DBB2012B14BF012300234A
:104CB800DBB2002B01D001237CE03B68002B04D140
:104CC8007B68022283F83E2013E03B68042B04D162
:104CD8007B68022283F83F200BE03B68082B04D155
:104CE8007B68022283F8402003E07B68022283F875
:104CF80041207B681B6801223968184600F094FD42
:104D08007B681B682D4A934204D07B681B682C4A39
:104D1800934201D1012300E00023002B07D07B68D8
:104D28001B685A6C7B681B6842F400425A647B68B3
:104D38001B68224A934222D07B681B68B3F1804FDC
:104D48001DD07B681B681F4A934218D07B681B687C
:104D58001D4A934213D07B681B681C4A93420ED0AD
:104D68007B681B68164A934209D07B681B68184AFF
:104D7800934204D07B681B68164A934211D17B6822
:104D88001B689B6803F00703FB60FB68062B10D0C9
:104D98007B681B681A687B681B6842F001021A600E
:104DA80007E07B681B681A687B681B6842F0010291
:104DB8001A60002318461037BD4680BD0000014028
:104DC800000401400004004000080040000C0040BE
:104DD800004001400018004080B582B000AF786004
:104DE8007B68002B01D1012341E07B6893F83D30BB
:104DF800DBB2002B06D17B68002283F83C20786860
:104E0800FDF7DAFB7B68022283F83D207B681A688D
:104E18007B6804331946104600F08CF97B68012240
:104E280083F846207B68012283F83E207B680122B4
:104E380083F83F207B68012283F840207B680122A9
:104E480083F841207B68012283F842207B68012295
:104E580083F843207B68012283F844207B68012281
:104E680083F845207B68012283F83D2000231846FB
:104E78000837BD4680BD80B586B000AFF860B96020
:104E88007A600023FB75FB6893F83C30012B01D155
:104E9800022388E0FB68012283F83C207B68002B12
:104EA8001BD1FB681868BB681968BB685A68BB687F
:104EB800DB6800F08FFBFB681B689A69FB681B685E
:104EC80022F00C029A61FB681B689969BB689A68B2
:104ED800FB681B680A439A6160E07B68042B1CD15D
:104EE800FB681868BB681968BB685A68BB68DB68E8
:104EF80000F0E4FBFB681B689A69FB681B6822F4F6
:104F080040629A61FB681B689969BB689B681A02D2
:104F1800FB681B680A439A6140E07B68082B1BD139
:104F2800FB681868BB681968BB685A68BB68DB68A7
:104F380000F001FCFB681B68DA69FB681B6822F05B
:104F48000C02DA61FB681B68D969BB689A68FB6860
:104F58001B680A43DA6121E07B680C2B1CD1FB68D3
:104F68001868BB681968BB685A68BB68DB6800F0DA
:104F78001EFCFB681B68DA69FB681B6822F4406248
:104F8800DA61FB681B68D969BB689B681A02FB6811
:104F98001B680A43DA6101E00123FB75FB68002204
:104FA80083F83C20FB7D18461837BD4680BD0000BD
:104FB80080B586B000AFF860B9607A600023FB75F1
:104FC800FB6893F83C30012B01D10223AEE0FB686B
:104FD800012283F83C207B680C2B00F29F8001A201
:104FE80052F823F0215000082551000825510008E7
:104FF8002551000861500008255100082551000876
:1050080025510008A3500008255100082551000823
:1050180025510008E3500008FB681B68B96818466A
:1050280000F028F9FB681B689A69FB681B6842F066
:1050380008029A61FB681B689A69FB681B6822F082
:1050480004029A61FB681B689969BB681A69FB6866
:105058001B680A439A6164E0FB681B68B9681846D4
:1050680000F078F9FB681B689A69FB681B6842F4D2
:1050780000629A61FB681B689A69FB681B6822F4E6
:1050880080629A61FB681B689969BB681B691A0290
:10509800FB681B680A439A6143E0FB681B68B968B0
:1050A800184600F0CDF9FB681B68DA69FB681B68D5
:1050B80042F00802DA61FB681B68DA69FB681B6862
:1050C80022F00402DA61FB681B68D969BB681A69B7
:1050D800FB681B680A43DA6123E0FB681B68B96850
:1050E800184600F021FAFB681B68DA69FB681B6840
:1050F80042F40062DA61FB681B68DA69FB681B68C6
:1051080022F48062DA61FB681B68D969BB681B6995
:105118001A02FB681B680A43DA6102E00123FB7587
:1051280000BFFB68002283F83C20FB7D1846183737
:10513800BD4680BD80B485B000AF786039607B68BB
:105148001B68FB607B68404A934213D07B68B3F1CD
:10515800804F0FD07B683D4A93420BD07B683C4A16
:10516800934207D07B683B4A934203D07B683A4A14
:10517800934208D1FB6823F07003FB603B685B68CF
:10518800FA681343FB607B682F4A93422BD07B68F5
:10519800B3F1804F27D07B682C4A934223D07B6899
:1051A8002B4A93421FD07B682A4A93421BD07B68C4
:1051B800294A934217D07B68284A934213D07B68C8
:1051C800274A93420FD07B68264A93420BD07B68CC
:1051D800254A934207D07B68244A934203D07B68D0
:1051E800234A934208D1FB6823F44073FB603B6871
:1051F800DB68FA681343FB60FB6823F080023B68B6
:105208005B691343FB607B68FA681A603B689A68BD
:105218007B68DA623B681A687B689A627B680A4A2C
:10522800934203D07B680C4A934203D13B681A69C6
:105238007B681A637B6801225A6100BF1437BD4638
:105248005DF8047B704700BF000001400004004087
:1052580000080040000C00400004014000400140EC
:10526800004401400048014000180040001C004074
:105278000020004080B487B000AF786039607B6858
:105288001B6A23F001027B681A627B681B6A7B61D8
:105298007B685B683B617B689B69FB60FB6823F00C
:1052A8007003FB60FB6823F00303FB603B681B682B
:1052B800FA681343FB607B6923F002037B613B6858
:1052C8009B687A6913437B617B68204A934203D0C9
:1052D8007B681F4A93420CD17B6923F008037B61EA
:1052E8003B68DB687A6913437B617B6923F00403BD
:1052F8007B617B68154A934203D07B68144A9342CA
:1053080011D13B6923F480733B613B6923F400733B
:105318003B613B685B693A6913433B613B689B6946
:105328003A6913433B617B683A695A607B68FA685B
:105338009A613B685A687B685A637B687A691A6223
:1053480000BF1C37BD465DF8047B70470000014074
:105358000004014080B487B000AF786039607B6892
:105368001B6A23F010027B681A627B681B6A7B61E8
:105378007B685B683B617B689B69FB60FB6823F427
:10538800E043FB60FB6823F44073FB603B681B68E9
:105398001B02FA681343FB607B6923F020037B61DF
:1053A8003B689B681B017A6913437B617B68224ACF
:1053B800934203D07B68214A93420DD17B6923F045
:1053C80080037B613B68DB681B017A6913437B615F
:1053D8007B6923F040037B617B68174A934203D0C3
:1053E8007B68164A934213D13B6923F480633B617F
:1053F8003B6923F400633B613B685B699B003A6946
:1054080013433B613B689B699B003A6913433B61CB
:105418007B683A695A607B68FA689A613B685A689F
:105428007B689A637B687A691A6200BF1C37BD463D
:105438005DF8047B704700BF000001400004014094
:1054480080B487B000AF786039607B681B6A23F44A
:1054580080727B681A627B681B6A7B617B685B6809
:105468003B617B68DB69FB60FB6823F07003FB60D2
:10547800FB6823F00303FB603B681B68FA6813436F
:10548800FB607B6923F400737B613B689B681B02AC
:105498007A6913437B617B68214A934203D07B6816
:1054A800204A93420DD17B6923F400637B613B68FA
:1054B800DB681B027A6913437B617B6923F4806391
:1054C8007B617B68164A934203D07B68154A9342F6
:1054D80013D13B6923F480533B613B6923F40053A8
:1054E8003B613B685B691B013A6913433B613B685D
:1054F8009B691B013A6913433B617B683A695A60AF
:105508007B68FA68DA613B685A687B68DA637B68AB
:105518007A691A6200BF1C37BD465DF8047B704784
:10552800000001400004014080B487B000AF7860FB
:1055380039607B681B6A23F480527B681A627B6837
:105548001B6A3B617B685B687B617B68DB69FB602E
:10555800FB6823F4E043FB60FB6823F44073FB60C3
:105568003B681B681B02FA681343FB603B6923F422
:1055780000533B613B689B681B033A6913433B61DB
:105588007B68124A934203D07B68114A934209D13F
:105598007B6923F480437B613B685B699B017A6983
:1055A80013437B617B687A695A607B68FA68DA61C1
:1055B8003B685A687B681A647B683A691A6200BF5C
:1055C8001C37BD465DF8047B704700BF00000140F2
:1055D8000004014080B487B000AFF860B9607A6019
:1055E8003B60FB681B6A23F00102FB681A62FB68D8
:1055F8009B697B61FB681B6A3B61FB68284A934295
:105608001BD0FB68B3F1804F17D0FB68254A934243
:1056180013D0FB68244A93420FD0FB68234A934275
:105628000BD0FB68224A934207D0FB68214A934279
:1056380003D0FB68204A934201D1012300E00023F4
:10564800002B08D07B6923F003037B617A697B68B0
:1056580013437B6103E07B6943F001037B617B6952
:1056680023F0F0037B613B681B01DBB27A691343CB
:105678007B613B6923F00A033B61BB6803F00A03C3
:105688003A6913433B61FB687A699A61FB683A6936
:105698001A6200BF1C37BD465DF8047B704700BF27
:1056A800000001400004004000080040000C0040D9
:1056B80000040140004001400018004080B487B059
:1056C80000AFF860B9607A603B60FB681B6A23F042
:1056D8001002FB681A62FB689B697B61FB681B6AA6
:1056E8003B617B6923F440737B617B681B027A69A9
:1056F80013437B617B6923F470437B613B681B0325
:105708009BB27A6913437B613B6923F0A0033B6139
:10571800BB681B0103F0A0033A6913433B61FB68B4
:105728007A699A61FB683A691A6200BF1C37BD46FC
:105738005DF8047B704780B487B000AFF860B9604B
:105748007A603B60FB681B6A23F48072FB681A620C
:10575800FB68DB697B61FB681B6A3B617B6923F043
:1057680003037B617A697B6813437B617B6923F060
:10577800F0037B613B681B01DBB27A6913437B61F1
:105788003B6923F420633B61BB681B0203F420637D
:105798003A6913433B61FB687A69DA61FB683A69E5
:1057A8001A6200BF1C37BD465DF8047B704780B4A1
:1057B80087B000AFF860B9607A603B60FB681B6A2D
:1057C80023F48052FB681A62FB68DB697B61FB6823
:1057D8001B6A3B617B6923F440737B617B681B0216
:1057E8007A6913437B617B6923F470437B613B686F
:1057F8001B039BB27A6913437B613B6923F4204303
:105808003B61BB681B0303F420433A6913433B61C4
:10581800FB687A69DA61FB683A691A6200BF1C376B
:10582800BD465DF8047B704780B487B000AFF86070
:10583800B9607A60BB6803F01F03012202FA03F320
:105848007B61FB681A6A7B69DB431A40FB681A6252
:10585800FB681A6ABB6803F01F03796801FA03F34F
:105868001A43FB681A6200BF1C37BD465DF8047B0B
:105878007047000080B485B000AF786039607B68FD
:1058880093F83C30012B01D102235AE07B680122B6
:1058980083F83C207B68022283F83D207B681B68E4
:1058A8005B68FB607B681B689B68BB60FB6823F0D8
:1058B8007003FB603B681B68FA681343FB607B68F6
:1058C8001B68FA685A607B681B68214A934222D099
:1058D8007B681B68B3F1804F1DD07B681B681D4A2D
:1058E800934218D07B681B681B4A934213D07B688D
:1058F8001B681A4A93420ED07B681B68184A934269
:1059080009D07B681B68174A934204D07B681B68E0
:10591800154A93420CD1BB6823F08003BB603B68F7
:105928005B68BA681343BB607B681B68BA689A6097
:105938007B68012283F83D207B68002283F83C20A5
:10594800002318461437BD465DF8047B704700BF36
:10595800000001400004004000080040000C004026
:1059680000040140004001400018004080B485B0A8
:1059780000AF786039600023FB607B6893F83C30A7
:10598800012B01D102233DE07B68012283F83C20F2
:10599800FB6823F0FF023B68DB681343FB60FB688E
:1059A80023F440723B689B681343FB60FB6823F455
:1059B80080623B685B681343FB60FB6823F400620A
:1059C8003B681B681343FB60FB6823F480523B6809
:1059D8001B691343FB60FB6823F400523B685B6957
:1059E8001343FB60FB6823F480423B68DB69134385
:1059F800FB607B681B68FA685A647B68002283F83E
:105A08003C20002318461437BD465DF8047B7047D8
:105A180070B50D4D0D4C641BA4100026A64209D18B
:105A28000B4D0C4C00F020F8641BA4100026A64275
:105A380005D170BD55F8043B98470136EEE755F897
:105A4800043B98470136F2E7BC5A0008BC5A0008E4
:105A5800BC5A0008C05A000802440346934200D1C9
:105A6800704703F8011BF9E7F8B500BFF8BC08BC9C
:105A78009E467047F8B500BFF8BC08BC9E46704704
:105A88000204000054010020580100206001002099
:105A9800880100200000000000000000010203044B
:0C5AA8000607080900061016000610167C
:085AB40044A7FF7F0100000080
:045ABC00AD01000830
:045AC0008901000850
:105AC4009A01640A00000000000000009A01640BBF
