:020000040800F2
:1000000000000220211C0008AD1A0008BB1A0008DD
:10001000C11A0008C71A0008CD1A00080000000025
:10002000000000000000000000000000D31A0008DB
:10003000E11A000800000000EF1A0008FD1A00088D
:10004000711C0008711C0008711C0008711C00085C
:10005000711C0008711C0008711C0008711C00084C
:10006000711C0008711C0008711C0008711C00083C
:10007000711C0008711C0008711C0008711C00082C
:10008000711C0008711C0008711C0008711C00081C
:10009000711C0008711C0008711C0008711C00080C
:1000A000711C0008711C0008711C0008711C0008FC
:1000B000711C0008711C0008711C0008711C0008EC
:1000C000711C0008711C0008711C0008711C0008DC
:1000D000711C0008711C0008711C0008711C0008CC
:1000E000711C0008711C0008711C0008711C0008BC
:1000F000711C0008711C0008711C0008711C0008AC
:10010000711C0008711C0008711C0008711C00089B
:10011000711C0008711C0008711C0008711C00088B
:10012000711C0008711C00080D1B0008711C0008E0
:10013000E11B00080000000000000000711C000826
:10014000711C0008711C0008711C0008711C00085B
:10015000711C0008711C0008711C0008711C00084B
:10016000711C0008711C0008711C0008711C00083B
:10017000711C0008711C0008000000000000000055
:08018000711C0008711C00084D
:1001880010B5054C237833B9044B13B10448AFF3C9
:1001980000800123237010BD98000020000000009B
:1001A800BC4C000808B5034B1BB103490348AFF327
:1001B800008008BD000000009C000020BC4C000826
:1001C80053B94AB9002908BF00281CBF4FF0FF31B6
:1001D8004FF0FF3000F074B9ADF1080C6DE904CEB2
:1001E80000F006F8DDF804E0DDE9022304B070470A
:1001F8002DE9F047089D04468E46002B4DD18A42D2
:10020800944669D9B2FA82F252B101FA02F3C2F104
:10021800200120FA01F10CFA02FC41EA030E944095
:100228004FEA1C48210CBEFBF8F61FFA8CF708FBB6
:1002380016E341EA034306FB07F199420AD91CEB8E
:10024800030306F1FF3080F01F81994240F21C81C0
:10025800023E63445B1AA4B2B3FBF8F008FB103308
:1002680044EA034400FB07F7A7420AD91CEB04043D
:1002780000F1FF3380F00A81A74240F2078164440D
:10028800023840EA0640E41B00261DB1D440002392
:10029800C5E900433146BDE8F0878B4209D9002DF6
:1002A80000F0EF800026C5E9000130463146BDE880
:1002B800F087B3FA83F6002E4AD18B4202D38242EA
:1002C80000F2F980841A61EB030301209E46002D99
:1002D800E0D0C5E9004EDDE702B9FFDEB2FA82F2EE
:1002E800002A40F09280A1EB0C014FEA1C471FFA4C
:1002F8008CFE0126200CB1FBF7F307FB131140EA33
:1003080001410EFB03F0884208D91CEB010103F1FF
:10031800FF3802D2884200F2CB804346091AA4B2C1
:10032800B1FBF7F007FB101144EA01440EFB00FE95
:10033800A64508D91CEB040400F1FF3102D2A645FA
:1003480000F2BB800846A4EB0E0440EA03409CE799
:10035800C6F12007B34022FA07FC4CEA030C20FA46
:1003680007F401FA06F31C43F9404FEA1C4900FA66
:1003780006F3B1FBF9F8200C1FFA8CFE09FB1811E3
:1003880040EA014108FB0EF0884202FA06F20BD956
:100398001CEB010108F1FF3A80F08880884240F2A6
:1003A8008580A8F102086144091AA4B2B1FBF9F0EA
:1003B80009FB101144EA014100FB0EFE8E4508D9E5
:1003C8001CEB010100F1FF346CD28E456AD902386A
:1003D800614440EA0840A0FB0294A1EB0E01A1424F
:1003E800C846A64656D353D05DB1B3EB080261EBBD
:1003F8000E0101FA07F722FA06F3F1401F43C5E997
:10040800007100263146BDE8F087C2F12003D840CC
:100418000CFA02FC21FA03F3914001434FEA1C470E
:100428001FFA8CFEB3FBF7F007FB10360B0C43EA00
:10043800064300FB0EF69E4204FA02F408D91CEBB0
:10044800030300F1FF382FD29E422DD902386344AE
:100458009B1B89B2B3FBF7F607FB163341EA03414E
:1004680006FB0EF38B4208D91CEB010106F1FF389D
:1004780016D28B4214D9023E6144C91A46EA004694
:1004880038E72E46284605E70646E3E61846F8E626
:100498004B45A9D2B9EB020864EB0C0E0138A3E76F
:1004A8004646EAE7204694E74046D1E7D0467BE750
:1004B800023B614432E7304609E76444023842E7C8
:1004C800704700BF80B485B000AF0346FB710023BE
:1004D800FB60FB79012B04D8FB79054A52F82330DD
:1004E800FB60FB6818461437BD465DF8047B70470F
:1004F800E04C000880B485B000AF03460A46FB71A3
:100508001346BB710023FB60FB79012B0DD8FB79E7
:10051800094AD35CBA799A4207D8FB79074A52F854
:100528002320BB791B011344FB60FB681846143772
:10053800BD465DF8047B7047D44C0008E04C0008C9
:1005480080B586B000AFF8600B467A60FB72002376
:10055800FB75FB7A012B2FD87B68DAB2FB7A1A4934
:10056800CB5C9A4228D8FB7A184A52F823307A682A
:100578001946F86801F030FC0346002B19D1002316
:100588003B6111E0FB7A114A52F823103B695A008B
:10059800FB7A0F4850F823003B691B0103440A44C7
:1005A8001A603B6901333B613A697B689A42E9D337
:1005B80004E00423FB7501E00323FB75FB7D18466B
:1005C8001837BD4680BD00BFD44C0008D84C000881
:1005D800E04C000880B582B000AF0023FB71002119
:1005E8000120FFF787FF03463F4A136001210120DE
:1005F800FFF780FF03463C4A536002210120FFF7C2
:1006080079FF0346394A136003210120FFF772FF7F
:100618000346364A5360344B1B68002B5CD0324B80
:100628001B681B68002B57D02F4B5B68002B53D0DF
:100638002D4B5B681B68002B4ED02C4B1B68002B86
:100648004AD02A4B1B681B68002B45D0274B5B6898
:10065800002B41D0254B5B681B68002B3CD0012246
:100668004FF40071224802F09FFE01224FF480618E
:10067800204802F099FE01224FF400711D4802F053
:1006880093FE00211C4803F005FC0346002B01D013
:100698000423FB710C21184803F0FCFB0346002BD4
:1006A80001D00423FB71FB79002B17D1124B1B6877
:1006B80000225A63104B1B6800221A640E4B1B68F9
:1006C80034330E4A13600C4B1B6840330B4A53609B
:1006D8000B4B00221A7201E00223FB71FB791846CA
:1006E8000837BD4680BD00BF18000020300000203C
:1006F8000008024000000240F4020020200100200F
:100708004000002080B582B000AF0023FB7101F0EB
:1007180013FB0346642B4DD9294B5B689B889AB21F
:10072800274B9B899A4205D9254B5B689B889AB2CF
:10073800234B9A81224B5B689B889AB2204B5B893A
:100748009A4205D21E4B5B689B889AB21C4B5A8111
:1007580001F0F2FA034640F24C4293422AD90223AE
:10076800FB71174B9B891A46154B5B89D31A002BD3
:10077800B8BF5B42092B1AD8114B9B891A46104BFC
:100788005B8913445B089AB20D4B1A810C4B1B8989
:10079800C3F537730133002BB8BF5B42092B02D86E
:1007A8000123FB7106E0064B05221A7502E0044B93
:1007B80005221A75FB7918460837BD4680BD00BF6B
:1007C8001800002080B400AF1A4B1B68B3F5FA7FFD
:1007D8000ED2194B5B681B68002B04D1164B1B68A3
:1007E80040F6C4121A60144B5B6800221A600DE0D0
:1007F800114B1B681B68002B04D10F4B5B6840F63C
:10080800C4121A600C4B1B6800221A60094B1B6843
:100818000133084A1360074B1B68B3F57A7F02D986
:10082800044B00221A6001231846BD465DF8047B7C
:10083800704700BF280100202001002080B500AFCC
:100848000F4B02221A720F4B1B6800221A600D4BC5
:100858005B6800221A6000224FF400710A4802F017
:10086800A3FD00224FF48061084802F09DFD00229C
:100878004FF40071054802F097FD00BF80BD00BF2E
:100888004000002020010020000802400000024033
:1008980080B500AF1F4B1B7A002B02D0012B07D06D
:1008A80033E0FFF72FFF03461A461A4B1A722FE060
:1008B800194B1869184B1B689B8899B2164B5B68D3
:1008C8009B889AB2154B00F02FF8154BD868144B3B
:1008D8001B689B8899B2124B5B689B889AB2114B34
:1008E80000F022F80E4B1B7A002B0AD10A4B1B7D15
:1008F800002B06D1FFF766FF03461A46054B1A720E
:1009080006E0044B02221A7202E0FFF797FF00BFCD
:1009180000BF80BD40000020180000202C000020EF
:10092800300000203800002080B485B000AFF860A7
:100938007B600B467B8113463B81FB681B8819460D
:100948007A893B891344CB1A002BB8BF5B429AB211
:10095800FB68DA80FB68DA88FB681B899A4203D94E
:10096800FB68DA88FB681A81FB68DA88FB685B88B1
:100978009A420AD2FB689B7A002B10D0FB689B7ABC
:10098800013BDAB2FB689A7209E07B681B78002B9E
:1009980005D1FB689B7A0133DAB2FB689A72FB686F
:1009A8009B7A002B03D17B6800221A7009E0FB6850
:1009B8009A7AFB681B799A4203D9FB685A797B6853
:1009C8001A7000BF1437BD465DF8047B70470000FD
:1009D80080B584B000AF7860104A7B681360104817
:1009E80000F020F80023FB600EE00C4B1968FA6851
:1009F80013469B0013449B000B440833184600F031
:100A080011F8FB680133FB60FB68022BEDD900F09D
:100A180037F900BF1037BD4680BD00BF4801002030
:100A28003C01002080B483B000AF78607B6800226E
:100A38001A607B6800229A607B684FF0FF325A6028
:100A480000BF0C37BD465DF8047B704780B483B0A7
:100A580000AF00237B600BE00B4A7B6852F8233021
:100A68005A1C09497B6841F823207B6801337B6065
:100A78007B68022BF0D9054B01221A7000BF0C3796
:100A8800BD465DF8047B70472C010020380100202A
:100A980080B500AF00F002F8FCE7000080B500AFB9
:100AA800054B1B78DBB2002B04D000F007F8024B93
:100AB80000221A7000BF80BD3801002090B583B0B5
:100AC80000AF264800F082F800237B6035E0244A16
:100AD8007B6852F82310234B18687A6813469B00EA
:100AE80013449B0003445B68994223D31E4800F0DB
:100AF80081F81C4B19687A6813469B0013449B00C5
:100B08000B441B689847174B19687A6813469B0073
:100B180013449B000B4403F10804134800F07CF8CD
:100B280003461946204600F023F80D4A7B68002149
:100B380042F823107B6801337B607B68022BC6D99F
:100B4800064800F069F838603968084800F010F87D
:100B580000F096F800BF0C37BD4690BD4C01002050
:100B68002C01002048010020540100203C010020F5
:100B780080B483B000AF786039607B689B683A685E
:100B88009A4202D97B683A689A607B685B683A68DF
:100B98009A4202D27B683A685A607B683A681A605F
:100BA80000BF0C37BD465DF8047B704780B483B046
:100BB80000AF7860044A7B68136000BF0C37BD46FD
:100BC8005DF8047B704700BF5C01002080B483B0EF
:100BD80000AF7860064B1B681B6800225A627B686E
:100BE80000221A6000BF0C37BD465DF8047B7047D1
:100BF8005C01002080B483B000AF7860054B1B68AF
:100C08001B685A6A7B681A6000BF0C37BD465DF8DE
:100C1800047B70475C01002080B485B000AF786029
:100C28000023FB600D4B1B681B685A6A7B685A607F
:100C38007B685A687B681B689A4205D97B685A6842
:100C48007B681B68D31A00E00023FB60FB6818462A
:100C58001437BD465DF8047B704700BF5C01002077
:100C680080B483B000AF7860044A7B68136000BF2B
:100C78000C37BD465DF8047B704700BF600100205B
:100C880080B400AF054B1B681B684AF6AA221A609D
:100C980000BFBD465DF8047B704700BF60010020BF
:100CA80080B500AFFFF7F4FD00BF80BD80B400AF92
:100CB80000BFBD465DF8047B704780B400AF00BF3D
:100CC800BD465DF8047B704780B500AF00F0CEFFED
:100CD80000F070F800F072FB00F0B4F900F000FAD0
:100CE80000F044FB00F0DEFA00F0D0F800F02EF936
:100CF80000F086FA00F0DAF9284B1B7803F01003AD
:100D0800DBB2002B48D1022200212548FFF718FC4E
:100D18000346002B04D0214A137843F001031370D3
:100D2800042201211F48FFF70BFC0346002B04D0C7
:100D38001A4A137843F00103137000F08FFE03463C
:100D4800002B04D0154A137843F002031370FFF701
:100D580041FC0346002B04D0104A137843F00403E7
:100D680013701148FFF77CFF104802F0DBFF0346C1
:100D7800002B04D0094A137843F0080313700B487A
:100D8800FFF714FF054BD3E90023134304D10848A8
:100D9800FFF71EFEFFF77CFEFEE700BF680100209C
:100DA80070010020B8010020E80200203C03002068
:100DB8004C00002080B594B000AF07F1200330222A
:100DC8000021184603F06EFF07F10C0300221A6099
:100DD8005A609A60DA601A610023BB60294B1B6C69
:100DE800284A43F080531364264B1B6C03F080534E
:100DF800BB60BB6800237B60234B1B68224A43F41B
:100E080080431360204B1B6803F480437B607B683E
:100E180009233B624FF480337B6201237B63022307
:100E2800BB634FF48003FB6310233B644FF4A87348
:100E38007B640223BB640723FB6407F12003184685
:100E480002F00EFB0346002B01D000F051FB0F23EC
:100E5800FB6002233B6100237B614FF4A053BB611D
:100E68004FF4A053FB6107F10C030521184602F06B
:100E78006FFD0346002B01D000F03AFB00BF50374E
:100E8800BD4680BD003802400070004080B584B087
:100E980000AF3B4600221A605A609A60DA60284B1D
:100EA800284A1A60264B4FF440325A60244B0022DD
:100EB8009A60234B01221A61214B01221A76204B9A
:100EC800002283F820201E4B0022DA621C4B1E4AA7
:100ED8009A621B4B0022DA60194B0222DA61184B26
:100EE800012283F83020164B01225A61144800F081
:100EF8002FFF0346002B01D000F0FAFA01233B60D4
:100F080001237B600723BB603B4619460C4801F070
:100F180091F80346002B01D000F0EAFA03233B6066
:100F280002237B603B461946054801F083F80346D7
:100F3800002B01D000F0DCFA00BF1037BD4680BDA1
:100F480070010020002001400100000F80B584B02E
:100F580000AF3B4600221A605A609A60DA60364B4E
:100F6800364A1A60344B4FF440325A60324B0022F2
:100F78009A60314B01221A612F4B01221A762E4BAF
:100F8800002283F820202C4B0022DA622A4B2C4ABC
:100F98009A62294B0022DA60274B0422DA61264B39
:100FA800012283F83020244B01225A61224800F0A4
:100FB800CFFE0346002B01D000F09AFA05233B60D0
:100FC80001237B600623BB603B4619461A4801F0A3
:100FD80031F80346002B01D000F08AFA07233B6062
:100FE80002237B603B461946134801F023F8034669
:100FF800002B01D000F07CFA09233B6003237B60BF
:101008003B4619460C4801F015F80346002B01D061
:1010180000F06EFA0F233B6004237B603B461946C1
:10102800054801F007F80346002B01D000F060FAEC
:1010380000BF1037BD4680BDB80100200021014027
:101048000100000F80B500AF164B174A1A60154B08
:1010580010225A60134B00229A60124B0022DA6069
:10106800104B00221A610F4B00225A610D4B0022CF
:101078001A760C4B00225A760A4B00229A76094BB4
:101088000022DA76074B00221A77064B00225A779D
:10109800044801F06FFA0346002B01D000F028FA4B
:1010A80000BF80BDC00200200064004080B500AFD2
:1010B800094B0A4A1A60084B01225A60064B07225C
:1010C8009A60054802F089F90346002B01D000F028
:1010D8000FFA00BF80BD00BFE802002000300040CA
:1010E80080B592B000AF07F1400300221A605A6041
:1010F80007F1240300221A605A609A60DA601A61C4
:101108005A619A613B1D20220021184603F0CAFD4E
:10111800394B3A4A1A60384B00225A60364B002243
:101128009A60354B40F61F52DA60334B00221A6141
:10113800314B00225A61304B00229A612E4802F04E
:1011480059FE0346002B01D000F0D2F900233B647E
:1011580000237B6407F140031946274803F0B0FCDD
:101168000346002B01D000F0C3F960237B62002303
:10117800BB620023FB6200233B6300237B630023E5
:10118800BB630023FB6307F12403002219461A48B6
:1011980003F034F80346002B01D000F0A9F907F159
:1011A80024030C221946144803F028F80346002BA0
:1011B80001D000F09DF900237B600023BB60002371
:1011C800FB6000233B6100237B614FF40053BB614C
:1011D80000233B623B1D1946074803F0EDFC03461C
:1011E800002B01D000F084F9034800F095FB00BF04
:1011F8004837BD4680BD00BFF40200200000014012
:1012080080B586B000AF07F1100300221A605A605B
:101218003B4600221A605A609A60DA60204B4FF011
:1012280080421A601E4B00225A601D4B00229A60B1
:101238001B4BA722DA601A4B00221A61184B0022B6
:101248009A61174802F0EEFE0346002B01D000F029
:101258004FF900233B6100237B6107F11003194616
:101268000F4803F02DFC0346002B01D000F040F995
:1012780000233B6001237B600023BB600023FB60ED
:101288003B4604221946064802F01BFF0346002B82
:1012980001D000F02DF900BF1837BD4680BD00BF52
:1012A8003C03002080B58AB000AF07F1200300227C
:1012B8001A605A603B1D00221A605A609A60DA6010
:1012C8001A615A619A61274B274A1A60254B0022F6
:1012D8005A60244B00229A60224B4FF6FF72DA6064
:1012E800204B00221A611F4B00229A611D4802F010
:1012F80081FD0346002B01D000F0FAF800233B6281
:1013080000237B6207F120031946164803F0D8FB37
:101318000346002B01D000F0EBF860237B6000232C
:10132800BB600023FB6000237B613B1D0022194644
:101338000C4802F063FF0346002B01D000F0D8F8F8
:101348003B1D08221946074802F058FF0346002BA8
:1013580001D000F0CDF8034800F0DEFA00BF2837CE
:10136800BD4680BD840300200004004080B582B0E3
:1013780000AF00237B60104B1B6B0F4A43F48003C4
:1013880013630D4B1B6B03F480037B607B680022A7
:1013980000213A2001F0C5FA3A2001F0DEFA0022D5
:1013A80000213C2001F0BDFA3C2001F0D6FA00BF34
:1013B8000837BD4680BD00BF0038024080B58AB0FE
:1013C80000AF07F1140300221A605A609A60DA60CD
:1013D8001A6100233B61424B1B6B414A43F0800377
:1013E80013633F4B1B6B03F080033B613B69002396
:1013F800FB603B4B1B6B3A4A43F004031363384BC7
:101408001B6B03F00403FB60FB680023BB60344BD9
:101418001B6B334A43F001031363314B1B6B03F01F
:101428000103BB60BB6800237B602D4B1B6B2C4A00
:1014380043F0020313632A4B1B6B03F002037B6028
:101448007B68002240F20461264801F0ADFF0022CB
:101458004FF48041244801F0A7FF00224FF40071A7
:10146800224801F0A1FF06237B610023BB61002312
:10147800FB6107F1140319461C4801F0F9FD40F21D
:1014880004637B610123BB610023FB6100233B6292
:1014980007F114031946134801F0EAFD4FF480439D
:1014A8007B610123BB610023FB6100233B6207F1E1
:1014B800140319460C4801F0DBFD4FF400737B61FF
:1014C8000123BB610023FB6100233B6207F1140386
:1014D8001946064801F0CCFD00BF2837BD4680BD3F
:1014E80000380240000002400004024000080240A8
:1014F80080B400AF044A137843F01003137000BFA0
:10150800BD465DF8047B70476801002080B483B055
:1015180000AF00237B60104B5B6C0F4A43F48043A1
:1015280053640D4B5B6C03F480437B607B68002342
:101538003B60094B1B6C084A43F080531364064B0D
:101548001B6C03F080533B603B6800BF0C37BD4603
:101558005DF8047B704700BF0038024080B58EB04C
:1015680000AF786007F1240300221A605A609A607D
:10157800DA601A617B681B687A4A934259D1002362
:101588003B62794B5B6C784A43F480735364764BC7
:101598005B6C03F480733B623B6A0023FB61724B14
:1015A8001B6B714A43F0010313636F4B1B6B03F012
:1015B8000103FB61FB690A237B620323BB620023EF
:1015C800FB6207F124031946684801F051FD684B96
:1015D800684A1A60664B00225A60654B00229A607E
:1015E800634B0022DA60624B4FF480621A61604BF1
:1015F8004FF400625A615E4B4FF400529A615C4BA3
:101608004FF48072DA615A4B4FF440321A62584BE9
:1016180000225A62564801F0BBF90346002B01D05C
:10162800FFF766FF7B68524A9A63514A7B68936367
:1016380093E07B681B68504A934240F08E800023F9
:10164800BB61494B5B6C484A43F400735364464B97
:101658005B6C03F40073BB61BB6900237B61424B85
:101668001B6B414A43F0010313633F4B1B6B03F0B1
:1016780001037B617B6900233B613B4B1B6B3A4A4F
:1016880043F004031363384B1B6B03F004033B6103
:101698003B690023FB60344B1B6B334A43F0020366
:1016A8001363314B1B6B03F00203FB60FB68A02341
:1016B8007B620323BB620023FB6207F12403194604
:1016C8002A4801F0D5FC20237B620323BB62002358
:1016D800FB6207F124031946284801F0C9FC0223DC
:1016E8007B620323BB620023FB6207F124031946D4
:1016F800234801F0BDFC234B234A1A60214B4FF0CD
:1017080000725A601F4B00229A601E4B0022DA605A
:101718001C4B4FF480621A611A4B4FF400625A61F5
:10172800184B4FF400529A61164B4FF48072DA61ED
:10173800144B4FF400321A62124B00225A621148BD
:1017480001F026F90346002B01D0FFF7D1FE7B6894
:101758000C4A9A630B4A7B68936300BF3837BD46CF
:1017680080BD00BF00200140003802400000024058
:10177800000200207064024000210140000802407D
:1017880000040240600200204064024080B58AB034
:1017980000AF786007F1140300221A605A609A605B
:1017A800DA601A617B681B68194A93422CD10023BE
:1017B8003B61184B1B6C174A43F000731364154BBD
:1017C8001B6C03F000733B613B690023FB60114B0A
:1017D8001B6B104A43F0020313630E4B1B6B03F0A1
:1017E8000203FB60FB684FF440737B610223BB611B
:1017F8000023FB6103233B6209237B6207F1140387
:101808001946054801F034FC00BF2837BD4680BDA5
:1018180000640040003802400004024080B485B0F3
:1018280000AF78607B681B68154A93420ED100238D
:10183800FB60144B5B6C134A43F001035364114B78
:101848005B6C03F00103FB60FB6812E07B681B68BC
:101858000D4A93420DD10023BB600A4B1B6C094A09
:1018680043F002031364074B1B6C03F00203BB60D5
:10187800BB6800BF1437BD465DF8047B704700BFE6
:1018880000000140003802400004004080B58AB0E2
:1018980000AF786007F1140300221A605A609A605A
:1018A800DA601A617B681B68B3F1804F2BD1002383
:1018B8003B61174B1B6C164A43F001031364144B2E
:1018C8001B6C03F001033B613B690023FB60104B79
:1018D8001B6B0F4A43F0020313630D4B1B6B03F0A2
:1018E8000203FB60FB6808237B610223BB610023C2
:1018F800FB6100233B6201237B6207F11403194655
:10190800044801F0B5FB00BF2837BD4680BD00BFC5
:10191800003802400004024080B58AB000AF786009
:1019280007F1140300221A605A609A60DA601A619B
:101938007B681B68254A93421FD100233B61244BD7
:101948001B6B234A43F001031363214B1B6B03F00A
:1019580001033B613B694FF410637B610223BB6168
:101968000023FB6100233B6201237B6207F1140320
:101978001946184801F07CFB23E07B681B68164A6F
:1019880093421ED10023FB60114B1B6B104A43F09E
:10199800040313630E4B1B6B03F00403FB60FB682B
:1019A8004FF4A0737B610223BB610023FB6100231A
:1019B8003B6202237B6207F114031946074801F0D2
:1019C80057FB00BF2837BD4680BD00BF000001405F
:1019D80000380240000002400004004000080240B5
:1019E80080B485B000AF786039600023FB810023A4
:1019F800BB810323BB8119E0BB8903F10043013B91
:101A08005B007A681A44BB895B0079680B441288CA
:101A180092B21A80BB895B007A6813441B889AB219
:101A2800FB891344FB81BB89013BBB81BB89002B2C
:101A3800E2D13B681B889AB27B681A803B681B8896
:101A48009AB2FB891344FB81FB899B08FB81FB89C4
:101A580018461437BD465DF8047B704780B582B0E0
:101A680000AF0023FB710020FEF72CFD03460B4A54
:101A780013600120FEF726FD0346094A1360074B51
:101A88001B68002B03D0064B1B68002B01D10223D7
:101A9800FB71FB7918460837BD4680BDCC03002092
:101AA800D003002080B400AF00BFBD465DF8047BC2
:101AB800704780B400AFFEE780B400AFFEE780B4A3
:101AC80000AFFEE780B400AFFEE780B400AF00BF10
:101AD800BD465DF8047B704780B400AF00BFBD46CB
:101AE8005DF8047B704780B400AF00BFBD465DF869
:101AF800047B704780B500AF00F00AF9FEF7A6FF37
:101B080000BF80BD98B500AF304801F047F8304BB2
:101B18001B689A1D2E4B1B681B682D490C681946BB
:101B28001046FFF75DFF0346A380294B1B6810335F
:101B38009A1D274B1B6810331968254B1B6803F146
:101B480010041046FFF74CFF0346A380204B1B6888
:101B580020339A1D1E4B1B68203319681C4B1B68C9
:101B680003F120041046FFF73BFF0346A380184B00
:101B78001B6830339A1D164B1B6830331968144B99
:101B88001B6803F130041046FFF72AFF0346A380C1
:101B98000F4B1B689B889AB20E4B1A800C4B1B6824
:101BA80010339B889AB20B4B5A80094B1B68203321
:101BB8009B889AB2074B9A80054B1B6830339B88E9
:101BC8009AB2044BDA8000BF98BD00BF60020020C3
:101BD800D0030020D403002080B500AF024800F0F5
:101BE800DDFF00BF80BD00BF0002002080B400AF51
:101BF800084BD3F88830074A43F47003C2F888309A
:101C0800044B4FF000629A6000BFBD465DF8047B4C
:101C1800704700BF00ED00E0DFF834D0002103E09A
:101C28000C4B5B58435004310B480C4B42189A42FA
:101C3800F6D30B4A02E0002342F8043B094B9A42D0
:101C4800F9D3FFF7D3FF03F009F8FFF73DF8704722
:101C580000000220104D0008000000209400002021
:101C680098000020E0030020FEE7000080B500AFE8
:101C78000E4B1B680D4A43F4007313600B4B1B6833
:101C88000A4A43F480631360084B1B68074A43F40D
:101C980080731360032000F039FE002000F008F87C
:101CA800FFF734FC0023184680BD00BF003C02400B
:101CB80080B582B000AF7860124B1A68124B1B785F
:101CC80019464FF47A73B3FBF1F3B2FBF3F31846FA
:101CD80000F051FE0346002B01D001230EE07B6883
:101CE8000F2B0AD8002279684FF0FF3000F019FE58
:101CF800064A7B681360002300E001231846083772
:101D0800BD4680BD88000020900000208C00002087
:101D180080B400AF064B1B781A46064B1B68134469
:101D2800044A136000BFBD465DF8047B704700BFDE
:101D380090000020DC03002080B400AF034B1B6838
:101D48001846BD465DF8047B704700BFDC030020E1
:101D580080B584B000AF78600023FB737B68002BEC
:101D680001D1012333E07B681B6C002B09D1786813
:101D7800FFF7F4FB7B6800225A647B68002283F833
:101D88003C207B681B6C03F01003002B18D17B6888
:101D98001B6C23F4885323F0020343F002027B6890
:101DA8001A64786800F068FA7B6800225A647B68D5
:101DB8001B6C23F0030343F001027B681A6401E003
:101DC8000123FB737B68002283F83C20FB7B1846C9
:101DD8001037BD4680BD000080B586B000AFF86002
:101DE800B9607A6000233B61FB6893F83C30012BB3
:101DF80001D10223E9E0FB68012283F83C20FB685B
:101E08001B689B6803F00103012B18D0FB681B6853
:101E18009A68FB681B6842F001029A606D4B1B6868
:101E28006D4AA2FB03239A0C13465B0013443B61E3
:101E380002E03B69013B3B613B69002BF9D1FB6840
:101E48001B689B6803F48073B3F5807F07D1FB6838
:101E58001B689A68FB681B6822F480729A60FB68AA
:101E68001B689B6803F00103012B40F0A180FB680D
:101E78001B6C23F4E06323F0010343F48072FB68D6
:101E88001A64FB681B685B6803F48063002B07D047
:101E9800FB681B6C23F4405343F48052FB681A64BC
:101EA800FB681B6C03F48053B3F5805F06D1FB68B5
:101EB8005B6C23F00602FB685A6402E0FB680022B0
:101EC8005A64FB68002283F83C20444B7B61FB6822
:101ED8009B6B434ADA63FB689B6B424A1A64FB6854
:101EE8009B6B414ADA64FB681B686FF022021A6038
:101EF800FB681B685A68FB681B6842F080625A607E
:101F0800FB681B689A68FB681B6842F480729A60D9
:101F1800FB68986BFB681B684C331946BA687B688A
:101F280000F0E4FD7B695B6803F01F03002B2AD1F6
:101F3800FB681B682D4A934215D0FB681B682C4A26
:101F4800934205D1254B5B6803F01F03002B0AD091
:101F5800FB681B68274A934236D1204B5B6803F025
:101F68001003002B30D1FB681B689B6803F04053BB
:101F7800002B29D1FB681B689A68FB681B6842F034
:101F880080429A6020E0FB681B68184A93421BD184
:101F9800FB681B689B6803F04053002B14D1FB6857
:101FA8001B689A68FB681B6842F080429A600BE0E5
:101FB800FB681B6C43F01002FB681A64FB685B6CDF
:101FC80043F00102FB685A64002318461837BD46DF
:101FD80080BD00BF8800002083DE1B430023014032
:101FE80079240008332500084F2500080020014007
:101FF800002101400022014080B483B000AF786026
:1020080000BF0C37BD465DF8047B704780B483B0D1
:1020180000AF786000BF0C37BD465DF8047B7047A1
:1020280080B483B000AF786000BF0C37BD465DF860
:10203800047B704780B485B000AF786039600023B6
:10204800BB607B6893F83C30012B01D1022305E18A
:102058007B68012283F83C203B681B68092B25D943
:102068007B681B68D9683B681B689BB21A46134695
:102078005B0013441E3B072202FA03F3DA437B6832
:102088001B680A40DA607B681B68D9683B689A68F5
:102098003B681B689BB2184603465B0003441E3B23
:1020A8009A407B681B680A43DA6022E07B681B68F9
:1020B80019693B681B689BB21A4613465B001344B8
:1020C800072202FA03F3DA437B681B680A401A61A5
:1020D8007B681B6819693B689A683B681B689BB2F8
:1020E800184603465B0003449A407B681B680A4312
:1020F8001A613B685B68062B24D87B681B68596BA0
:102108003B685A6813469B001344053B1F2202FA9A
:1021180003F3DA437B681B680A405A637B681B68D1
:10212800596B3B681B689BB218463B685A68134654
:102138009B001344053B00FA03F27B681B680A43C3
:102148005A634CE03B685B680C2B24D87B681B689F
:10215800196B3B685A6813469B001344233B1F22A4
:1021680002FA03F3DA437B681B680A401A637B6848
:102178001B68196B3B681B689BB218463B685A681A
:1021880013469B001344233B00FA03F27B681B6849
:102198000A431A6323E07B681B68D96A3B685A685C
:1021A80013469B001344413B1F2202FA03F3DA4310
:1021B8007B681B680A40DA627B681B68D96A3B68DF
:1021C8001B689BB218463B685A6813469B00134429
:1021D800413B00FA03F27B681B680A43DA62224B30
:1021E800FB607B681B68214A934209D13B681B68E6
:1021F800122B05D1FB685B6843F48002FB685A60C8
:102208007B681B68194A934223D13B681B68102BD3
:1022180003D03B681B68112B1BD1FB685B6843F438
:102228000002FB685A603B681B68102B11D1104BE9
:102238001B68104AA2FB03239A0C13469B00134405
:102248005B00BB6002E0BB68013BBB60BB68002B66
:10225800F9D17B68002283F83C2000231846143704
:10226800BD465DF8047B7047002301400020014013
:102278008800002083DE1B4380B485B000AF7860FF
:10228800794BFB60FB685B6823F44032FB685A605B
:10229800FB685A687B685B681A43FB685A607B680E
:1022A8001B685A687B681B6822F480725A607B68D6
:1022B8001B6859687B681B691A027B681B680A439C
:1022C8005A607B681B685A687B681B6822F04072FA
:1022D8005A607B681B6859687B689A687B681B68CA
:1022E8000A435A607B681B689A687B681B6822F4FB
:1022F80000629A607B681B6899687B68DA687B680B
:102308001B680A439A607B689B6A584A934222D0AA
:102318007B681B689A687B681B6822F070629A6009
:102328007B681B6899687B689A6A7B681B680A43A4
:102338009A607B681B689A687B681B6822F0405229
:102348009A607B681B6899687B68DA6A7B681B6897
:102358000A439A600FE07B681B689A687B681B6871
:1023680022F070629A607B681B689A687B681B68B9
:1023780022F040529A607B681B689A687B681B68E9
:1023880022F002029A607B681B6899687B681B7E52
:102398005A007B681B680A439A607B6893F8203070
:1023A800002B1BD07B681B685A687B681B6842F44B
:1023B80000625A607B681B685A687B681B6822F455
:1023C80060425A607B681B6859687B685B6A013B9E
:1023D8005A037B681B680A435A6007E07B681B68DE
:1023E8005A687B681B6822F400625A607B681B6825
:1023F800DA6A7B681B6822F47002DA627B681B6801
:10240800D96A7B68DB69013B1A057B681B680A434C
:10241800DA627B681B689A687B681B6822F4007222
:102428009A607B681B6899687B6893F830305A0219
:102438007B681B680A439A607B681B689A687B689C
:102448001B6822F480629A607B681B6899687B68C5
:102458005B699A027B681B680A439A6000BF14375D
:10246800BD465DF8047B7047002301400100000F62
:1024780080B584B000AF78607B689B6BFB60FB68BD
:102488001B6C03F05003002B3CD1FB681B6C43F41E
:102498000072FB681A64FB681B689B6803F0405372
:1024A800002B2BD1FB681B7E002B27D1FB681B68F8
:1024B800DB6A03F47003002B06D0FB681B689B687B
:1024C80003F48063002B19D1FB681B685A68FB680A
:1024D8001B6822F020025A60FB681B6C23F4807290
:1024E800FB681A64FB681B6C03F48053002B05D14E
:1024F800FB681B6C43F00102FB681A64F868FFF77D
:102508007BFD0EE0FB681B6C03F01003002B03D06F
:10251800F868FFF785FD04E0FB689B6BDB6C786867
:10252800984700BF1037BD4680BD80B584B000AF66
:1025380078607B689B6BFB60F868FFF767FD00BFFE
:102548001037BD4680BD80B584B000AF78607B6829
:102558009B6BFB60FB6840221A64FB685B6C43F072
:102568000402FB685A64F868FFF75AFD00BF103789
:10257800BD4680BD80B584B000AF78607B68002B15
:1025880001D10123EDE07B6893F82030DBB2002B0A
:1025980002D17868FFF7FAF87B681B681A687B68CD
:1025A8001B6842F001021A60FFF7C6FBF86012E0F0
:1025B800FFF7C2FB0246FB68D31A0A2B0BD97B68CC
:1025C8005B6A43F400327B685A627B68052283F8B1
:1025D80020200123C5E07B681B685B6803F00103CA
:1025E800002BE5D07B681B681A687B681B6822F0A3
:1025F80002021A60FFF7A0FBF86012E0FFF79CFBED
:102608000246FB68D31A0A2B0BD97B685B6A43F432
:1026180000327B685A627B68052283F820200123F8
:102628009FE07B681B685B6803F00203002BE5D121
:102638007B681B7E012B08D17B681B681A687B6846
:102648001B6842F080021A6007E07B681B681A6802
:102658007B681B6822F080021A607B685B7E012B16
:1026680008D17B681B681A687B681B6842F04002C7
:102678001A6007E07B681B681A687B681B6822F091
:1026880040021A607B689B7E012B08D17B681B681F
:102698001A687B681B6842F020021A6007E07B68B2
:1026A8001B681A687B681B6822F020021A607B6826
:1026B800DB7E012B08D17B681B681A687B681B6866
:1026C80022F010021A6007E07B681B681A687B68B2
:1026D8001B6842F010021A607B681B7F012B08D12F
:1026E8007B681B681A687B681B6842F008021A60DE
:1026F80007E07B681B681A687B681B6822F0080281
:102708001A607B685B7F012B08D17B681B681A689D
:102718007B681B6842F004021A6007E07B681B684C
:102728001A687B681B6822F004021A607B689A6842
:102738007B68DB681A437B681B691A437B685B69A3
:1027480042EA03017B685B685A1E7B681B680A4380
:10275800DA617B6800225A627B68012283F82020B4
:10276800002318461037BD4680BD000080B485B0F0
:1027780000AF78607B6803F00703FB600C4BDB68F5
:10278800BB60BA684FF6FF031340BB60FB681A02D0
:10279800BB68134343F0BF6343F40033BB60044A90
:1027A800BB68D36000BF1437BD465DF8047B704733
:1027B80000ED00E080B400AF044BDB681B0A03F0B7
:1027C80007031846BD465DF8047B704700ED00E03E
:1027D80080B483B000AF0346FB7197F90730002B34
:1027E8000BDBFB7903F01F02074997F907305B09F8
:1027F800012000FA02F241F8232000BF0C37BD4641
:102808005DF8047B704700BF00E100E080B483B04E
:1028180000AF03463960FB7197F90730002B0ADBDC
:102828003B68DAB20C4997F907301201D2B20B446F
:1028380083F800230AE03B68DAB20849FB7903F021
:102848000F03043B1201D2B20B441A7600BF0C37B7
:10285800BD465DF8047B704700E100E000ED00E054
:1028680080B489B000AFF860B9607A60FB6803F0A3
:102878000703FB61FB69C3F10703042B28BF04238B
:10288800BB61FB690433062B02D9FB69033B00E0FB
:1028980000237B614FF0FF32BB6902FA03F3DA438E
:1028A800BB681A407B699A404FF0FF317B6901FA97
:1028B80003F3D9437B680B40134318462437BD46BE
:1028C8005DF8047B7047000080B582B000AF786087
:1028D8007B68013BB3F1807F01D301230FE00A4AF3
:1028E8007B68013B53600F214FF0FF30FFF78EFFED
:1028F800054B00229A60044B07221A6000231846F1
:102908000837BD4680BD00BF10E000E080B582B04A
:1029180000AF78607868FFF729FF00BF0837BD4629
:1029280080BD80B586B000AF0346B9607A60FB739E
:1029380000237B61FFF73EFF78617A68B9687869A0
:10294800FFF78EFF024697F90F3011461846FFF73A
:102958005DFF00BF1837BD4680BD80B582B000AFAF
:102968000346FB7197F907301846FFF731FF00BFA0
:102978000837BD4680BD80B582B000AF7860786802
:10298800FFF7A2FF034618460837BD4680BD000082
:1029980080B586B000AF786000237B61FFF7CCF983
:1029A80038617B68002B01D1012399E07B68022202
:1029B80083F835207B68002283F834207B681B6805
:1029C8001A687B681B6822F001021A600FE0FFF7A3
:1029D800B3F902463B69D31A052B08D97B68202234
:1029E8005A657B68032283F83520032378E07B68E7
:1029F8001B681B6803F00103002BE8D17B681B6888
:102A08001B687B617A69384B13407B617B685A6825
:102A18007B689B681A437B68DB681A437B681B6981
:102A28001A437B685B691A437B689B691A437B6816
:102A3800DB691A437B681B6A13437A6913437B611A
:102A48007B685B6A042B07D17B68DA6A7B681B6B3F
:102A580013437A6913437B617B681B687A691A6040
:102A68007B681B685B697B617B6923F007037B617B
:102A78007B685B6A7A6913437B617B685B6A042BBA
:102A880017D17B689B6A7A6913437B617B68DB6A31
:102A9800002B0ED0786800F06FFA0346002B08D0A0
:102AA8007B6840225A657B68012283F83520012320
:102AB80016E07B681B687A695A61786800F026FA24
:102AC8000346FB607B68DB6D3F229A40FB689A6097
:102AD8007B6800225A657B68012283F83520002331
:102AE80018461837BD4680BD3F8010F080B586B0C7
:102AF80000AFF860B9607A603B600023FB75FB6843
:102B08009B6D3B61FB6893F83430012B01D10223A4
:102B180040E0FB68012283F83420FB6893F83530E5
:102B2800DBB2012B2FD1FB68022283F83520FB682A
:102B380000225A653B687A68B968F86800F0B8F905
:102B4800FB68DB6D3F229A403B699A60FB681B6813
:102B58001A68FB681B6842F016021A60FB681B6C57
:102B6800002B07D0FB681B681A68FB681B6842F0DB
:102B780008021A60FB681B681A68FB681B6842F049
:102B880001021A6005E0FB68002283F83420022362
:102B9800FB75FB7D18461837BD4680BD80B586B0ED
:102BA80000AF78600023BB608E4B1B688E4AA2FB87
:102BB80003239B0A7B617B689B6D3B613B691B68B8
:102BC800FB607B68DB6D08229A40FB681340002B92
:102BD8001AD07B681B681B6803F00403002B13D012
:102BE8007B681B681A687B681B6822F004021A60FD
:102BF8007B68DB6D08229A403B699A607B685B6D55
:102C080043F001027B685A657B68DB6D01229A40BC
:102C1800FB681340002B12D07B681B685B6903F0CC
:102C28008003002B0BD07B68DB6D01229A403B6947
:102C38009A607B685B6D43F002027B685A657B682B
:102C4800DB6D04229A40FB681340002B12D07B688E
:102C58001B681B6803F00203002B0BD07B68DB6D3D
:102C680004229A403B699A607B685B6D43F00402DA
:102C78007B685A657B68DB6D10229A40FB681340BD
:102C8800002B43D07B681B681B6803F00803002BEC
:102C98003CD07B68DB6D10229A403B699A607B6868
:102CA8001B681B6803F48023002B18D07B681B6803
:102CB8001B6803F40023002B08D17B681B6C002BD6
:102CC80024D07B681B6C786898471FE07B689B6CF6
:102CD800002B1BD07B689B6C7868984716E07B6854
:102CE8001B681B6803F48073002B07D17B681B6883
:102CF8001A687B681B6822F008021A607B681B6CE4
:102D0800002B03D07B681B6C786898477B68DB6D69
:102D180020229A40FB681340002B00F08F807B68CC
:102D28001B681B6803F01003002B00F087807B688A
:102D3800DB6D20229A403B699A607B6893F83530B6
:102D4800DBB2052B36D17B681B681A687B681B6869
:102D580022F016021A607B681B685A697B681B6838
:102D680022F080025A617B681B6C002B03D17B68C0
:102D78009B6C002B07D07B681B681A687B681B68F4
:102D880022F008021A607B68DB6D3F229A403B699B
:102D98009A607B68012283F835207B68002283F8DB
:102DA80034207B681B6D002B7ED07B681B6D786898
:102DB800984779E07B681B681B6803F48023002B25
:102DC8001DD07B681B681B6803F40023002B0DD102
:102DD8007B685B6C002B31D07B685B6C78689847AC
:102DE8002CE000BF88000020B5814E1B7B68DB6BA0
:102DF800002B23D07B68DB6B786898471EE07B68E4
:102E08001B681B6803F48073002B0FD17B681B6859
:102E18001A687B681B6822F010021A607B6801221E
:102E280083F835207B68002283F834207B68DB6BCD
:102E3800002B03D07B68DB6B786898477B685B6DF9
:102E4800002B32D07B685B6D03F00103002B22D08E
:102E58007B68052283F835207B681B681A687B68C5
:102E68001B6822F001021A60BB680133BB607A69F3
:102E78009A4207D37B681B681B6803F00103002B89
:102E8800F2D100E000BF7B68012283F835207B681F
:102E9800002283F834207B68DB6C002B05D07B682C
:102EA800DB6C7868984700E000BF1837BD4680BDE6
:102EB80080B485B000AFF860B9607A603B60FB68A9
:102EC8001B681A68FB681B6822F480221A60FB687A
:102ED8001B683A685A60FB689B68402B08D1FB68FE
:102EE8001B687A689A60FB681B68BA68DA6007E052
:102EF800FB681B68BA689A60FB681B687A68DA60C6
:102F080000BF1437BD465DF8047B704780B485B0B8
:102F180000AF78607B681B68DBB2103B144AA2FBE9
:102F280003231B09FB60134AFB6813441B781A46EA
:102F38007B68DA65FB68032B09D97B681B6823F477
:102F48007F7323F003031A1D7B689A6507E07B688B
:102F58001B6823F47F7323F003037A6893657B6807
:102F68009B6D18461437BD465DF8047B704700BF5B
:102F7800ABAAAAAAF84C000880B485B000AF786064
:102F88000023FB737B689B6ABB607B689B69002B93
:102F98001FD1BB68032B56D801A252F823F000BFFB
:102FA800B92F0008CB2F0008B92F00084F300008B0
:102FB8007B68DB6A03F08073002B46D00123FB7328
:102FC80043E07B68DB6AB3F1C07F40D10123FB7328
:102FD8003DE07B689B69B3F5005F21D1BB68032B9B
:102FE80037D801A252F823F0013000080730000852
:102FF80001300008193000080123FB7330E07B68BA
:10300800DB6A03F08073002B25D00123FB7322E0D9
:103018007B68DB6AB3F1C07F1FD10123FB731CE01F
:10302800BB68022B03D9BB68032B03D018E001232C
:10303800FB7315E07B68DB6A03F08073002B0ED00E
:103048000123FB730BE000BF0AE000BF08E000BFEC
:1030580006E000BF04E000BF02E000BF00E000BFE0
:10306800FB7B18461437BD465DF8047B704700BFEC
:1030780080B489B000AF7860396000237B61002399
:103088003B610023BB610023FB616BE10122FB690B
:1030980002FA03F37B613B681B687A6913403B6162
:1030A8003A697B699A4240F05A813B685B6803F051
:1030B8000303012B05D03B685B6803F00303022B75
:1030C80030D17B689B68BB61FB695B00032202FA15
:1030D80003F3DB43BA691340BB613B68DA68FB69F9
:1030E8005B0002FA03F3BA691343BB617B68BA69F0
:1030F8009A607B685B68BB610122FB6902FA03F393
:10310800DB43BA691340BB613B685B681B0903F08A
:103118000102FB6902FA03F3BA691343BB617B68D6
:10312800BA695A603B685B6803F00303032B17D046
:103138007B68DB68BB61FB695B00032202FA03F36F
:10314800DB43BA691340BB613B689A68FB695B0063
:1031580002FA03F3BA691343BB617B68BA69DA60A0
:103168003B685B6803F00303022B23D1FB69DA0891
:103178007B68083253F82230BB61FB6903F0070310
:103188009B000F2202FA03F3DB43BA691340BB61C9
:103198003B681A69FB6903F007039B0002FA03F313
:1031A800BA691343BB61FB69DA087B680832B969FD
:1031B80043F822107B681B68BB61FB695B00032234
:1031C80002FA03F3DB43BA691340BB613B685B68EF
:1031D80003F00302FB695B0002FA03F3BA691343C5
:1031E800BB617B68BA691A603B685B6803F440336B
:1031F800002B00F0B4800023FB60604B5B6C5F4ADF
:1032080043F4804353645D4B5B6C03F48043FB6081
:10321800FB685B4AFB699B08023352F82330BB61A9
:10322800FB6903F003039B000F2202FA03F3DB435D
:10323800BA691340BB617B68524A93422BD07B68C2
:10324800514A934225D07B68504A93421FD07B68ED
:103258004F4A934219D07B684E4A934213D07B68F9
:103268004D4A93420DD07B684C4A934207D07B6805
:103278004B4A934201D107230EE008230CE00623B2
:103288000AE0052308E0042306E0032304E0022300
:1032980002E0012300E00023FA6902F00302920031
:1032A8009340BA691343BB613549FB699B080233F4
:1032B800BA6941F823203B4B9B68BB613B69DB4300
:1032C800BA691340BB613B685B6803F48013002B49
:1032D80003D0BA693B691343BB61324ABB69936047
:1032E800304BDB68BB613B69DB43BA691340BB61A8
:1032F8003B685B6803F40013002B03D0BA693B6991
:103308001343BB61274ABB69D360264B5B68BB612B
:103318003B69DB43BA691340BB613B685B6803F4F4
:103328000033002B03D0BA693B691343BB611D4AC4
:10333800BB6953601B4B1B68BB613B69DB43BA69C4
:103348001340BB613B685B6803F48033002B03D0F8
:10335800BA693B691343BB61124ABB691360FB69D5
:103368000133FB61FB690F2B7FF690AE00BF00BFF6
:103378002437BD465DF8047B704700BF0038024023
:1033880000380140000002400004024000080240EA
:10339800000C0240001002400014024000180240D5
:1033A800001C0240003C014080B483B000AF78604C
:1033B8000B467B8013467B707B78002B03D07A8882
:1033C8007B689A6103E07B881A047B689A6100BF76
:1033D8000C37BD465DF8047B704780B584B000AFFC
:1033E80078607B68002B01D1012334E07B681B687F
:1033F8004CF6CC421A607B681B6845F255521A603D
:103408007B681B687A6852685A607B681B687A68B0
:1034180092689A60FEF790FCF8600FE0FEF78CFC6B
:103428000246FB68D31A312B08D97B681B68DB6816
:1034380003F00303002B01D003230CE07B681B6817
:10344800DB6803F00303002BE8D17B681B684AF6AE
:10345800AA221A60002318461037BD4680BD000016
:1034680080B586B000AF78607B68002B01D101235E
:1034780067E27B681B6803F00103002B75D0884B5B
:103488009B6803F00C03042B0CD0854B9B6803F05E
:103498000C03082B12D1824B5B6803F48003B3F54D
:1034A800800F0BD17E4B1B6803F40033002B5BD0DD
:1034B8007B685B68002B57D1012342E27B685B681D
:1034C800B3F5803F06D1764B1B68754A43F48033C9
:1034D80013601DE07B685B68B3F5A02F0CD1704BBF
:1034E8001B686F4A43F4802313606D4B1B686C4A5A
:1034F80043F4803313600BE0694B1B68684A23F47C
:1035080080331360664B1B68654A23F4802313607D
:103518007B685B68002B13D0FEF70EFC386108E06F
:10352800FEF70AFC02463B69D31A642B01D9032330
:1035380007E25B4B1B6803F40033002BF0D014E068
:10354800FEF7FAFB386108E0FEF7F6FB02463B6936
:10355800D31A642B01D90323F3E1514B1B6803F4FD
:103568000033002BF0D100E000BF7B681B6803F03C
:103578000203002B63D04A4B9B6803F00C03002B1B
:103588000BD0474B9B6803F00C03082B1CD1444B12
:103598005B6803F48003002B16D1414B1B6803F0D2
:1035A8000203002B05D07B68DB68012B01D00123C7
:1035B800C7E13B4B1B6823F0F8027B681B69DB0003
:1035C800374913430B603AE07B68DB68002B20D057
:1035D800344B01221A60FEF7AFFB386108E0FEF7B2
:1035E800ABFB02463B69D31A022B01D90323A8E19E
:1035F8002B4B1B6803F00203002BF0D0284B1B68F1
:1036080023F0F8027B681B69DB00254913430B6034
:1036180015E0244B00221A60FEF78EFB386108E0A3
:10362800FEF78AFB02463B69D31A022B01D9032312
:1036380087E11B4B1B6803F00203002BF0D17B686A
:103648001B6803F00803002B36D07B685B69002BEE
:1036580016D0154B01221A60FEF76EFB386108E0A0
:10366800FEF76AFB02463B69D31A022B01D90323F2
:1036780067E10B4B5B6F03F00203002BF0D01BE0FC
:10368800094B00221A60FEF757FB38610EE0FEF77F
:1036980053FB02463B69D31A022B07D9032350E197
:1036A8000038024000004742800E4742884B5B6F5B
:1036B80003F00203002BEAD17B681B6803F00403C4
:1036C800002B00F097800023FB75814B1B6C03F0E7
:1036D8008053002B0FD10023BB607D4B1B6C7C4AB1
:1036E80043F0805313647A4B1B6C03F08053BB6028
:1036F800BB680123FB75774B1B6803F48073002BB1
:1037080018D1744B1B68734A43F480731360FEF737
:1037180013FB386108E0FEF70FFB02463B69D31A3A
:10372800022B01D903230CE16A4B1B6803F4807355
:10373800002BF0D07B689B68012B06D1644B1B6F74
:10374800634A43F0010313671CE07B689B68052B01
:103758000CD15F4B1B6F5E4A43F0040313675C4B4D
:103768001B6F5B4A43F0010313670BE0584B1B6F59
:10377800574A23F001031367554B1B6F544A23F034
:10378800040313677B689B68002B15D0FEF7D4FAF7
:1037980038610AE0FEF7D0FA02463B69D31A41F2D3
:1037A8008832934201D90323CBE0494B1B6F03F0C6
:1037B8000203002BEED014E0FEF7BEFA38610AE0EF
:1037C800FEF7BAFA02463B69D31A41F288329342AD
:1037D80001D90323B5E03E4B1B6F03F00203002B16
:1037E800EED1FB7D012B05D1394B1B6C384A23F0F8
:1037F800805313647B689B69002B00F0A180344BD5
:103808009B6803F00C03082B5CD07B689B69022B38
:1038180041D1314B00221A60FEF78EFA386108E078
:10382800FEF78AFA02463B69D31A022B01D9032311
:1038380087E0274B1B6803F00073002BF0D17B68EF
:10384800DA697B681B6A1A437B685B6A9B011A43C7
:103858007B689B6A5B08013B1B041A437B68DB6A35
:103868001B061B4913434B601B4B01221A60FEF7D2
:1038780063FA386108E0FEF75FFA02463B69D31A3B
:10388800022B01D903235CE0114B1B6803F0007382
:10389800002BF0D054E0104B00221A60FEF74CFACF
:1038A800386108E0FEF748FA02463B69D31A022B52
:1038B80001D9032345E0064B1B6803F00073002B76
:1038C800F0D13DE07B689B69012B07D1012338E0EB
:1038D8000038024000700040600047421B4B5B68A4
:1038E800FB607B689B69012B28D0FB6803F480028E
:1038F8007B68DB699A4221D1FB6803F03F027B6851
:103908001B6A9A421AD1FA6847F6C07313407A685C
:10391800526A9201934211D1FB6803F440327B68EA
:103928009B6A5B08013B1B049A4207D1FB6803F0C2
:1039380070627B68DB6A1B069A4201D0012300E0B3
:10394800002318461837BD4680BD00BF0038024026
:1039580080B584B000AF786039607B68002B01D1F6
:103968000123CCE0684B1B6803F007033A689A42CE
:103978000CD9654B3A68D2B21A70634B1B6803F0D6
:1039880007033A689A4201D00123B8E07B681B68B4
:1039980003F00203002B20D07B681B6803F00403AC
:1039A800002B05D0594B9B68584A43F4E053936069
:1039B8007B681B6803F00803002B05D0534B9B68FA
:1039C800524A43F460439360504B9B6823F0F002E3
:1039D8007B689B684D4913438B607B681B6803F0C9
:1039E8000103002B44D07B685B68012B07D1474B50
:1039F8001B6803F40033002B19D101237FE07B6897
:103A08005B68022B03D07B685B68032B07D13F4BB5
:103A18001B6803F00073002B09D101236FE03B4BB7
:103A28001B6803F00203002B01D1012367E0374B29
:103A38009B6823F003027B685B68344913438B60FF
:103A4800FEF77AF9F8600AE0FEF776F90246FB68B5
:103A5800D31A41F28832934201D903234FE02B4B0A
:103A68009B6803F00C027B685B689B009A42EBD171
:103A7800254B1B6803F007033A689A420CD2224B85
:103A88003A68D2B21A70204B1B6803F007033A68F1
:103A98009A4201D0012332E07B681B6803F00403DB
:103AA800002B08D0194B9B6823F4E0527B68DB6835
:103AB800164913438B607B681B6803F00803002BCF
:103AC80009D0124B9B6823F460427B681B69DB00BA
:103AD8000E4913438B6000F021F802460B4B9B689C
:103AE8001B0903F00F030A49CB5C22FA03F3094AC6
:103AF8001360094B1B681846FEF7DAF800231846CE
:103B08001037BD4680BD00BF003C0240003802406F
:103B1800E84C0008880000208C0000202DE9B04FF8
:103B280094B000AF00237B640023FB6400233B6454
:103B38000023BB64794B9B6803F00C03082B0DD062
:103B4800082B00F2E180002B02D0042B03D0DBE02D
:103B5800734BBB64DBE0724BBB64D8E06F4B5B68B4
:103B680003F03F037B646D4B5B6803F48003002B19
:103B780063D06A4B5B689B090022BB63FA63BB6B2B
:103B8800C3F308033B6300237B63D7E90C45224654
:103B98002B464FF000004FF00001590141EAD26175
:103BA800500102460B462146511A3961294663EBFA
:103BB80001037B614FF000024FF00003D7E904AB2B
:103BC80059468B01514643EA916351468A01514651
:103BD800B2EB0108594663EB01094FF000024FF0C0
:103BE80000034FEAC90343EA58734FEAC8029046F4
:103BF8009946234618EB0303BB602B4649EB0303A6
:103C0800FB604FF000024FF00003D7E90245294658
:103C18008B02214643EA915321468A0210461946EF
:103C28007B6C0022BB62FA62D7E90A23FCF7C8FA68
:103C380002460B461346FB6458E0384B5B689B0909
:103C4800002218461146C0F308033B6200237B623A
:103C5800D7E9088942464B464FF000004FF0000173
:103C6800590141EAD261500102460B464146B2EB86
:103C7800010A494663EB010B4FF000024FF00003C5
:103C88004FEA8B1343EA9A634FEA8A12B2EB0A04AB
:103C980063EB0B054FF000024FF00003EB0043EA23
:103CA8005473E20014461D464346E3183B604B46F6
:103CB80045EB03037B604FF000024FF00003D7E9A8
:103CC800004529468B02214643EA915321468A0240
:103CD800104619467B6C0022BB61FA61D7E90623BE
:103CE800FCF76EFA02460B461346FB640B4B5B6807
:103CF8001B0C03F0030301335B003B64FA6C3B6C61
:103D0800B2FBF3F3BB6402E0054BBB6400BFBB6CC2
:103D180018465037BD46BDE8B08F00BF0038024096
:103D28000024F40080B485B000AF78607B6893F815
:103D38003D30DBB2012B01D0012346E07B68022233
:103D480083F83D207B681B68234A934222D07B6816
:103D58001B68B3F1804F1DD07B681B681F4A9342D4
:103D680018D07B681B681E4A934213D07B681B6877
:103D78001C4A93420ED07B681B681B4A934209D0A9
:103D88007B681B68194A934204D07B681B68184AF1
:103D9800934211D17B681B689B6803F00703FB60A3
:103DA800FB68062B10D07B681B681A687B681B6849
:103DB80042F001021A6007E07B681B681A687B689A
:103DC8001B6842F001021A60002318461437BD46EA
:103DD8005DF8047B704700BF00000140000400400C
:103DE80000080040000C0040000401400040014071
:103DF8000018004080B582B000AF78607B68002B67
:103E080001D1012341E07B6893F83D30DBB2002B00
:103E180006D17B68002283F83C207868FDF7FEFC19
:103E28007B68022283F83D207B681A687B6804332C
:103E38001946104600F0A4FA7B68012283F8462050
:103E48007B68012283F83E207B68012283F83F20AB
:103E58007B68012283F840207B68012283F8412097
:103E68007B68012283F842207B68012283F8432083
:103E78007B68012283F844207B68012283F845206F
:103E88007B68012283F83D20002318460837BD4689
:103E980080BD000080B584B000AF786039603B68B1
:103EA800002B09D17B6893F83E30DBB2012B14BF9D
:103EB80001230023DBB222E03B68042B09D17B6895
:103EC80093F83F30DBB2012B14BF01230023DBB290
:103ED80015E03B68082B09D17B6893F84030DBB2CA
:103EE800012B14BF01230023DBB208E07B6893F8A1
:103EF8004130DBB2012B14BF01230023DBB2002BBE
:103F080001D001237CE03B68002B04D17B680222AE
:103F180083F83E2013E03B68042B04D17B6802221F
:103F280083F83F200BE03B68082B04D17B68022212
:103F380083F8402003E07B68022283F841207B68F5
:103F48001B6801223968184600F094FD7B681B68DD
:103F58002D4A934204D07B681B682C4A934201D1B6
:103F6800012300E00023002B07D07B681B685A6CF4
:103F78007B681B6842F400425A647B681B68224ACB
:103F8800934222D07B681B68B3F1804F1DD07B68B9
:103F98001B681F4A934218D07B681B681D4A9342CE
:103FA80013D07B681B681C4A93420ED07B681B6841
:103FB800164A934209D07B681B68184A934204D07A
:103FC8007B681B68164A934211D17B681B689B6803
:103FD80003F00703FB60FB68062B10D07B681B68A7
:103FE8001A687B681B6842F001021A6007E07B6868
:103FF8001B681A687B681B6842F001021A6000237C
:1040080018461037BD4680BD00000140000401403D
:104018000004004000080040000C0040004001403F
:104028000018004080B582B000AF78607B68002B34
:1040380001D1012341E07B6893F83D30DBB2002BCE
:1040480006D17B68002283F83C207868FDF71EFCC7
:104058007B68022283F83D207B681A687B680433FA
:104068001946104600F08CF97B68012283F8462037
:104078007B68012283F83E207B68012283F83F2079
:104088007B68012283F840207B68012283F8412065
:104098007B68012283F842207B68012283F8432051
:1040A8007B68012283F844207B68012283F845203D
:1040B8007B68012283F83D20002318460837BD4657
:1040C80080BD80B586B000AFF860B9607A60002323
:1040D800FB75FB6893F83C30012B01D1022388E083
:1040E800FB68012283F83C207B68002B1BD1FB680E
:1040F8001868BB681968BB685A68BB68DB6800F059
:104108008FFBFB681B689A69FB681B6822F00C022E
:104118009A61FB681B689969BB689A68FB681B68A9
:104128000A439A6160E07B68042B1CD1FB6818681D
:10413800BB681968BB685A68BB68DB6800F0E4FBB9
:10414800FB681B689A69FB681B6822F440629A61E5
:10415800FB681B689969BB689B681A02FB681B6847
:104168000A439A6140E07B68082B1BD1FB681868FA
:10417800BB681968BB685A68BB68DB6800F001FC5B
:10418800FB681B68DA69FB681B6822F00C02DA61BD
:10419800FB681B68D969BB689A68FB681B680A4397
:1041A800DA6121E07B680C2B1CD1FB681868BB68BE
:1041B8001968BB685A68BB68DB6800F01EFCFB68BE
:1041C8001B68DA69FB681B6822F44062DA61FB68E5
:1041D8001B68D969BB689B681A02FB681B680A439D
:1041E800DA6101E00123FB75FB68002283F83C20BB
:1041F800FB7D18461837BD4680BD000080B586B0E7
:1042080000AFF860B9607A600023FB75FB6893F82B
:104218003C30012B01D10223AEE0FB68012283F878
:104228003C207B680C2B00F29F8001A252F823F0FF
:104238006D4200087143000871430008714300088B
:10424800AD4200087143000871430008714300083B
:10425800EF420008714300087143000871430008E9
:104268002F430008FB681B68B968184600F028F956
:10427800FB681B689A69FB681B6842F008029A6130
:10428800FB681B689A69FB681B6822F004029A6144
:10429800FB681B689969BB681A69FB681B680A4355
:1042A8009A6164E0FB681B68B968184600F078F901
:1042B800FB681B689A69FB681B6842F400629A6194
:1042C800FB681B689A69FB681B6822F480629A6124
:1042D800FB681B689969BB681B691A02FB681B6845
:1042E8000A439A6143E0FB681B68B968184600F006
:1042F800CDF9FB681B68DA69FB681B6842F00802A5
:10430800DA61FB681B68DA69FB681B6822F0040243
:10431800DA61FB681B68D969BB681A69FB681B68A6
:104328000A43DA6123E0FB681B68B968184600F0A5
:1043380021FAFB681B68DA69FB681B6842F40062B3
:10434800DA61FB681B68DA69FB681B6822F4806223
:10435800DA61FB681B68D969BB681B691A02FB68CC
:104368001B680A43DA6102E00123FB7500BFFB68A2
:10437800002283F83C20FB7D18461837BD4680BDD7
:1043880080B485B000AF786039607B681B68FB60DB
:104398007B68404A934213D07B68B3F1804F0FD0BB
:1043A8007B683D4A93420BD07B683C4A934207D0D6
:1043B8007B683B4A934203D07B683A4A934208D1D0
:1043C800FB6823F07003FB603B685B68FA68134383
:1043D800FB607B682F4A93422BD07B68B3F1804FF8
:1043E80027D07B682C4A934223D07B682B4A934280
:1043F8001FD07B682A4A93421BD07B68294A934284
:1044080017D07B68284A934213D07B68274A934287
:104418000FD07B68264A93420BD07B68254A93428B
:1044280007D07B68244A934203D07B68234A93428F
:1044380008D1FB6823F44073FB603B68DB68FA68CB
:104448001343FB60FB6823F080023B685B691343FE
:10445800FB607B68FA681A603B689A687B68DA6276
:104468003B681A687B689A627B680A4A934203D061
:104478007B680C4A934203D13B681A697B681A63CC
:104488007B6801225A6100BF1437BD465DF8047B82
:10449800704700BF000001400004004000080040D1
:1044A800000C00400004014000400140004401406D
:1044B8000048014000180040001C00400020004057
:1044C80080B487B000AF786039607B681B6A23F0DE
:1044D80001027B681A627B681B6A7B617B685B6888
:1044E8003B617B689B69FB60FB6823F07003FB60A2
:1044F800FB6823F00303FB603B681B68FA681343FF
:10450800FB607B6923F002037B613B689B687A69E7
:1045180013437B617B68204A934203D07B681F4A20
:1045280093420CD17B6923F008037B613B68DB680D
:104538007A6913437B617B6923F004037B617B68A1
:10454800154A934203D07B68144A934211D13B69C0
:1045580023F480733B613B6923F400733B613B6840
:104568005B693A6913433B613B689B693A6913434A
:104578003B617B683A695A607B68FA689A613B6874
:104588005A687B685A637B687A691A6200BF1C376D
:10459800BD465DF8047B70470000014000040140FF
:1045A80080B487B000AF786039607B681B6A23F0FD
:1045B80010027B681A627B681B6A7B617B685B6898
:1045C8003B617B689B69FB60FB6823F4E043FB600D
:1045D800FB6823F44073FB603B681B681B02FA68A6
:1045E8001343FB607B6923F020037B613B689B6876
:1045F8001B017A6913437B617B68224A934203D08B
:104608007B68214A93420DD17B6923F080037B614B
:104618003B68DB681B017A6913437B617B6923F084
:1046280040037B617B68174A934203D07B68164A34
:10463800934213D13B6923F480633B613B6923F4C4
:1046480000633B613B685B699B003A6913433B61CC
:104658003B689B699B003A6913433B617B683A69F5
:104668005A607B68FA689A613B685A687B689A6303
:104678007B687A691A6200BF1C37BD465DF8047B07
:10468800704700BF000001400004014080B487B0BB
:1046980000AF786039607B681B6A23F480727B689E
:1046A8001A627B681B6A7B617B685B683B617B681D
:1046B800DB69FB60FB6823F07003FB60FB6823F099
:1046C8000303FB603B681B68FA681343FB607B6964
:1046D80023F400737B613B689B681B027A69134370
:1046E8007B617B68214A934203D07B68204A9342CE
:1046F8000DD17B6923F400637B613B68DB681B0297
:104708007A6913437B617B6923F480637B617B68EF
:10471800164A934203D07B68154A934213D13B69EA
:1047280023F480533B613B6923F400533B613B68AE
:104738005B691B013A6913433B613B689B691B0139
:104748003A6913433B617B683A695A607B68FA6847
:10475800DA613B685A687B68DA637B687A691A624F
:1047680000BF1C37BD465DF8047B70470000014060
:104778000004014080B487B000AF786039607B687E
:104788001B6A23F480527B681A627B681B6A3B6150
:104798007B685B687B617B68DB69FB60FB6823F493
:1047A800E043FB60FB6823F44073FB603B681B68D5
:1047B8001B02FA681343FB603B6923F400533B6117
:1047C8003B689B681B033A6913433B617B68124A49
:1047D800934203D07B68114A934209D17B6923F441
:1047E80080437B613B685B699B017A6913437B610A
:1047F8007B687A695A607B68FA68DA613B685A684C
:104808007B681A647B683A691A6200BF1C37BD4628
:104818005DF8047B704700BF0000014000040140C0
:1048280080B487B000AFF860B9607A603B60FB681D
:104838001B6A23F00102FB681A62FB689B697B61B3
:10484800FB681B6A3B61FB68284A93421BD0FB68E4
:10485800B3F1804F17D0FB68254A934213D0FB6809
:10486800244A93420FD0FB68234A93420BD0FB683B
:10487800224A934207D0FB68214A934203D0FB683F
:10488800204A934201D1012300E00023002B08D0E5
:104898007B6923F003037B617A697B6813437B613F
:1048A80003E07B6943F001037B617B6923F0F0033C
:1048B8007B613B681B01DBB27A6913437B613B690F
:1048C80023F00A033B61BB6803F00A033A69134308
:1048D8003B61FB687A699A61FB683A691A6200BFB2
:1048E8001C37BD465DF8047B704700BF00000140DF
:1048F8000004004000080040000C00400004014093
:10490800004001400018004080B487B000AFF86054
:10491800B9607A603B60FB681B6A23F01002FB6891
:104928001A62FB689B697B61FB681B6A3B617B6958
:1049380023F440737B617B681B027A6913437B61B4
:104948007B6923F470437B613B681B039BB27A69E4
:1049580013437B613B6923F0A0033B61BB681B01E8
:1049680003F0A0033A6913433B61FB687A699A61D3
:10497800FB683A691A6200BF1C37BD465DF8047BC4
:10498800704780B487B000AFF860B9607A603B6068
:10499800FB681B6A23F48072FB681A62FB68DB6998
:1049A8007B61FB681B6A3B617B6923F003037B61C6
:1049B8007A697B6813437B617B6923F0F0037B6131
:1049C8003B681B01DBB27A6913437B613B6923F4C3
:1049D80020633B61BB681B0203F420633A691343FD
:1049E8003B61FB687A69DA61FB683A691A6200BF61
:1049F8001C37BD465DF8047B704780B487B000AFB4
:104A0800F860B9607A603B60FB681B6A23F48052E7
:104A1800FB681A62FB68DB697B61FB681B6A3B61A8
:104A28007B6923F440737B617B681B027A691343BB
:104A38007B617B6923F470437B613B681B039BB2FA
:104A48007A6913437B613B6923F420433B61BB686C
:104A58001B0303F420433A6913433B61FB687A69FB
:104A6800DA61FB683A691A6200BF1C37BD465DF817
:104A7800047B704780B487B000AFF860B9607A6093
:104A8800BB6803F01F03012202FA03F37B61FB6892
:104A98001A6A7B69DB431A40FB681A62FB681A6A68
:104AA800BB6803F01F03796801FA03F31A43FB6834
:104AB8001A6200BF1C37BD465DF8047B70470000D2
:104AC80080B485B000AF786039607B6893F83C307B
:104AD800012B01D102235AE07B68012283F83C2094
:104AE8007B68022283F83D207B681B685B68FB605B
:104AF8007B681B689B68BB60FB6823F07003FB60E6
:104B08003B681B68FA681343FB607B681B68FA689C
:104B18005A607B681B68214A934222D07B681B68D5
:104B2800B3F1804F1DD07B681B681D4A934218D093
:104B38007B681B681B4A934213D07B681B681A4A20
:104B480093420ED07B681B68184A934209D07B6851
:104B58001B68174A934204D07B681B68154A934226
:104B68000CD1BB6823F08003BB603B685B68BA6804
:104B78001343BB607B681B68BA689A607B68012234
:104B880083F83D207B68002283F83C2000231846E8
:104B98001437BD465DF8047B704700BF0000014034
:104BA8000004004000080040000C004000040140E0
:104BB800004001400018004080B485B000AF786024
:104BC80039600023FB607B6893F83C30012B01D1EE
:104BD80002233DE07B68012283F83C20FB6823F038
:104BE800FF023B68DB681343FB60FB6823F44072F9
:104BF8003B689B681343FB60FB6823F480623B6857
:104C08005B681343FB60FB6823F400623B681B6826
:104C18001343FB60FB6823F480523B681B69134312
:104C2800FB60FB6823F400523B685B691343FB603D
:104C3800FB6823F480423B68DB691343FB607B68B5
:104C48001B68FA685A647B68002283F83C200023BA
:104C580018461437BD465DF8047B704770B50D4D96
:104C68000D4C641BA4100026A64209D10B4D0C4C18
:104C780000F020F8641BA4100026A64205D170BDE0
:104C880055F8043B98470136EEE755F8043B98473A
:104C98000136F2E7084D0008084D0008084D0008E5
:104CA8000C4D000802440346934200D1704703F8B4
:104CB800011BF9E7F8B500BFF8BC08BC9E46704771
:0C4CC800F8B500BFF8BC08BC9E46704761
:104CD40002040000B4000020B8000020C00000203E
:104CE400E0000020000000000000000001020304B6
:0C4CF4000607080900061016000610163E
:084D0000F8B4FF7F0100000080
:044D0800AD010008F1
:044D0C008901000811
:104D10000010C80064070000000000000010C80078
:104D20006408000000000000000000000000000017
:104D30000000FFFF00000000000000200000000055
:104D40000000000000000000000000000C00002037
:104D5000180000203000002002000000A90C00080C
:104D60000100000000000000000000000000000042
:104D7000B50C000804000000000000000000000066
:104D800000000000C30C00086400000000000000E8
:104D900000000000000000000024F40010000000EB
:044DA000010000000E
:0400000508001C21B2
:00000001FF
