:020000040800F2
:1000000000000820D1060008590600085F06000815
:10001000650600086B060008710600080000000075
:10002000000000000000000000000000770600084B
:10003000850600080000000093060008A1060008DD
:1000400021070008210700082107000821070008F0
:1000500021070008210700082107000821070008E0
:1000600021070008210700082107000821070008D0
:1000700021070008210700082107000821070008C0
:1000800021070008210700082107000821070008B0
:1000900021070008210700082107000821070008A0
:1000A0002107000821070008210700082107000890
:1000B0002107000821070008210700082107000880
:1000C0002107000821070008210700082107000870
:1000D0002107000821070008210700082107000860
:1000E0002107000821070008210700082107000850
:1000F0002107000821070008210700082107000840
:10010000210700082107000821070008210700082F
:10011000210700082107000821070008210700081F
:10012000210700082107000821070008210700080F
:1001300021070008210700082107000821070008FF
:1001400021070008210700082107000821070008EF
:1001500021070008210700082107000821070008DF
:1001600021070008210700082107000821070008CF
:1001700021070008210700082107000800000000EF
:1001800021070008210700082107000821070008AF
:10019000210700082107000821070008210700089F
:1001A000210700082107000821070008210700088F
:1001B000210700082107000821070008210700087F
:1001C000210700082107000800000000210700089F
:1001D000210700082107000821070008210700085F
:1001E000210700082107000821070008210700084F
:0801F0002107000821070008A7
:1001F80010B5054C237833B9044B13B10448AFF359
:1002080000800123237010BD0C00002000000000B6
:10021800C412000808B5034B1BB103490348AFF3E8
:10022800008008BD0000000010000020C412000873
:1002380053B94AB9002908BF00281CBF4FF0FF3145
:100248004FF0FF3000F074B9ADF1080C6DE904CE41
:1002580000F006F8DDF804E0DDE9022304B0704799
:100268002DE9F047089D04468E46002B4DD18A4261
:10027800944669D9B2FA82F252B101FA02F3C2F194
:10028800200120FA01F10CFA02FC41EA030E944025
:100298004FEA1C48210CBEFBF8F61FFA8CF708FB46
:1002A80016E341EA034306FB07F199420AD91CEB1E
:1002B800030306F1FF3080F01F81994240F21C8150
:1002C800023E63445B1AA4B2B3FBF8F008FB103398
:1002D80044EA034400FB07F7A7420AD91CEB0404CD
:1002E80000F1FF3380F00A81A74240F2078164449D
:1002F800023840EA0640E41B00261DB1D440002322
:10030800C5E900433146BDE8F0878B4209D9002D85
:1003180000F0EF800026C5E9000130463146BDE80F
:10032800F087B3FA83F6002E4AD18B4202D3824279
:1003380000F2F980841A61EB030301209E46002D28
:10034800E0D0C5E9004EDDE702B9FFDEB2FA82F27D
:10035800002A40F09280A1EB0C014FEA1C471FFADB
:100368008CFE0126200CB1FBF7F307FB131140EAC2
:1003780001410EFB03F0884208D91CEB010103F18F
:10038800FF3802D2884200F2CB804346091AA4B251
:10039800B1FBF7F007FB101144EA01440EFB00FE25
:1003A800A64508D91CEB040400F1FF3102D2A6458A
:1003B80000F2BB800846A4EB0E0440EA03409CE729
:1003C800C6F12007B34022FA07FC4CEA030C20FAD6
:1003D80007F401FA06F31C43F9404FEA1C4900FAF6
:1003E80006F3B1FBF9F8200C1FFA8CFE09FB181173
:1003F80040EA014108FB0EF0884202FA06F20BD9E6
:100408001CEB010108F1FF3A80F08880884240F235
:100418008580A8F102086144091AA4B2B1FBF9F079
:1004280009FB101144EA014100FB0EFE8E4508D974
:100438001CEB010100F1FF346CD28E456AD90238F9
:10044800614440EA0840A0FB0294A1EB0E01A142DE
:10045800C846A64656D353D05DB1B3EB080261EB4C
:100468000E0101FA07F722FA06F3F1401F43C5E926
:10047800007100263146BDE8F087C2F12003D8405C
:100488000CFA02FC21FA03F3914001434FEA1C479E
:100498001FFA8CFEB3FBF7F007FB10360B0C43EA90
:1004A800064300FB0EF69E4204FA02F408D91CEB40
:1004B800030300F1FF382FD29E422DD9023863443E
:1004C8009B1B89B2B3FBF7F607FB163341EA0341DE
:1004D80006FB0EF38B4208D91CEB010106F1FF382D
:1004E80016D28B4214D9023E6144C91A46EA004624
:1004F80038E72E46284605E70646E3E61846F8E6B6
:100508004B45A9D2B9EB020864EB0C0E0138A3E7FE
:100518004646EAE7204694E74046D1E7D0467BE7DF
:10052800023B614432E7304609E76444023842E757
:10053800704700BF80B500AF00F036FE00F002F84B
:10054800FEE7000080B594B000AF07F11C03342229
:100558000021184600F0AAFE07F1080300221A60DD
:100568005A609A60DA601A61224B1B6C214A43F088
:10057800805313641F4B1B6C03F080537B607B68B4
:100588001D4B1B6823F440431B4A43F4804313600C
:10059800194B1B6803F440433B603B680223FB6133
:1005A8000123BB621023FB6200237B6307F11C035A
:1005B800184600F099F90346002B01D000F01EF808
:1005C8000F23BB600023FB6000233B6100237B619A
:1005D8000023BB6107F108030021184600F032FC34
:1005E8000346002B01D000F009F800BF5037BD4684
:1005F80080BD00BF003802400070004080B400AFEA
:1006080072B600BFFEE7000080B483B000AF0F4BA6
:100618001B6C0E4A43F0805313640C4B1B6C03F0A5
:1006280080537B607B68094B5B6C084A43F48043CA
:100638005364064B5B6C03F480433B603B6800BF2C
:100648000C37BD465DF8047B704700BF0038024098
:1006580080B400AFFEE780B400AFFEE780B400AF1F
:10066800FEE780B400AFFEE780B400AFFEE780B4D9
:1006780000AF00BFBD465DF8047B704780B400AF93
:1006880000BFBD465DF8047B704780B400AF00BF73
:10069800BD465DF8047B704780B500AF00F0C2FD31
:1006A80000BF80BD80B400AF064BD3F88830054A40
:1006B80043F47003C2F8883000BFBD465DF8047B80
:1006C800704700BF00ED00E0DFF834D00D480E4958
:1006D8000E4A002302E0D458C4500433C4188C4294
:1006E800F9D30B4A0B4C002301E013600432A242F9
:1006F800FBD3FFF7D7FF00F0B5FDFFF71BFF7047EF
:1007080000000820000000200C000020FC12000857
:100718000C0000202C000020FEE7000080B485B00B
:1007280000AF78607B6803F00703FB600B4BDB6866
:10073800BB60BA684FF6FF031340BB60FB681A0240
:10074800BB681A43064B1343BB60044ABB68D360BB
:1007580000BF1437BD465DF8047B704700ED00E02C
:100768000000FA0580B400AF044BDB681B0A03F0F5
:1007780007031846BD465DF8047B704700ED00E0AE
:1007880080B483B000AF03463960FB7197F9073036
:10079800002B0ADB3B68DAB20C4997F907301201E3
:1007A800D2B20B4483F800230AE03B68DAB2084966
:1007B800FB7903F00F03043B1201D2B20B441A7603
:1007C80000BF0C37BD465DF8047B704700E100E0D0
:1007D80000ED00E080B489B000AFF860B9607A60DD
:1007E800FB6803F00703FB61FB69C3F10703042BF4
:1007F80028BF0423BB61FB690433062B02D9FB69BC
:10080800033B00E000237B614FF0FF32BB6902FA33
:1008180003F3DA43BB681A407B699A404FF0FF3113
:100828007B6901FA03F3D9437B680B4013431846ED
:100838002437BD465DF8047B7047000080B582B060
:1008480000AF78607B68013BB3F1807F01D301235F
:100858000FE00A4A7B68013B53600F214FF0FF30DD
:10086800FFF78EFF054B00229A60044B07221A609F
:10087800002318460837BD4680BD00BF10E000E0E1
:1008880080B582B000AF78607868FFF747FF00BF97
:100898000837BD4680BD80B586B000AF0346B96055
:1008A8007A60FB7300237B61FFF75CFF78617A68ED
:1008B800B9687869FFF78EFF024697F90F3011463D
:1008C8001846FFF75DFF00BF1837BD4680BD80B5ED
:1008D80082B000AF78607868FFF7B0FF034618462B
:1008E8000837BD4680BD000080B586B000AF78608F
:1008F8000023FB757B68002B01D101239BE27B68F9
:100908001B6803F00103002B00F08780964B9B685F
:1009180003F00C03042B0CD0934B9B6803F00C03DF
:10092800082B12D1904B5B6803F48003B3F5800F5A
:100938000BD18D4B1B6803F40033002B6CD07B6804
:100948005B68002B68D1012375E27B685B68B3F5AF
:10095800803F06D1844B1B68834A43F4803313607D
:100968002EE07B685B68002B0CD17F4B1B687E4AAE
:1009780023F4803313607C4B1B687B4A23F4802369
:1009880013601DE07B685B68B3F5A02F0CD1764B34
:100998001B68754A43F480231360734B1B68724AC3
:1009A80043F4803313600BE06F4B1B686E4A23F4EB
:1009B800803313606C4B1B686B4A23F480231360ED
:1009C8007B685B68002B13D000F040FC386108E0BE
:1009D80000F03CFC02463B69D31A642B01D903237F
:1009E80029E2614B1B6803F40033002BF0D014E0BC
:1009F80000F02CFC386108E000F028FC02463B6956
:100A0800D31A642B01D9032315E2574B1B6803F44F
:100A18000033002BF0D100E000BF7B681B6803F0B7
:100A28000203002B69D0504B9B6803F00C03002B8A
:100A38000BD04D4B9B6803F00C03082B1CD14A4B81
:100A48005B6803F48003002B16D1474B1B6803F047
:100A58000203002B05D07B68DB68012B01D0012342
:100A6800E9E1414B1B6823F0F8027B681B69DB0056
:100A78003D4913430B6040E07B68DB68002B23D0C3
:100A8800394B1B68384A43F00103136000F0DEFB62
:100A9800386108E000F0DAFB02463B69D31A022B02
:100AA80001D90323C7E1304B1B6803F00203002B75
:100AB800F0D02D4B1B6823F0F8027B681B69DB0024
:100AC800294913430B6018E0274B1B68264A23F07B
:100AD8000103136000F0BAFB386108E000F0B6FBD0
:100AE80002463B69D31A022B01D90323A3E11E4B0B
:100AF8001B6803F00203002BF0D17B681B6803F02E
:100B08000803002B38D07B685B69002B19D0164B83
:100B18005B6F154A43F00103536700F097FB386198
:100B280008E000F093FB02463B69D31A022B01D977
:100B3800032380E10C4B5B6F03F00203002BF0D022
:100B48001AE0094B5B6F084A23F00103536700F072
:100B58007DFB38610AE000F079FB02463B69D31A55
:100B6800022B03D9032366E100380240924B5B6FE6
:100B780003F00203002BEED17B681B6803F004032B
:100B8800002B00F0A4808C4B1B6C03F08053002BCF
:100B98000DD1894B1B6C884A43F080531364864BF4
:100BA8001B6C03F08053BB60BB680123FB75834B50
:100BB8001B6803F48073002B18D1804B1B687F4A95
:100BC80043F48073136000F041FB386108E000F0E3
:100BD8003DFB02463B69D31A642B01D903232AE162
:100BE800764B1B6803F48073002BF0D07B689B68FE
:100BF800012B06D1704B1B6F6F4A43F0010313673B
:100C08002DE07B689B68002B0CD16B4B1B6F6A4AED
:100C180023F001031367684B1B6F674A23F0040333
:100C280013671CE07B689B68052B0CD1624B1B6F1C
:100C3800614A43F0040313675F4B1B6F5E4A43F03E
:100C4800010313670BE05C4B1B6F5B4A23F0010346
:100C58001367594B1B6F584A23F0040313677B68CB
:100C68009B68002B15D000F0F1FA38610AE000F01B
:100C7800EDFA02463B69D31A41F28832934201D910
:100C88000323D8E04C4B1B6F03F00203002BEED07C
:100C980014E000F0DBFA38610AE000F0D7FA024607
:100CA8003B69D31A41F28832934201D90323C2E047
:100CB800414B1B6F03F00203002BEED1FB7D012B90
:100CC80005D13D4B1B6C3C4A23F0805313647B6871
:100CD8009B69002B00F0AE80374B9B6803F00C0338
:100CE800082B6DD07B689B69022B4BD1324B1B685C
:100CF800314A23F08073136000F0A8FA386108E0E5
:100D080000F0A4FA02463B69D31A022B01D9032347
:100D180091E0294B1B6803F00073002BF0D17B682E
:100D2800DA697B681B6A1A437B685B6A9B011A4312
:100D38007B689B6A5B08013B1B041A437B68DB6A80
:100D48001B061A437B681B6B1B071B4913434B602D
:100D5800194B1B68184A43F08073136000F076FA49
:100D6800386108E000F072FA02463B69D31A022B98
:100D780001D903235FE0104B1B6803F00073002BBD
:100D8800F0D057E00C4B1B680B4A23F080731360BC
:100D980000F05CFA386108E000F058FA02463B6956
:100DA800D31A022B01D9032345E0034B1B6803F038
:100DB8000073002BF0D13DE0003802400070004085
:100DC8001F4B5B68FB607B689B69012B30D0FB681D
:100DD80003F480027B68DB699A4229D1FB6803F03F
:100DE8003F027B681B6A9A4222D1FA6847F6C073B1
:100DF80013407A68526A9201934219D1FB6803F44E
:100E080040327B689B6A5B08013B1B049A420FD106
:100E1800FB6803F070627B68DB6A1B069A4207D1A5
:100E2800FB6803F0E0427B681B6B1B079A4201D00A
:100E3800012300E0002318461837BD4680BD00BFD7
:100E48000038024080B584B000AF78603960002374
:100E5800FB607B68002B01D10123D0E06A4B1B6843
:100E680003F00F033A689A4210D9674B1B6823F0C6
:100E78000F0265493B6813430B60634B1B6803F023
:100E88000F033A689A4201D00123B8E07B681B68D7
:100E980003F00203002B20D07B681B6803F00403D7
:100EA800002B05D0594B9B68584A43F4E053936094
:100EB8007B681B6803F00803002B05D0534B9B6825
:100EC800524A43F460439360504B9B6823F0F0020E
:100ED8007B689B684D4913438B607B681B6803F0F4
:100EE8000103002B40D07B685B68012B07D1474B7F
:100EF8001B6803F40033002B15D101237FE07B68C6
:100F08005B68022B07D1414B1B6803F00073002B71
:100F180009D1012373E03D4B1B6803F00203002B4A
:100F280001D101236BE0394B9B6823F003027B68F6
:100F38005B68364913438B6000F088F9F8600AE073
:100F480000F084F90246FB68D31A41F288329342D2
:100F580001D9032353E02D4B9B6803F00C027B68F7
:100F68005B689B009A42EBD1274B1B6803F00F0389
:100F78003A689A4210D2244B1B6823F00F02224988
:100F88003B6813430B60204B1B6803F00F033A6860
:100F98009A4201D0012332E07B681B6803F0040306
:100FA800002B08D0194B9B6823F4E0527B68DB6860
:100FB800164913438B607B681B6803F00803002BFA
:100FC80009D0124B9B6823F460427B681B69DB00E5
:100FD8000E4913438B6000F021F802460B4B9B68C7
:100FE8001B0903F00F030A49CB5C22FA03F3094AF1
:100FF8001360094B1B68184600F0E4F800231846F4
:101008001037BD4680BD00BF003C0240003802409A
:10101800DC12000800000020040000202DE9B04F79
:1010280090B000AF00237B630023FB6300233B6386
:101038000023BB63594B9B6803F00C03082B0DD0AE
:10104800082B00F2A180002B02D0042B03D09BE0D8
:10105800534BBB639BE0534BBB6398E04F4B5B68C0
:1010680003F03F037B634D4B5B6803F48003002B65
:1010780028D04A4B5B689B0900223B627A623B6A34
:10108800C3F308000021474B03FB01F2002300FBD8
:1010980003F31344434AA0FB0212FA620A46BA62F7
:1010A800FA6A1344FB627B6B0022BB61FA61D7E9E1
:1010B8000623D7E90A01FFF7BBF802460B46134699
:1010C800FB6353E0354B5B689B0900223B617A6107
:1010D8003B69C3F3080A4FF0000B52465B464FF0DA
:1010E80000004FF00001590141EAD2615001024667
:1010F8000B46B2EB0A0863EB0B094FF000024FF006
:1011080000034FEA891343EA98634FEA8812B2EB67
:10111800080463EB09054FF000024FF00003EB00F1
:1011280043EA5473E20014461D4614EB0A033B607D
:1011380045EB0B037B604FF000024FF00003D7E94B
:10114800004529468B02214643EA915321468A02EB
:10115800104619467B6B0022BB60FA60D7E9022370
:10116800FFF766F802460B461346FB630B4B5B68BA
:101178001B0C03F0030301335B003B63FA6B3B6B0F
:10118800B2FBF3F3BB6302E0054BBB6300BFBB6B71
:1011980018464037BD46BDE8B08F00BF0038024052
:1011A8000024F40040787D0180B500AF0320FFF7EC
:1011B80067FB0F2000F006F8FFF726FA0023184611
:1011C80080BD000080B582B000AF7860124B1A680D
:1011D800124B1B7819464FF47A73B3FBF1F3B2FB49
:1011E800F3F31846FFF773FB0346002B01D00123E6
:1011F8000EE07B680F2B0AD8002279684FF0FF3089
:10120800FFF749FB064A7B681360002300E00123CF
:1012180018460837BD4680BD0000002008000020A1
:101228000400002080B400AF064B1B781A46064B1A
:101238001B681344044A136000BFBD465DF8047B75
:10124800704700BF080000202800002080B400AFCD
:10125800034B1B681846BD465DF8047B704700BF0A
:101268002800002070B50D4D0D4C641BA4100026FD
:10127800A64209D10B4D0C4C00F020F8641BA410B9
:101288000026A64205D170BD55F8043B98470136A3
:10129800EEE755F8043B98470136F2E7F4120008E8
:1012A800F4120008F4120008F81200080244034679
:1012B800934200D1704703F8011BF9E7F8B500BF66
:1012C800F8BC08BC9E467047F8B500BFF8BC08BC1F
:0412D8009E46704777
:1012DC0000000000000000000102030406070809DA
:0812EC007CEFFF7F0100000010
:0412F4001D020008CF
:0412F800F9010008F0
:0C12FC000024F4001000000001000000BD
:04000005080006D118
:00000001FF
