:020000040800F2
:1000000000500020995500081D24000829240008EC
:100010002F240008352400083B24000800000000BD
:100020000000000000000000000000004124000863
:100030004D24000800000000592400086524000831
:10004000E1550008E1550008E1550008E1550008B8
:10005000E1550008E1550008E1550008E1550008A8
:10006000E1550008E1550008E1550008A924000801
:10007000E1550008E1550008E1550008E155000888
:10008000E1550008E1550008E1550008E155000878
:10009000C1240008E1550008E1550008E1550008B9
:1000A000E1550008E1550008E1550008E155000858
:1000B000E1550008E1550008E1550008E155000848
:1000C000E1550008E1550008E1550008E155000838
:1000D000E1550008E1550008E1550008E155000828
:1000E000E1550008E1550008E15500080000000056
:1000F0000000000000000000000000000000000000
:0C01000000000000000000005FF808F1A3
:1001100010B5054C237833B9044B13B10448AFF341
:1001200000800123237010BD7C000020000000002F
:100130005058000808B5034B1BB103490348AFF3FF
:10014000008008BD0000000080000020505800081A
:1001500081F0004102E000BF83F0004330B54FEA78
:1001600041044FEA430594EA050F08BF90EA020FE5
:100170001FBF54EA000C55EA020C7FEA645C7FEA78
:10018000655C00F0E2804FEA5454D4EB5555B8BF9B
:100190006D420CDD2C4480EA020281EA030382EA0C
:1001A000000083EA010180EA020281EA0303362D9E
:1001B00088BF30BD11F0004F4FEA01314FF4801C71
:1001C0004CEA113102D0404261EB410113F0004F83
:1001D0004FEA03334CEA133302D0524263EB43033A
:1001E00094EA050F00F0A780A4F10104D5F1200ED8
:1001F0000DDB02FA0EFC22FA05F2801841F1000133
:1002000003FA0EF2801843FA05F359410EE0A5F106
:1002100020050EF1200E012A03FA0EFC28BF4CF037
:10022000020C43FA05F3C01851EBE37101F00045ED
:1002300007D54FF0000EDCF1000C7EEB00006EEBFA
:100240000101B1F5801F1BD3B1F5001F0CD3490884
:100250005FEA30004FEA3C0C04F101044FEA4452DB
:1002600012F5800F80F09A80BCF1004F08BF5FEA62
:10027000500C50F1000041EB045141EA050130BD42
:100280005FEA4C0C404141EB010111F4801FA4F1E5
:100290000104E9D191F0000F04BF01460020B1FA3A
:1002A00081F308BF2033A3F10B03B3F120020CDA72
:1002B0000C3208DD02F1140CC2F10C0201FA0CF050
:1002C00021FA02F10CE002F11402D8BFC2F1200CB5
:1002D00001FA02F120FA0CFCDCBF41EA0C0190406B
:1002E000E41AA2BF01EB0451294330BD6FEA0404B4
:1002F0001F3C1CDA0C340EDC04F11404C4F120029F
:1003000020FA04F001FA02F340EA030021FA04F3B0
:1003100045EA030130BDC4F10C04C4F1200220FA07
:1003200002F001FA04F340EA0300294630BD21FA45
:1003300004F0294630BD94F0000F83F4801306BF0B
:1003400081F480110134013D4EE77FEA645C18BFFF
:100350007FEA655C29D094EA050F08BF90EA020F96
:1003600005D054EA000C04BF1946104630BD91EA8E
:10037000030F1EBF0021002030BD5FEA545C05D191
:100380004000494128BF41F0004130BD14F58004D0
:100390003CBF01F5801130BD01F0004545F0FE4144
:1003A00041F470014FF0000030BD7FEA645C1ABF79
:1003B000194610467FEA655C1CBF0B46024650EAB0
:1003C000013406BF52EA033591EA030F41F40021DC
:1003D00030BD00BF90F0000F04BF0021704730B562
:1003E0004FF4806404F132044FF000054FF0000137
:1003F00050E700BF90F0000F04BF0021704730B5F8
:100400004FF4806404F1320410F0004548BF4042CC
:100410004FF000013EE700BF42004FEAE2014FEA21
:1004200031014FEA02701FBF12F07F4393F07F4FFC
:1004300081F06051704792F0000F14BF93F07F4F2E
:10044000704730B54FF4607401F0004521F0004171
:1004500020E700BF50EA010208BF704730B54FF0F7
:1004600000050AE050EA010208BF704730B511F0FC
:10047000004502D5404261EB41014FF4806404F134
:1004800032045FEA915C3FF4DCAE4FF003025FEAB6
:10049000DC0C18BF03325FEADC0C18BF033202EB3E
:1004A000DC02C2F1200300FA03FC20FA02F001FA98
:1004B00003FE40EA0E0021FA02F11444C1E600BF37
:1004C0004FF0FF3C06E000BF4FF0010C02E000BF20
:1004D0004FF0010C4DF804CD4FEA410C7FEA6C5C03
:1004E0004FEA430C18BF7FEA6C5C1BD001B050EAA6
:1004F000410C0CBF52EA430C91EA030F02BF90EA91
:10050000020F0020704710F1000F91EA030F58BF4F
:10051000994208BF90422CBFD8176FEAE37040F0B1
:10052000010070474FEA410C7FEA6C5C02D150EA4F
:10053000013C07D14FEA430C7FEA6C5CD6D152EA0A
:10054000033CD3D05DF8040B704700BF84461046CF
:1005500062468C461946634600E000BF01B5FFF7CE
:10056000B7FF002848BF10F1000F01BD4DF808ED9E
:10057000FFF7F4FF0CBF012000205DF808FB00BF6F
:100580004DF808EDFFF7EAFF34BF012000205DF8C9
:1005900008FB00BF4DF808EDFFF7E0FF94BF012016
:1005A00000205DF808FB00BF4DF808EDFFF7CEFF17
:1005B00094BF012000205DF808FB00BF4DF808ED56
:1005C000FFF7C4FF34BF012000205DF808FB00BF27
:1005D0004A0011D212F5001211D20DD56FF47873C2
:1005E000B3EB62520ED44FEAC12343F0004343EA17
:1005F000505323FA02F070474FF00000704750EA62
:10060000013002D14FF0FF3070474FF000007047CB
:1006100080F0004002E000BF81F0004142001FBFB7
:100620005FEA410392EA030F7FEA226C7FEA236CC0
:100630006AD04FEA1262D2EB1363C1BFD2184140B5
:1006400048404140B8BF5B42192B88BF704710F04B
:10065000004F40F4000020F07F4018BF404211F0EE
:10066000004F41F4000121F07F4118BF494292EA56
:10067000030F3FD0A2F1010241FA03FC10EB0C0082
:10068000C3F1200301FA03F100F0004302D549420F
:1006900060EB4000B0F5000F13D3B0F1807F06D3BC
:1006A00040084FEA310102F10102FE2A51D2B1F1B4
:1006B000004F40EBC25008BF20F0010040EA0300A9
:1006C0007047490040EB000010F4000FA2F1010256
:1006D000EDD1B0FA80FCACF1080CB2EB0C0200FAE0
:1006E0000CF0AABF00EBC25052421843BCBFD0402E
:1006F0001843704792F0000F81F4000106BF80F4A8
:1007000000000132013BB5E74FEA41037FEA226C6A
:1007100018BF7FEA236C21D092EA030F04D092F035
:10072000000F08BF0846704790EA010F1CBF002069
:10073000704712F07F4F04D1400028BF40F00040C6
:10074000704712F100723CBF00F50000704700F0E6
:10075000004343F0FE4040F4000070477FEA22620D
:1007600016BF08467FEA23630146420206BF5FEADE
:10077000412390EA010F40F4800070474FF00003DE
:1007800004E000BF10F0004348BF40425FEA000CA5
:1007900008BF704743F0964301464FF000001CE04D
:1007A00050EA010208BF70474FF000030AE000BFA3
:1007B00050EA010208BF704711F0004302D54042E1
:1007C00061EB41015FEA010C02BF84460146002053
:1007D00043F0B64308BFA3F18053A3F50003BCFA6E
:1007E0008CF2083AA3EBC25310DB01FA02FC63441B
:1007F00000FA02FCC2F12002BCF1004F20FA02F222
:1008000043EB020008BF20F00100704702F1200214
:1008100001FA02FCC2F1200250EA4C0021FA02F275
:1008200043EB020008BF20EADC7070474FF0FF0C7A
:100830001CEAD0521EBF1CEAD15392EA0C0F93EA75
:100840000C0F6FD01A4480EA010C400218BF5FEA17
:1008500041211ED04FF0006343EA501043EA51118A
:10086000A0FB01310CF00040B1F5000F3EBF490084
:1008700041EAD3715B0040EA010062F17F02FD2A88
:100880001DD8B3F1004F40EBC25008BF20F001006B
:10089000704790F0000F0CF0004C08BF49024CEA82
:1008A000502040EA51207F3AC2BFD2F1FF0340EA14
:1008B000C250704740F400004FF00003013A5DDC85
:1008C00012F1190FDCBF00F000407047C2F10002C6
:1008D000410021FA02F1C2F1200200FA02FC5FEAB3
:1008E000310040F1000053EA4C0308BF20EADC70FD
:1008F000704792F0000F00F0004C02BF400010F46F
:10090000000F013AF9D040EA0C0093F0000F01F01B
:10091000004C02BF490011F4000F013BF9D041EA3D
:100920000C018FE70CEAD15392EA0C0F18BF93EA3F
:100930000C0F0AD030F0004C18BF31F0004CD8D169
:1009400080EA010000F00040704790F0000F17BFF0
:1009500090F0004F084691F0000F91F0004F14D036
:1009600092EA0C0F01D142020FD193EA0C0F03D18E
:100970004B0218BF084608D180EA010000F0004091
:1009800040F0FE4040F40000704740F0FE4040F46C
:10099000400070474FF0FF0C1CEAD0521EBF1CEA0B
:1009A000D15392EA0C0F93EA0C0F69D0A2EB030229
:1009B00080EA010C49024FEA402037D04FF08053C3
:1009C00043EA111143EA10130CF000408B4238BF88
:1009D0005B0042F17D024FF4000C8B4224BF5B1A96
:1009E00040EA0C00B3EB510F24BFA3EB510340EAE4
:1009F0005C00B3EB910F24BFA3EB910340EA9C0092
:100A0000B3EBD10F24BFA3EBD10340EADC001B0101
:100A100018BF5FEA1C1CE0D1FD2A3FF650AF8B42A5
:100A200040EBC25008BF20F0010070470CF0004CB2
:100A30004CEA50207F32C2BFD2F1FF0340EAC250DD
:100A4000704740F400004FF00003013A37E792F09E
:100A5000000F00F0004C02BF400010F4000F013AFC
:100A6000F9D040EA0C0093F0000F01F0004C02BFF7
:100A7000490011F4000F013BF9D041EA0C0195E760
:100A80000CEAD15392EA0C0F08D142027FF47DAFF9
:100A900093EA0C0F7FF470AF084676E793EA0C0FE9
:100AA00004D14B023FF44CAF08466EE730F0004CE7
:100AB00018BF31F0004CCAD130F000427FF45CAF77
:100AC00031F000437FF43CAF5FE700BF80B483B0F8
:100AD00000AF7860034A7B68136000BF0C37BD46E7
:100AE00080BC70475801002080B500AF044B1868E7
:100AF000044B054A002102F054FC00BF80BD00BF3A
:100B0000580100201C0100207401002080B582B033
:100B100000AF7860054B1868054B7A68054902F00C
:100B20006AFB00BF0837BD4680BD00BF58010020EA
:100B3000540100205C01002080B582B000AF00238A
:100B4000FB71264B08221A61244B00229A60234B2A
:100B50000022DA60214B01221A60214B00221A6127
:100B60001F4B04221A601E4B00225A601C4B0422A9
:100B70009A601B4B0022DA60194B0122DA61184B94
:100B800000225A61164B00229A61154B01221A620B
:100B9000144B1B681249184602F020FA03461A4605
:100BA000FB791343FB710F4B1B68184602F0DFFA09
:100BB00003461A46FB791343FB710A4B1B6802215B
:100BC000184602F0FFFC03461A46FB791343FB71FB
:100BD000FB7918460837BD4680BD00BF5C01002088
:100BE000240100205801002080B485B000AF0346E6
:100BF000FB800023FB810023BB810323BB8112E028
:100C0000BB89BA89013A114931F812100F4A22F80A
:100C10001310BB890D4A32F81320FB891344FB8162
:100C2000BB89013BBB81BB89002BE9D1074AFB880B
:100C30001380FA89FB881344FB81FB899B08FB81A5
:100C4000FB8918461437BD4680BC70479C000020C5
:100C500090B583B000AF0023FB8000237B7101229D
:100C60002021304803F071FB002220212D4803F0A1
:100C70006CFB00237B711BE000220821294803F054
:100C800064FB01220821274803F05FFB80212548EF
:100C900003F044FB03461A467B79C3F1090302FAC9
:100CA00003F39AB2FB881343FB807B7901337B719A
:100CB0007B79092BE0D900237B7115E00022082104
:100CC000184803F042FB01220821164803F03DFBBF
:100CD0007C798021134803F021FB03461A46124B0E
:100CE0001A557B7901337B717B79032BE6D900227E
:100CF00008210C4803F029FB01220821094803F0D0
:100D000024FB8021074803F009FB03461A46074BE2
:100D10001B781343DAB2054B1A70FB8818460C3760
:100D2000BD4690BD0008014098000020A4000020AE
:100D300080B582B000AF0023FB710023BB80FFF7BA
:100D400087FF0346BB80BB88002B22D0BB88B3F54E
:100D5000806F1ED2114B1B78022B0DD80F4B1B78C6
:100D600019460F4ABB8822F811300C4B1B7801330F
:100D7000DAB20A4B1A700CE0BB881846FFF734FF52
:100D800003461A46074B1A80044B00221A700123AF
:100D9000FB71FB7918460837BD4680BDA8000020CE
:100DA0009C000020A600002080B400AFBFF34F8F4E
:100DB0000549054BDB6803F4E062044B1343CB6049
:100DC000BFF34F8F00BFFDE700ED00E00400FA0520
:100DD00080B400AF044B00221A73034B00225A74F4
:100DE00000BFBD4680BC70470000002080B582B0C7
:100DF00000AF0023FB71534B1B78042B00F295804E
:100E000001A252F823F000BF1D0E00082F0E0008AB
:100E1000670E0008A30E00080B0F000800225A21DD
:100E2000042000F067FB474B01221A7084E0464B18
:100E30001B780133DAB2444B1A70FFF77DFE03468C
:100E4000002B03D13F4B03221A7070E03E4B1B78FE
:100E50000A2B6CD941F2883001F0E8FB3A4B0022B2
:100E60001A70FFF7A1FF384B1B780133DAB2364B0B
:100E70001A70354B1B78092B0BD8FFF759FF034627
:100E8000012B56D1304B00221A702E4B03221A70C0
:100E90004FE00121202000F0DBFA2B4B00221A70DA
:100EA00047E0042000F03EFC03461A46274B1A7028
:100EB000264B1B78092B11D0244B1A78244B5A73DC
:100EC000224B1A78234B1A70224B00225A701E4B69
:100ED00000221A701B4B04221A7005E01A4B1B7873
:100EE0000133DAB2184B1A70174B1B780A2B22D930
:100EF000154B00221A70174B00221A70154B032253
:100F00005A701448FFF702FE15E01248FFF7FEFD85
:100F10000E4B1B78FB710B4B00221A700B4B0922F6
:100F20001A70094B00221A7006E000BF04E000BFEF
:100F300002E000BF00E000BFFB7918460837BD465D
:100F400080BD00BFB8000020B900002018000020BC
:100F500000000020B000002080B485B000AF034640
:100F6000FB710023FB731D4B9B7BDBB2013B062B0C
:100F700028D801A252F823F0950F0008A70F000807
:100F8000A70F0008A70F0008A70F0008A70F000869
:100F9000B90F0008FB79012B02D1FB79FB7316E036
:100FA0000323FB7313E0FB79012B02D0FB79022BA7
:100FB0000AD1FB79FB7307E0FB79022B06D1FB79A1
:100FC000FB7303E000BF02E000BF00E000BFFB7B5B
:100FD00018461437BD4680BC704700BF0000002093
:100FE00080B582B000AF786039607B681B78DBB277
:100FF000022B04D0032B41D0012B20D04BE0284BF7
:101000005B699B78C3F15A03DBB2002219460420C6
:1010100000F070FA224B9B7BDBB2032B07D1204BF5
:101020009B7BDBB2023BDAB23B681A7033E01C4BAD
:101030009B7BDBB2013BDAB23B681A702BE0184BAA
:101040005B695B785A33DBB200221946042000F05A
:1010500051FA134B9B7BDBB2012B07D1104B9B7BCF
:10106000DBB20233DAB23B681A7014E00C4B9B7BA4
:10107000DBB20133DAB23B681A700CE000227A214D
:10108000042000F037FA064B9B7BDBB20133DAB267
:101090003B681A7000BF00BF0837BD4680BD00BF67
:1010A0000000002080B582B000AF0023FB71414BEF
:1010B0009B78DBB2012B30D13F4B1B7CDBB2022B88
:1010C00004D0032B1AD0012B0CD023E0394B002283
:1010D0009A70394B9B7BDAB2384B1A70374B01222E
:1010E0005A7017E0334B02229A70334B5B7BDAB2B3
:1010F000324B1A70314B03225A700BE02D4B0022F9
:101100009A702D4B9B7BDAB22C4B1A702B4B022220
:101110005A7000BF284B00221A7400F0E1F8034611
:10112000002B03D1254B04225A7009E0234B5B7836
:10113000042B02D0214B5B7800E000231F4A537040
:101140001E4B1A781E4B1B789A4205D11B4B5A78BE
:101150001C4B1B789A4205D00123FB711A4B0022CD
:101160001A8019E0184B1B8801339AB2164B1A806B
:10117000154B1B88B42B0FD9104B5B78032B06D073
:101180000E4B5B78042B02D00C4B00225A700123CB
:10119000FB710D4B00221A80084B1A78084B1A700D
:1011A000064B5A78074B1A70FB7918460837BD462C
:1011B00080BD00BFAC00002000000020B000002077
:1011C000BA000020BB000020BC00002080B582B027
:1011D00000AF3D4B9B7BFB713C4B1B78DBB2042B80
:1011E00068D801A252F823F0FD110008051200088A
:1011F0005D120008B51200088D120008334B012261
:101200001A705CE0314B5B78DBB2002B1DD02E4BAB
:101210005B69002B50D02D4B02221A702A4B9B7B0E
:10122000DAB2294B5A732A492A48FFF7D9FE274BCD
:1012300000225A70254B02229A70234B01225A74C5
:101240000021192000F004F936E0FFF72BFF0346D8
:10125000012B31D12048FFF759FC2DE01F4B1B78A3
:101260000133DAB21D4B1A701C4B1B78032B25D9A6
:101270001A4B00221A70012000F0D8F9144B1A788A
:10128000114BDA73114B03221A7017E0002000F0A3
:10129000CDF90D4B0922DA730B4B00225A610C4B2E
:1012A0001B78FB71FFF794FD012000F031F800F08E
:1012B000BBFB04E000BF02E000BF00E000BFFB7921
:1012C00018460837BD4680BD00000020AC00002055
:1012D00019000020AD000020B0000020BE0000205A
:1012E00080B400AF034B9B7CDBB21846BD4680BC8C
:1012F000704700BF0000002080B400AF034B1B7894
:10130000DBB21846BD4680BC704700BFAC00002071
:1013100080B483B000AF0346FB71044AFB791370BD
:1013200000BF0C37BD4680BC704700BFAC0000203A
:1013300080B483B000AF0346FB71044AFB7993701D
:1013400000BF0C37BD4680BC704700BFAC0000201A
:1013500080B400AF034B9B78DBB21846BD4680BC1F
:10136000704700BFAC00002080B483B000AF0346DC
:10137000FB71044AFB79937300BF0C37BD4680BCF8
:10138000704700BF0000002080B400AF034B9B7B80
:10139000DBB21846BD4680BC704700BF000000208D
:1013A00080B400AF034BDB7BDBB21846BD4680BC8C
:1013B000704700BF0000002080B483B000AF034638
:1013C000FB71044AFB79137400BF0C37BD4680BC27
:1013D000704700BF0000002080B584B000AF034616
:1013E000FB71FFF77DFF0346012B1CD1FB791846EB
:1013F000FFF7B2FD0346FB73FB7B002B0ED0114AB7
:10140000FB7B5370104B9B7BDBB21A4613465B0091
:1014100013440E4A13440C4A53610EE0012101208B
:1014200000F016F809E0002000F000F900225A212F
:10143000042000F05FF800F0F7FA00BF1037BD4657
:1014400080BD00BFAC000020000000207C580008D8
:1014500080B483B000AF78600B46FB70FB78012B43
:1014600006D1094B9A687B681343074A936006E0EC
:10147000054B9A687B68DB431340034A936000BFC7
:101480000C37BD4680BC70470000002080B483B09C
:1014900000AF7860034A7B68136000BF0C37BD461D
:1014A00080BC70470000002080B500AF104B5B7C13
:1014B000DBB2012B1AD10E4B1B7BDBB2632B07D89F
:1014C0000B4B1B7BDBB20133DAB2094B1A730DE015
:1014D00000225A21042000F00DF80420FFF718FF25
:1014E00001210820FFF7B4FFFFF772FC00BF80BDA9
:1014F0000000002090B583B000AF03463A60FB7156
:101500000B46BB71FB79022B02D0042B16D065E091
:101510003B6840F2324293420BD93B68B3F5F76F18
:1015200007D2334B1B683A681A60314A3B685360F4
:1015300059E001210220FFF78BFF54E0BB79B42B67
:1015400047D8BB79592B1FD8294B1C68BB79184643
:10155000FFF718F9034627491846FFF767F90346CE
:101560001846FEF759FF02460B461046194604F08E
:10157000EBF802460B4610461946FFF729F80346DA
:1015800003F5FA7323601EE0194B1C68BB791846FB
:10159000FFF7F8F8034617491846FFF747F90346DF
:1015A0001846FEF739FF02460B461046194604F06E
:1015B00047F802460B4610461946FFF709F803465E
:1015C00003F5FA7323600A4B1B681B68084A5360D3
:1015D00009E001210220FFF73BFF04E00121022086
:1015E000FFF736FF00BF00BF0C37BD4690BD00BF00
:1015F000000000201CC7314180B500AF0A4B9B7B27
:10160000DBB2002B06D1FFF7F1FB03461A46064B6F
:101610009A7307E0FFF7DAFD03461A46024B9A7306
:10162000FFF742FF00BF80BD0000002080B582B000
:1016300000AF0346FB71FB79012B09D10B4B012253
:10164000DA7401224FF40061094802F07EFE08E0DE
:10165000064B0022DA7400224FF40061044802F0C5
:1016600074FE00BF0837BD4680BD00BF00000020EB
:10167000000C014080B485B000AF78600B46FB7071
:101680000023FB731F4B1B681B889BB2002B2FD0C2
:101690007B685B881A461B4B1B681B889BB21946EC
:1016A0007B689B88CB1A9A4222DB7B685B881A4650
:1016B000144B1B681B889BB219467B689B880B44A4
:1016C0009A4215DC7B689B79DBB2FA789A4205D89E
:1016D0000123FB737B6800229A710CE00323FB73E8
:1016E0007B689B79DBB20133DAB27B689A7102E0E6
:1016F0007B6800229A71FB7B18461437BD4680BC7C
:10170000704700BFC400002080B483B000AF786091
:10171000034A7B68136000BF0C37BD4680BC70472E
:10172000C400002080B584B000AF0346FB710123E4
:10173000FB730923BB731CE0FB7BDB00124A1344E1
:10174000FA7911461846FFF795FF03467B737B7BBA
:10175000012B05D1FB7B0C4A12F83330BB730EE032
:101760007B7B032B02D10823BB7308E0FB7B013397
:10177000FB73FB7B044A12F83330092BDCD1BB7BB3
:1017800018461037BD4680BD1C00002080B582B0D1
:1017900000AFFFF705FE0346FB71FFF7F5FD0346BB
:1017A000BB71FFF7A9FD0346012B3FD1FB79092B44
:1017B0003CD1BB79DB001F4A134403211846FFF7D5
:1017C00059FF03467B717B79002B1DD10320FFF766
:1017D000A9FF03463B713B79082B27D03B79092BA6
:1017E00007D03B791846FFF7BFFD0320FFF7E4FD64
:1017F00002E00120FFF7E0FD0120FFF799FD012144
:101800001020FFF725FE11E07B79012B0ED1FFF7A9
:101810009FFD0346022B09D10220FFF7CDFD0021D9
:101820001020FFF715FE0120FFF782FD00BF0837EB
:10183000BD4680BD1C00002080B582B000AFFFF720
:10184000AFFD0346FB71FFF757FD0346BB711D4B10
:101850001B681B889BB21A461B4B1A60BB79012B75
:101860001DD0032B00D029E0FB79092B23D0FB7975
:10187000DB00164A134404211846FFF7FBFE03461B
:10188000012B18D100225A210420FFF733FE00213A
:101890001020FFF7DDFD0420FFF73AFD0BE0094BB8
:1018A0001B681B889BB2002B07D100225A21042001
:1018B000FFF720FE01E000BF00E000BF00BF0837D7
:1018C000BD4680BDC4000020C00000201C000020D8
:1018D00080B483B000AF0023FB710023FB711FE0D5
:1018E000FA79134913465B0013449B000B440233FF
:1018F00000221A80FA790E4913465B0013449B00BC
:101900000B4400221A80FA79094913465B001344FC
:101910009B000B44053300221A70FB790133FB71E5
:10192000FB79012BDCD900BF0C37BD4680BC70476A
:10193000F400002080B400AF134B9B681B889BB25F
:10194000B3F57A7F19D2104B5B691B889BB2B3F554
:101950007A7F12D20D4B1B78DBB20133DAB20B4B1C
:101960001A700A4B1B78DBB20A2B09D9074B0022ED
:101970001A70074B00221A7002E0044B00221A7002
:1019800000BFBD4680BC7047F4000020F00000207E
:101990006C00002080B485B000AF78600023FB733A
:1019A0000023FB731FE0FA7B1E4913465B001344C0
:1019B0009B000B4400221A80FA7B1A4913465B00F5
:1019C00013449B000B44023300221A80FA7B154912
:1019D00013465B0013449B000B44053300221A702E
:1019E000FB7B0133FB73FB7B012BDCD90D4B02220C
:1019F0001A710C4B4FF40042DA807B680433094AB9
:101A00009360084B01221A74064B4FF480425A82AD
:101A10007B680633034A536100BF1437BD4680BC60
:101A2000704700BFF400002080B400AF034B0422D5
:101A30001A7000BFBD4680BC704700BF6D0000201B
:101A400080B500AFFFF758FC0346012B23D1134BA1
:101A50001B78DBB2042B1ED1114B1B78DBB2002BA1
:101A600002D0FFF767FF16E00E4B9B681B889BB206
:101A700040F6D862934203D9084B00221A700AE05C
:101A8000084B5B691B889BB240F6D862934202D92F
:101A9000024B01221A7000BF80BD00BF6D00002004
:101AA0006C000020F400002080B582B000AF4D4BE8
:101AB0001B78DBB2012B05D04A4B1B78DBB2002B25
:101AC00040F08C80474B1B78FB71FA7946491346EE
:101AD0005B0013449B000B441B889BB2052B58D81A
:101AE000FA79414913465B0013449B000B441B8861
:101AF0009BB2013398B23C4913465B0013449B00F0
:101B00000B4402461A80FA79374913465B001344A6
:101B10009B000B4408331B681B889BB240F6D862BD
:101B2000934215D9FA79304913465B0013449B0060
:101B30000B4402331B889BB2013398B22A491346E7
:101B40005B0013449B000B44023302461A8009E0F9
:101B5000FA79254913465B0013449B000B4402337A
:101B600000221A80FA79204913465B0013449B0037
:101B70000B4402331B889BB2042B0ED9FA791A4905
:101B800013465B0013449B000B44053301221A707B
:101B900003E0FFF79DFEFFF747FFFA79124913466E
:101BA0005B0013449B000B4405331B78DBB2012B15
:101BB00014D10E4B01221A700A4B02221A70FFF741
:101BC00087FEFA79084913465B0013449B000B44D7
:101BD00004331B78DBB21846FFF7FEFB00BF083763
:101BE000BD4680BD6D000020F40000206C00002088
:101BF00080B500AFFFF724FFFFF756FF00BF80BDA1
:101C000080B500AFFFF7F8FCFFF7C0FD00BF80BD57
:101C100080B400AF00BFBD4680BC704780B582B0C5
:101C200000AF00F0A1FC00F04BF800F0E7F900F085
:101C3000C7F900F0A1F800F009F900F03DF91A4BDE
:101C40005B687B607B6823F0E0637B607B6843F0CC
:101C500000737B60144A7B6853600020FFF7E6FC4A
:101C60001248FEF733FF0821114803F077F8104BB4
:101C70001B683C331846FFF709FC04220D490E4847
:101C800000F0CEFD0B48FFF73FFD0A48FFF782FE4C
:101C900000F022FC0346002BFAD000F029FC074894
:101CA00000F032FCF4E700BF00000140900100208A
:101CB0002C02002074020020B80100209458000873
:101CC00080B594B000AF07F1280328220021184600
:101CD00003F0ACFC07F1140300221A605A609A600A
:101CE000DA601A613B1D00221A605A609A60DA605D
:101CF0000123BB624FF48033FB6200233B6301236B
:101D0000BB6302237B644FF48033BB644FF4E01366
:101D1000FB6407F12803184602F030FB0346002B52
:101D200001D000F005FA0F237B610223BB61002381
:101D3000FB614FF480633B6200237B6207F1140375
:101D40000221184602F09AFD0346002B01D000F054
:101D5000EFF902237B604FF40043FB603B1D184604
:101D600002F0F6FE0346002B01D000F0E1F900BFBF
:101D70005037BD4680BD000080B584B000AF3B1D2C
:101D800000221A605A609A602E4B2F4A1A602D4B1F
:101D90004FF480729A602B4B01221A73294B002258
:101DA0001A75284B4FF46022DA61264B00225A60E4
:101DB000244B04221A61234800F05AFC0346002BEE
:101DC00001D000F0B5F900237B600123BB6007233D
:101DD000FB603B1D19461B4800F01CFE0346002B10
:101DE00001D000F0A5F901237B600223BB603B1DFD
:101DF0001946144800F00EFE0346002B01D000F0F7
:101E000097F908237B600323BB603B1D19460D48EF
:101E100000F000FE0346002B01D000F089F90923F1
:101E20007B600423BB603B1D1946064800F0F2FDB1
:101E30000346002B01D000F07BF900BF1037BD46F0
:101E400080BD00BFB80100200024014080B500AF74
:101E5000174B184A1A60164B04225A60144B002282
:101E60009A60134B0022DA60114B4FF4C0221A61C2
:101E70000F4B00225A610E4B00221A760C4B0022A7
:101E80005A760B4B00229A76094B0022DA76084BE1
:101E900000221A77064B00225A77054800F0A4FF6B
:101EA0000346002B01D000F043F900BF80BD00BF06
:101EB000900100200064004080B592B000AF07F1AF
:101EC000400300221A605A6007F1240300221A60BE
:101ED0005A609A60DA601A615A619A613B1D202249
:101EE0000021184603F0A2FB334B344A1A60324BF0
:101EF00047225A60304B00229A602F4B44F61F62F3
:101F0000DA602D4B00221A612B4B00225A612A4BBA
:101F100000229A61284802F0D1FE0346002B01D02E
:101F200000F006F900233B6400237B6407F14003C3
:101F30001946214803F080FA0346002B01D000F037
:101F4000F7F860237B620023BB620023FB6200235F
:101F50003B6300237B630023BB630023FB6307F128
:101F6000240308221946144802F09AFF0346002B66
:101F700001D000F0DDF800237B600023BB6000236C
:101F8000FB6000233B6100237B614FF40053BB6186
:101F900000233B623B1D1946074803F0ABFA03469A
:101FA000002B01D000F0C4F8034800F003FA00BF92
:101FB0004837BD4680BD00BF2C020020002C0140E8
:101FC00080B582B000AF0C4A0B4B5B6943F0010354
:101FD0005361094B5B6903F001037B607B6800225E
:101FE00000210B2001F00FFE0B2001F028FE00BFA6
:101FF0000837BD4680BD00BF0010024080B588B0E4
:1020000000AF07F1100300221A605A609A60DA608C
:10201000434A434B9B6943F010039361404B9B69D8
:1020200003F01003FB60FB683D4A3D4B9B6943F0A6
:10203000200393613A4B9B6903F02003BB60BB68AC
:10204000374A374B9B6943F004039361344B9B69D8
:1020500003F004037B607B68314A314B9B6943F09A
:10206000080393612E4B9B6903F008033B603B68B8
:1020700000224FF400512B4802F067F9002228217A
:10208000294802F062F900224FF40061274802F06B
:102090005CF94FF400533B6101237B610023BB617A
:1020A0000223FB6107F1100319461E4801F0DCFF13
:1020B00001233B6103237B6107F1100319461A4892
:1020C00001F0D2FF28233B6101237B610023BB6128
:1020D0000223FB6107F110031946134801F0C4FF06
:1020E00080233B6100237B610023BB6107F1100368
:1020F00019460D4801F0B8FF4FF400633B6101231E
:102100007B610223BB610323FB6107F110031946C6
:10211000064801F0A9FF00BF2037BD4680BD00BFC3
:10212000001002400010014000080140000C014076
:1021300080B400AF00BFBD4680BC704780B584B09E
:1021400000AF164A154B9B6943F001039361134B93
:102150009B6903F00103BB60BB68104A0F4BDB694E
:1021600043F08053D3610D4BDB6903F080537B60F8
:102170007B68052001F03CFD094B5B68FB60FB6858
:1021800023F0E063FB60FB6843F00073FB60044AEC
:10219000FB68536000BF1037BD4680BD0010024091
:1021A0000000014080B58AB000AF786007F11803E5
:1021B00000221A605A609A60DA607B681B68344AB1
:1021C000934260D1334A334B9B6943F4007393616C
:1021D000304B9B6903F400737B617B692D4A2D4B67
:1021E0009B6943F0040393612A4B9B6903F004034A
:1021F0003B613B69274A274B9B6943F00803936186
:10220000244B9B6903F00803FB60FB680323BB615D
:102210000323FB6107F1180319461F4801F024FF4F
:102220000323BB610323FB6107F1180319461B4815
:1022300001F01AFF1A4B1B4A1A60194B00225A6010
:10224000174B00229A60164B8022DA60144B4FF431
:1022500080721A61124B4FF480625A61104B202237
:102260009A610F4B4FF40052DA610D4801F002FD04
:102270000346002B01D0FFF75BFF7B68084A1A6218
:10228000074A7B68536200BF2837BD4680BD00BF48
:10229000002401400010024000080140000C0140F1
:1022A000E80100200800024080B58AB000AF7860E5
:1022B00007F1140300221A605A609A60DA607B68A2
:1022C0001B68294A93424BD1284A284BDB6943F0CB
:1022D0000073D361254BDB6903F000733B613B69FD
:1022E000224A224B9B6943F0080393611F4B9B6971
:1022F00003F00803FB60FB684FF480737B610023ED
:10230000BB610023FB6107F114031946184801F073
:10231000ABFE4FF400737B610223BB6103233B627E
:1023200007F114031946124801F09EFE114B5B6839
:102330007B627B6A23F4C0437B627B6A43F0E06389
:102340007B627B6A43F480437B620A4A7B6A536008
:1023500000220021142001F056FC142001F06FFC33
:1023600000BF2837BD4680BD006400400010024019
:10237000000C01400000014080B485B000AF7860DF
:102380007B681B68094A93420BD1094A084B9B6939
:1023900043F400639361064B9B6903F40063FB60A5
:1023A000FB6800BF1437BD4680BC7047002C01405D
:1023B0000010024080B588B000AF786007F11003CC
:1023C00000221A605A609A60DA607B681B68104AC3
:1023D000934218D10F4A0F4B9B6943F0040393615A
:1023E0000C4B9B6903F00403FB60FB684FF48063B4
:1023F0003B6102237B610223FB6107F11003194655
:10240000054801F031FE00BF2037BD4680BD00BF4A
:10241000002C0140001002400008014080B400AFD1
:1024200000BFBD4680BC704780B400AFFEE780B4FB
:1024300000AFFEE780B400AFFEE780B400AFFEE778
:1024400080B400AF00BFBD4680BC704780B400AF11
:1024500000BFBD4680BC704780B400AF00BFBD4622
:1024600080BC704780B582B000AF00F0C3F8002395
:10247000FB710AE0FB790A4A52F82320013208492D
:1024800041F82320FB790133FB71FB79022BF1D951
:10249000044B01221A7000BF0837BD4680BD00BF43
:1024A0000C0100201801002080B500AF034801F0A6
:1024B0009BFCFFF7C1F900BF80BD00BFE801002011
:1024C00080B500AF034801F0A2F8FEF70DFB00BF96
:1024D00080BD00BF9001002080B400AF034B1B788B
:1024E000DBB21846BD4680BC704700BF1801002013
:1024F00080B400AF034B00221A7000BFBD4680BC01
:10250000704700BF1801002080B584B000AF78602C
:102510000023FB7318E0FB7B0F4A52F82320FB7B60
:10252000DB0079680B445B689A420AD3FB7BDB00D3
:102530007A6813441B689847FB7B074A002142F8DE
:102540002310FB7B0133FB73FB7B022BE3D900BF22
:102550001037BD4680BD00BF0C01002080B400AF25
:1025600000BFBD4680BC704780B500AF084A084B2D
:102570001B6843F010031360032001F039FB0020B7
:1025800000F008F8FFF7DAFD0023184680BD00BF11
:102590000020024080B582B000AF7860124B1A680C
:1025A000124B1B7819464FF47A73B3FBF1F3B2FB6D
:1025B000F3F3184601F051FB0346002B01D0012331
:1025C0000EE07B680F2B0AD8002279684FF0FF30AD
:1025D00001F019FB064A7B681360002300E0012329
:1025E00018460837BD4680BD7000002078000020E6
:1025F0007400002080B400AF054B1B781A46054BD1
:102600001B681344034A136000BFBD4680BC70477B
:10261000780000207C02002080B400AF024B1B68D1
:102620001846BD4680BC70477C02002080B584B04F
:1026300000AF7860FFF7F0FFB8607B68FB60FB6875
:10264000B3F1FF3F05D0094B1B781A46FB681344D2
:10265000FB6000BFFFF7E0FF0246BB68D21AFB68D1
:102660009A42F7D300BF1037BD4680BD78000020E6
:1026700080B586B000AF78600023FB7500233B6116
:102680000023BB600023FB607B68002B01D101238A
:10269000BEE07B689B68002B7B689B6A002B09D19E
:1026A0007B680022DA627B68002283F82420786845
:1026B000FFF778FD786800F0F7FA0346FB757B6852
:1026C0009B6A03F01003002B40F09980FB7D002BE8
:1026D00040F095807B689B6A23F4885323F00203C3
:1026E00043F002027B689A627B685A687B68DB6908
:1026F0001A437B681B7B5B001343BA681343BB60C0
:102700007B689B68B3F5807F03D07B689B68012B57
:1027100002D14FF4807300E000233A6913433B6118
:102720007B681B7D012B19D17B681B7B002B09D19A
:102730007B689B69013B5A033B69134343F4006385
:102740003B610BE07B689B6A43F020027B689A62E6
:102750007B68DB6A43F001027B68DA627B681B6896
:102760007A681268526822F469413A690A435A60E9
:102770007B681A687B681B689968274B0B40B968AF
:102780000B4393607B689B68B3F5807F03D07B68C5
:102790009B68012B04D17B681B69013B1B05FB6017
:1027A0007B681B687A681268D26A22F47001FA6842
:1027B0000A43DA627B681B689A68184B1340BA6850
:1027C00093420BD17B680022DA627B689B6A23F01C
:1027D000030343F001027B689A6218E07B689B6AFE
:1027E00023F0120343F010027B689A627B68DB6A75
:1027F00043F001027B68DA620123FB7507E07B6826
:102800009B6A43F010027B689A620123FB75FB7D93
:1028100018461837BD4680BDFDF7E1FFFE0E1FFFCD
:1028200080B586B000AFF860B9607A600023FB75B0
:10283000FB681B68644A934204D0FB681B68634AC8
:10284000934206D1604B5B6803F47023002B40F089
:10285000B380FB6893F82430012B01D10223AEE052
:10286000FB68012283F82420F86800F0CBF90346C6
:10287000FB75FB7D002B40F09A80FB689B6A23F47C
:10288000706323F0010343F48072FB689A62FB6873
:102890001B684E4A934205D14B4B5B6803F470238F
:1028A000002B15D1FB689B6A23F48012FB689A62A7
:1028B000FB681B685B6803F48063002B26D0FB6811
:1028C0009B6A23F4405343F48052FB689A621DE0F4
:1028D000FB689B6A43F48012FB689A62FB681B6882
:1028E000394A934204D0FB681B68384A93420DD1A1
:1028F000354B5B6803F48063002B07D0FB689B6A51
:1029000023F4405343F48052FB689A62FB689B6A4D
:1029100003F48053002B06D0FB68DB6A23F0060229
:10292000FB68DA6202E0FB680022DA62FB680022E0
:1029300083F82420FB681B6A254A9A62FB681B6A9D
:10294000244ADA62FB681B6A234A1A63FB681B6825
:102950006FF002021A60FB681B68FA6812689268DE
:1029600042F480729A60FB68186AFB681B684C33FB
:102970001946BA687B6801F0D7F9FB681B689B6849
:1029800003F46023B3F5602F08D1FB681B68FA6875
:102990001268926842F4A0029A600FE0FB681B681C
:1029A000FA681268926842F480129A6006E0FB6846
:1029B000002283F8242001E00123FB75FB7D1846EB
:1029C0001837BD4680BD00BF0024014000280140EB
:1029D0001D2D0008992D0008B52D000880B483B086
:1029E00000AF786000BF0C37BD4680BC704780B434
:1029F00083B000AF786000BF0C37BD4680BC704725
:102A000080B483B000AF786000BF0C37BD4680BC97
:102A10007047000090B484B000AF78603960002344
:102A2000FB730023BB607B6893F82430012B01D13A
:102A30000223DCE07B68012283F824203B685B688A
:102A4000062B1CD87B6819687B681B68586B3B6831
:102A50005A6813469B001344053B1F2202FA03F3F6
:102A6000DB4318403B681C683B685A6813469B0070
:102A70001344053B04FA03F303434B633CE03B6818
:102A80005B680C2B1CD87B6819687B681B68186B0B
:102A90003B685A6813469B001344233B1F2202FAEB
:102AA00003F3DB4318403B681C683B685A681346D5
:102AB0009B001344233B04FA03F303430B631BE023
:102AC0007B6819687B681B68D86A3B685A6813463C
:102AD0009B001344413B1F2202FA03F3DB431840DF
:102AE0003B681C683B685A6813469B001344413B93
:102AF00004FA03F30343CB623B681B68092B1CD920
:102B00007B6819687B681B68D8683B681A6813463D
:102B10005B0013441E3B072202FA03F3DB43184019
:102B20003B689C683B681A6813465B0013441E3B75
:102B300004FA03F30343CB6019E07B6819687B68F0
:102B40001B6818693B681A6813465B001344072228
:102B500002FA03F3DB4318403B689C683B681A6841
:102B600013465B00134404FA03F303430B613B6811
:102B70001B68102B03D03B681B68112B32D17B687C
:102B80001B681D4A934225D17B681B689B6803F430
:102B90000003002B26D17B681B687A681268926854
:102BA00042F400029A603B681B68102B1AD1134B49
:102BB0001B68134AA2FB03239A0C13469B00134481
:102BC0005B00BB6002E0BB68013BBB60BB68002BE5
:102BD000F9D107E07B689B6A43F020027B689A6228
:102BE0000123FB737B68002283F82420FB7B1846BB
:102BF0001037BD4690BC7047002401407000002093
:102C000083DE1B4380B584B000AF78600023FB6097
:102C10000023BB607B681B689B6803F00103012BEA
:102C200039D07B681B687A681268926842F00102AA
:102C30009A601B4B1B681B4AA2FB03239B0CBB60C7
:102C400002E0BB68013BBB60BB68002BF9D1FFF71A
:102C5000E3FCF86018E0FFF7DFFC0246FB68D31ADC
:102C6000022B11D97B689B6A43F010027B689A6241
:102C70007B68DB6A43F001027B68DA627B680022D2
:102C800083F82420012307E07B681B689B6803F01E
:102C90000103012BDFD1002318461037BD4680BD4C
:102CA0007000002083DE1B4380B584B000AF7860E5
:102CB0000023FB607B681B689B6803F00103012B0A
:102CC00027D17B681B687A681268926822F001023B
:102CD0009A60FFF7A1FCF86014E0FFF79DFC024644
:102CE000FB68D31A022B0DD97B689B6A43F0100254
:102CF0007B689A627B68DB6A43F001027B68DA6278
:102D0000012307E07B681B689B6803F00103012B2C
:102D1000E3D0002318461037BD4680BD80B584B08F
:102D200000AF78607B685B6AFB60FB689B6A03F0BE
:102D30005003002B27D1FB689B6A43F40072FB68A9
:102D40009A62FB681B689B6803F46023B3F5602FED
:102D500015D1FB681B7B002B11D1FB689B6A23F408
:102D60008072FB689A62FB689B6A03F48053002BB5
:102D700005D1FB689B6A43F00102FB689A62F86820
:102D8000FFF72CFE04E0FB681B6A1B6B7868984712
:102D900000BF1037BD4680BD80B584B000AF7860FD
:102DA0007B685B6AFB60F868FFF721FE00BF1037A5
:102DB000BD4680BD80B584B000AF78607B685B6A3B
:102DC000FB60FB689B6A43F04002FB689A62FB6809
:102DD000DB6A43F00402FB68DA62F868FFF710FE72
:102DE00000BF1037BD4680BD80B584B000AF7860AD
:102DF0007B68002B01D10123ECE07B6893F8203045
:102E0000DBB2002B02D17868FFF74EFA7B681B68B3
:102E10007A681268126822F002021A60FFF7FCFB5F
:102E2000F86012E0FFF7F8FB0246FB68D31A0A2BA2
:102E30000BD97B685B6A43F400327B685A627B681B
:102E4000052283F820200123C4E07B681B685B68AF
:102E500003F00203002BE5D17B681B687A681268D7
:102E6000126842F001021A60FFF7D6FBF86012E028
:102E7000FFF7D2FB0246FB68D31A0A2B0BD97B68FB
:102E80005B6A43F400327B685A627B68052283F8F0
:102E9000202001239EE07B681B685B6803F0010330
:102EA000002BE5D07B681B7E012B08D17B681B685B
:102EB0007A681268126842F080021A6007E07B6844
:102EC0001B687A681268126822F080021A607B68B8
:102ED0005B7E012B08D17B681B687A6812681268D8
:102EE00042F040021A6007E07B681B687A6812684B
:102EF000126822F040021A607B689B7E012B08D189
:102F00007B681B687A681268126842F020021A60B7
:102F100007E07B681B687A681268126822F020025A
:102F20001A607B68DB7E012B08D17B681B687A689E
:102F30001268126822F010021A6007E07B681B68B2
:102F40007A681268126842F010021A607B681B7F70
:102F5000012B08D17B681B687A681268126842F0FE
:102F600008021A6007E07B681B687A6812681268BA
:102F700022F008021A607B685B7F012B08D17B6816
:102F80001B687A681268126842F004021A6007E04F
:102F90007B681B687A681268126822F004021A6063
:102FA0007B681B687A6891687A68D26811437A688E
:102FB000126911437A68526911437A685268013A7A
:102FC0000A43DA617B6800225A627B68012283F837
:102FD0002020002318461037BD4680BD80B487B03E
:102FE00000AF786039607B681B687B617B6893F811
:102FF0002030FB74FB7C012B03D0FB7C022B40F0C8
:10300000AA807B69D3F8003243F001027B69C3F8E0
:1030100000223B685B6903F01F03012202FA03F3FD
:10302000FB607B69D3F81C22FB68DB431A407B6999
:10303000C3F81C223B68DB69002B23D17B69D3F8E2
:103040000C22FB68DB431A407B69C3F80C223B6807
:103050005A693B68DB6819043B685B689BB219439B
:103060007B69483243F832103B685B693A68926882
:1030700011043A68126892B20A4379694833DB0056
:103080000B445A603B68DB69012B22D17B69D3F882
:103090000C22FB681A437B69C3F80C223B685A690F
:1030A0003B681B6819043B685B689BB219437B69EA
:1030B000483243F832103B685B693A689268110401
:1030C0003A68D26892B20A4379694833DB000B440C
:1030D0005A603B689B69002B09D17B69D3F80422B5
:1030E000FB68DB431A407B69C3F8042207E07B6975
:1030F000D3F80422FB681A437B69C3F804223B68B7
:103100001B69002B09D17B69D3F81422FB68DB43D0
:103110001A407B69C3F8142207E07B69D3F81422B4
:10312000FB681A437B69C3F814223B681B6A012BB6
:1031300007D17B69D3F81C22FB681A437B69C3F86B
:103140001C227B69D3F8003223F001027B69C3F8AB
:103150000022002306E07B685B6A43F480227B68E0
:103160005A62012318461C37BD4680BC704780B5A3
:1031700084B000AF78607B6893F82030DBB2012B1D
:103180002ED17B68022283F820207B681B687A6836
:103190001268126822F001021A60FFF73DFAF86027
:1031A00012E0FFF739FA0246FB68D31A0A2B0BD953
:1031B0007B685B6A43F400327B685A627B68052255
:1031C00083F82020012312E07B681B685B6803F012
:1031D0000103002BE5D17B6800225A62002306E040
:1031E0007B685B6A43F400227B685A6201231846BD
:1031F0001037BD4680BD80B489B000AFF860B960BB
:103200007A603B60FB6893F82030FB77FB681B68B3
:103210009B68BB61FB7F012B03D0FB7F022B40F03F
:10322000B480BB6903F08063002B0AD1BB6903F053
:103230000063002B05D1BB6903F08053002B00F025
:103240009C80BB691B0E03F003037B617B69022B2F
:1032500007D9FB685B6A43F40002FB685A620123EA
:103260009AE001227B699A403B681A60BB689B68C0
:10327000002B0DD1FB681968BB681B685A05BB6839
:10328000DB681A437B6918331B010B441A600FE09B
:10329000FB681968BB685B68DA00BB689B681A4307
:1032A000BB68DB681A437B6918331B010B441A6047
:1032B000FB681968BB681A697B6918331B010B44EA
:1032C00004331A60BB681B7D012B11D1FB681968A0
:1032D000FB681A687B6918331B01134404331B68AD
:1032E00043F480727B6918331B010B4404331A606A
:1032F000FB6819687B6807331B781A067B680633FE
:103300001B781B041A437B6805331B781B0213438D
:103310007A68043212781A437B691B010B4403F567
:10332000C6731A60FB6819687B6803331B781A063A
:103330007B6802331B781B041A437B6801331B78BC
:103340001B0213437A6812781A437B691B010B44F2
:1033500003F5C4731A60FB681968FB681A687B6917
:1033600018331B0113441B6843F001027B691833B7
:103370001B010B441A6000230EE0FB685B6A43F4F8
:103380000012FB685A62012306E0FB685B6A43F4A3
:103390008022FB685A62012318462437BD4680BC50
:1033A000704780B487B000AFF860B9607A603B6066
:1033B000FB6893F82030FB75FB7D012B03D0FB7D70
:1033C000022B40F0F380BB68002B0ED1FB681B681A
:1033D000DB6803F00303002B16D1FB685B6A43F440
:1033E0000012FB685A620123E7E0FB681B681B6957
:1033F00003F00303002B07D1FB685B6A43F4001260
:10340000FB685A620123D8E0FB681A68BB681B336B
:103410001B0113441B6803F004027B689A607B68FD
:103420009B68002B0CD1FB681A68BB681B331B011F
:1034300013441B685B0DC3F30A027B681A600BE040
:10344000FB681A68BB681B331B0113441B68DB084D
:1034500023F060427B685A60FB681A68BB681B33C4
:103460001B0113441B6803F002027B68DA60FB68EF
:103470001A68BB681B331B01134404331B6803F039
:103480000F027B681A61FB681A68BB681B331B015B
:10349000134404331B681B0ADAB27B689A61FB6829
:1034A0001A68BB681B331B01134404331B681B0CD5
:1034B0009AB27B685A61FB681A68BB681B011344A7
:1034C00003F5DC731B68DAB23B681A703B680133A2
:1034D000FA681168BA6812010A4402F5DC721268CF
:1034E000120AD2B21A703B680233FA681168BA68DD
:1034F00012010A4402F5DC721268120CD2B21A7080
:103500003B680333FA681168BA6812010A4402F58D
:10351000DC721268120ED2B21A703B680433FA6879
:103520001168BA6812010A4402F5DE721268D2B25A
:103530001A703B680533FA681168BA6812010A44C8
:1035400002F5DE721268120AD2B21A703B680633B4
:10355000FA681168BA6812010A4402F5DE7212684C
:10356000120CD2B21A703B680733FA681168BA6855
:1035700012010A4402F5DE721268120ED2B21A70FB
:10358000BB68002B08D1FB681B68FA681268D26818
:1035900042F02002DA6007E0FB681B68FA681268F4
:1035A000126942F020021A61002306E0FB685B6AA0
:1035B00043F48022FB685A62012318461C37BD463B
:1035C00080BC704780B485B000AF786039607B689C
:1035D00093F82030FB73FB7B012B02D0FB7B022B8B
:1035E00009D17B681B687A68126851693A680A4396
:1035F0005A61002306E07B685B6A43F480227B68A3
:103600005A62012318461437BD4680BC704780B506
:103610008AB000AF786000237B627B681B685B69BF
:103620003B627B681B685B68FB617B681B689B680F
:10363000BB617B681B68DB687B617B681B681B69FF
:103640003B617B681B689B69FB603B6A03F001037D
:10365000002B7CD0BB6903F00103002B23D07B68D7
:103660001B6801229A60BB6903F00203002B03D0A0
:10367000786800F07DF916E0BB6903F00403002BC5
:1036800004D07B6A43F400637B620CE0BB6903F007
:103690000803002B04D07B6A43F480537B6202E072
:1036A000786800F080F9BB6903F48073002B24D0A4
:1036B0007B681B684FF480729A60BB6903F40073E7
:1036C000002B03D0786800F05CF916E0BB6903F4C6
:1036D0008063002B04D07B6A43F400537B620CE0D0
:1036E000BB6903F40063002B04D07B6A43F480437E
:1036F0007B6202E0786800F05FF9BB6903F4803315
:10370000002B24D07B681B684FF480329A60BB6921
:1037100003F40033002B03D0786800F03BF916E087
:10372000BB6903F48023002B04D07B6A43F400437D
:103730007B620CE0BB6903F40023002B04D07B6A9E
:1037400043F480337B6202E0786800F03EF93B6A24
:1037500003F00803002B0CD07B6903F01003002B4F
:1037600007D07B6A43F400737B627B681B6810227E
:10377000DA603B6A03F00403002B0BD07B6903F093
:103780000803002B06D07B681B680822DA60786883
:1037900000F02DF93B6A03F00203002B09D07B688F
:1037A0001B68DB6803F00303002B02D0786800F08D
:1037B00015F93B6A03F04003002B0CD03B6903F082
:1037C0001003002B07D07B6A43F480637B627B6825
:1037D0001B6810221A613B6A03F02003002B0BD0F8
:1037E0003B6903F00803002B06D07B681B680822A6
:1037F0001A61786800F00DF93B6A03F01003002BA2
:1038000009D07B681B681B6903F00303002B02D0FF
:10381000786800F0F5F83B6A03F40033002B0BD016
:10382000FB6903F01003002B06D07B681B68102295
:103830005A60786800F0F6F83B6A03F48033002B96
:103840000BD0FB6903F00803002B06D07B681B68D4
:1038500008225A60786800F0EEF83B6A03F40043EF
:10386000002B75D0FB6903F00403002B6CD03B6A7E
:1038700003F48073002B08D0FB6803F00103002BD6
:1038800003D07B6A43F001037B623B6A03F400735D
:10389000002B08D0FB6803F00203002B03D07B6AE7
:1038A00043F002037B623B6A03F48063002B08D081
:1038B000FB6803F00403002B03D07B6A43F004038E
:1038C0007B623B6A03F40063002B3DD0FB6803F08E
:1038D0007003002B38D0FB6803F07003302B17D037
:1038E000302B04D8102B09D0202B0CD024E0502BE7
:1038F00018D0602B1BD0402B0FD01DE07B6A43F00B
:1039000008037B6218E07B6A43F010037B6213E0DC
:103910007B6A43F020037B620EE07B6A43F0400346
:103920007B6209E07B6A43F080037B6204E07B6A90
:1039300043F480737B6200BF7B681B687A681268FF
:10394000926922F070029A617B681B6804225A60B7
:103950007B6A002B08D07B685A6A7B6A1A437B68B3
:103960005A62786800F070F800BF2837BD4680BD05
:1039700080B483B000AF786000BF0C37BD4680BC18
:10398000704780B483B000AF786000BF0C37BD468D
:1039900080BC704780B483B000AF786000BF0C3744
:1039A000BD4680BC704780B483B000AF786000BF74
:1039B0000C37BD4680BC704780B483B000AF7860E0
:1039C00000BF0C37BD4680BC704780B483B000AFE9
:1039D000786000BF0C37BD4680BC704780B483B0B0
:1039E00000AF786000BF0C37BD4680BC704780B424
:1039F00083B000AF786000BF0C37BD4680BC704715
:103A000080B483B000AF786000BF0C37BD4680BC87
:103A1000704780B483B000AF786000BF0C37BD46FC
:103A200080BC704780B483B000AF786000BF0C37B3
:103A3000BD4680BC704780B483B000AF786000BFE3
:103A40000C37BD4680BC704780B483B000AF78604F
:103A500000BF0C37BD4680BC7047000080B485B005
:103A600000AF78607B6803F00703FB600C4BDB68FA
:103A7000BB60BA684FF6FF031340BB60FB681A02D5
:103A8000BB68134343F0BF6343F40033BB60044A95
:103A9000BB68D36000BF1437BD4680BC704700BF11
:103AA00000ED00E080B400AF044BDB681B0A03F0BC
:103AB00007031846BD4680BC704700BF00ED00E01C
:103AC00080B483B000AF0346FB7197F90730002B39
:103AD0000BDB084997F907305B09FA7902F01F02FE
:103AE000012000FA02F241F8232000BF0C37BD4646
:103AF00080BC704700E100E080B483B000AF0346B3
:103B00003960FB7197F90730002B0ADB0D4997F9F3
:103B100007303A68D2B21201D2B20B4483F80023C4
:103B20000AE00949FB7903F00F03043B3A68D2B27B
:103B30001201D2B20B441A7600BF0C37BD4680BCCE
:103B4000704700BF00E100E000ED00E080B489B004
:103B500000AFF860B9607A60FB6803F00703FB61AF
:103B6000FB69C3F10703042B28BF0423BB61FB6976
:103B70000433062B02D9FB69033B00E000237B6181
:103B80000122BB6902FA03F35A1EBB681A407B6923
:103B90009A4001217B6901FA03F3591E7B680B40AF
:103BA000134318462437BD4680BC704780B582B0A9
:103BB00000AF78607B68013BB3F1807F01D30123C4
:103BC0000FE00A4A7B68013B53600F214FF0FF3042
:103BD000FFF792FF054B00229A60044B07221A6000
:103BE000002318460837BD4680BD00BF10E000E046
:103BF00080B582B000AF78607868FFF72FFF00BF14
:103C00000837BD4680BD80B586B000AF0346B960B9
:103C10007A60FB7300237B61FFF744FF78617A6869
:103C2000B9687869FFF792FF024697F90F3011469D
:103C30001846FFF761FF00BF1837BD4680BD80B54D
:103C400082B000AF0346FB7197F907301846FFF7C3
:103C500037FF00BF0837BD4680BD80B582B000AFDA
:103C600078607868FFF7A2FF034618460837BD461C
:103C700080BD000080B485B000AF78600023FB6099
:103C80007B68002B01D1012343E07B681B681A4647
:103C9000224B1344224AA2FB03231B099A007B6890
:103CA0001A647B681F4ADA637B68022283F821204A
:103CB0007B681B681B68FB60FB6823F47F5323F061
:103CC0003003FB607B685A687B689B681A437B689B
:103CD000DB681A437B681B691A437B685B691A437C
:103CE0007B689B691A437B68DB691343FA6813435B
:103CF000FB607B681B68FA681A607B6800229A6325
:103D00007B68012283F821207B68002283F8202031
:103D1000002318461437BD4680BC7047F8FFFDBF2E
:103D2000CDCCCCCC0000024080B586B000AFF860AE
:103D3000B9607A603B600023FB75FB6893F8203024
:103D4000012B01D102234AE0FB68012283F82020E5
:103D5000FB6893F82130012B3AD1FB68022283F8EB
:103D60002120FB6800229A63FB681B68FA681268CE
:103D7000126822F001021A603B687A68B968F86834
:103D800000F044F9FB68DB6A002B08D0FB681B6875
:103D9000FA681268126842F00E021A600FE0FB68BF
:103DA0001B68FA681268126822F004021A60FB6845
:103DB0001B68FA681268126842F00A021A60FB680F
:103DC0001B68FA681268126842F001021A6005E086
:103DD000FB68002283F820200223FB75FB7D184638
:103DE0001837BD4680BD000080B584B000AF786054
:103DF0007B68DB6B1B68FB607B681B681B68BB60B8
:103E00007B681B6C04229A40FB681340002B55D042
:103E1000BB6803F00403002B50D07B681B681B6851
:103E200003F02003002B07D17B681B687A681268B7
:103E3000126822F004021A606D4A7B681B681946FA
:103E40006C4B99422ED07B681B6819466A4B99428D
:103E500026D07B681B681946684B99421DD07B6849
:103E60001B681946664B994214D07B681B6819463B
:103E7000644B99420BD07B681B681946624B994290
:103E800002D14FF480030EE04FF080630BE04FF45B
:103E9000802308E04FF4804305E04FF4806302E0A4
:103EA000402300E0042353607B68DB6A002B00F0B2
:103EB0009A807B68DB6A7868984794E07B681B6C23
:103EC00002229A40FB681340002B5CD0BB6803F0D1
:103ED0000203002B57D07B681B681B6803F020038C
:103EE000002B0BD17B681B687A681268126822F07D
:103EF0000A021A607B68012283F821203C4A7B6811
:103F00001B6819463B4B99422ED07B681B681946AB
:103F1000394B994226D07B681B681946374B99422A
:103F20001DD07B681B681946354B994214D07B68BD
:103F30001B681946334B99420BD07B681B681946A6
:103F4000314B994202D14FF400130EE04FF0007351
:103F50000BE04FF4003308E04FF4005305E04FF45A
:103F6000007302E0202300E0022353607B680022FC
:103F700083F820207B689B6A002B34D07B689B6A87
:103F8000786898472FE07B681B6C08229A40FB6892
:103F90001340002B28D0BB6803F00803002B23D06C
:103FA0007B681B687A681268126822F00E021A6039
:103FB0007B68DB6B7A68126C012101FA02F25A60AD
:103FC0007B6801229A637B68012283F821207B6849
:103FD000002283F820207B681B6B002B04D07B68B9
:103FE0001B6B7868984700BF00BF1037BD4680BD87
:103FF00000000240080002401C0002403000024065
:1040000044000240580002406C00024080B485B079
:1040100000AFF860B9607A603B60FB68DB6BFA6800
:10402000126C012101FA02F25A60FB681B683A68BF
:104030005A60FB685B68102B08D1FB681B687A68C4
:104040009A60FB681B68BA68DA6007E0FB681B6867
:10405000BA689A60FB681B687A68DA6000BF143738
:10406000BD4680BC7047000080B48BB000AF786064
:10407000396000237B6200233B6227E101227B6AD7
:1040800002FA03F3FB613B681A68FB691340BB61EA
:10409000BA69FB699A4240F016813B685B68122B53
:1040A00034D0122B0DD8022B2BD0022B04D8002B8E
:1040B00031D0012B1CD048E0032B43D0112B1BD057
:1040C00043E0894A934226D0874A934206D8874ADA
:1040D000934220D0864A93421DD036E0854A9342CF
:1040E00019D0854A934216D0844A934213D02CE0CB
:1040F0003B68DB683B6228E03B68DB6804333B627B
:1041000023E03B68DB6808333B621EE03B68DB680A
:104110000C333B6219E03B689B68002B02D10423FF
:104120003B6212E03B689B68012B05D108233B6290
:104130007B68FA691A6108E008233B627B68FA69C8
:104140005A6102E000233B6200BFBB69FF2B01D82C
:104150007B6801E07B6804337B61BB69FF2B02D87D
:104160007B6A9B0002E07B6A083B9B003B617B69AA
:104170001A680F213B6901FA03F3DB431A40396ADD
:104180003B6901FA03F31A437B691A603B685B6879
:1041900003F08053002B00F09680594A584B9B69DE
:1041A00043F001039361564B9B6903F00103BB602D
:1041B000BB68544A7B6A9B08023352F82330FB6089
:1041C0007B6A03F003039B000F2202FA03F3DB4335
:1041D000FA681340FB607B684B4A934213D07B68BC
:1041E0004A4A93420DD07B68494A934207D07B6884
:1041F000484A934201D1032306E0042304E002234A
:1042000002E0012300E000237A6A02F00302920038
:104210009340FA681343FB603A497B6A9B08023378
:10422000FA6841F823203B685B6803F48033002B75
:1042300006D03949384B1A68BB6913430B6006E056
:104240003549354B1A68BB69DB4313400B603B684B
:104250005B6803F40033002B06D02F492E4B5A68BD
:10426000BB6913434B6006E02B492B4B5A68BB6973
:10427000DB4313404B603B685B6803F48013002B07
:1042800006D02549244B9A68BB6913438B6006E02E
:104290002149214B9A68BB69DB4313408B603B6823
:1042A0005B6803F40013002B06D01B491A4BDA6835
:1042B000BB691343CB6006E01749174BDA68BB694B
:1042C000DB431340CB607B6A01337B623B681A6837
:1042D0007B6A22FA03F3002B7FF4D0AE00BF2C37A9
:1042E000BD4680BC704700BF0000211000001110C7
:1042F00000001210000031100000321000002210E7
:10430000001002400000014000080140000C014084
:1043100000100140001401400004014080B485B049
:1043200000AF78600B467B807B689A687B8813407F
:10433000002B02D00123FB7301E00023FB73FB7B06
:1043400018461437BD4680BC704780B483B000AFB8
:1043500078600B467B8013467B707B78002B03D004
:104360007A887B681A6103E07B881A047B681A618B
:1043700000BF0C37BD4680BC7047000080B586B0DA
:1043800000AF78607B68002B01D101236CE27B6871
:104390001B6803F00103002B00F08780924B5B68E1
:1043A00003F00C03042B0CD08F4B5B6803F00C0361
:1043B000082B12D18C4B5B6803F48033B3F5803F3C
:1043C0000BD1894B1B6803F40033002B6CD07B6846
:1043D0005B68002B68D1012346E27B685B68B3F51C
:1043E000803F06D1804A804B1B6843F480331360C2
:1043F0002EE07B685B68002B0CD17B4A7A4B1B68F4
:1044000023F480331360784A774B1B6823F48023AE
:1044100013601DE07B685B68B3F5A02F0CD1724A76
:10442000714B1B6843F4802313606F4A6E4B1B680B
:1044300043F4803313600BE06B4A6B4B1B6823F42F
:1044400080331360684A684B1B6823F48023136031
:104450007B685B68002B13D0FEF7DEF8386108E05C
:10446000FEF7DAF802463B69D31A642B01D903231D
:10447000FAE15D4B1B6803F40033002BF0D014E02D
:10448000FEF7CAF8386108E0FEF7C6F802463B6955
:10449000D31A642B01D90323E6E1534B1B6803F4C1
:1044A0000033002BF0D100E000BF7B681B6803F0F5
:1044B0000203002B63D04C4B5B6803F00C03002B12
:1044C0000BD0494B5B6803F00C03082B1CD1464B07
:1044D0005B6803F48033002B16D1434B1B6803F059
:1044E0000203002B05D07B681B69012B01D001233F
:1044F000BAE13D493C4B1B6823F0F8027B685B69DD
:10450000DB0013430B603AE07B681B69002B20D073
:10451000364B01221A60FEF77FF8386108E0FEF79B
:104520007BF802463B69D31A022B01D903239BE196
:104530002D4B1B6803F00203002BF0D02A492A4BB5
:104540001B6823F0F8027B685B69DB0013430B6098
:1045500015E0264B00221A60FEF75EF8386108E08D
:10456000FEF75AF802463B69D31A022B01D90323FE
:104570007AE11D4B1B6803F00203002BF0D17B682E
:104580001B6803F00803002B3AD07B689B69002B63
:1045900019D0174B01221A60FEF73EF8386108E087
:1045A000FEF73AF802463B69D31A022B01D90323DE
:1045B0005AE10D4B5B6A03F00203002BF0D001209F
:1045C00000F0A8FA1CE00A4B00221A60FEF724F85B
:1045D00038610FE0FEF720F802463B69D31A022B40
:1045E00008D9032340E100BF00100240000042420E
:1045F000800442429E4B5B6A03F00203002BE9D128
:104600007B681B6803F00403002B00F0A6800023E6
:10461000FB75974BDB6903F08053002B0DD1944A57
:10462000934BDB6943F08053D361914BDB6903F01B
:104630008053BB60BB680123FB758E4B1B6803F482
:104640008073002B18D18B4A8A4B1B6843F480730C
:104650001360FDF7E1FF386108E0FDF7DDFF02467A
:104660003B69D31A642B01D90323FDE0814B1B68FE
:1046700003F48073002BF0D07B68DB68012B06D13C
:104680007B4A7B4B1B6A43F0010313622DE07B687E
:10469000DB68002B0CD1764A754B1B6A23F00103B3
:1046A0001362734A724B1B6A23F0040313621CE00B
:1046B0007B68DB68052B0CD16D4A6D4B1B6A43F0A0
:1046C000040313626A4A6A4B1B6A43F001031362D4
:1046D0000BE0674A664B1B6A23F001031362644ACE
:1046E000634B1B6A23F0040313627B68DB68002BB7
:1046F00015D0FDF791FF38610AE0FDF78DFF024606
:104700003B69D31A41F28832934201D90323ABE0CB
:10471000574B1B6A03F00203002BEED014E0FDF7A9
:104720007BFF38610AE0FDF777FF02463B69D31A49
:1047300041F28832934201D9032395E04C4B1B6A26
:1047400003F00203002BEED1FB7D012B05D1484A7B
:10475000474BDB6923F08053D3617B68DB69002B17
:1047600000F08180424B5B6803F00C03082B61D0A2
:104770007B68DB69022B46D13F4B00221A60FDF7B4
:104780004BFF386108E0FDF747FF02463B69D31A4B
:10479000022B01D9032367E0354B1B6803F000733C
:1047A000002BF0D17B681B6AB3F5803F08D13049FC
:1047B0002F4B5B6823F400327B689B6813434B608C
:1047C0002B482B4B5B6823F474127B68196A7B6857
:1047D0005B6A0B4313434360274B01221A60FDF7CA
:1047E0001BFF386108E0FDF717FF02463B69D31A4B
:1047F000022B01D9032337E01D4B1B6803F0007324
:10480000002BF0D02FE01C4B00221A60FDF704FFB4
:10481000386108E0FDF700FF02463B69D31A022B1E
:1048200001D9032320E0124B1B6803F00073002B17
:10483000F0D118E07B68DB69012B01D1012313E083
:104840000B4B5B68FB60FB6803F480327B681B6A80
:104850009A4206D1FB6803F470127B685B6A9A4245
:1048600001D0012300E0002318461837BD4680BD63
:1048700000100240007000406000424280B584B0E9
:1048800000AF786039607B68002B01D10123D0E054
:104890006A4B1B6803F007023B689A4210D26749D3
:1048A000664B1B6823F007023B6813430B60634BA6
:1048B0001B6803F007023B689A4201D00123B8E06D
:1048C0007B681B6803F00203002B20D07B681B6809
:1048D00003F00403002B05D0594A594B5B6843F49D
:1048E000E06353607B681B6803F00803002B05D06E
:1048F000534A534B5B6843F4605353605049504BE9
:104900005B6823F0F0027B689B6813434B607B6815
:104910001B6803F00103002B40D07B685B68012B10
:1049200007D1474B1B6803F40033002B15D101233B
:104930007FE07B685B68022B07D1414B1B6803F06B
:104940000073002B09D1012373E03D4B1B6803F07A
:104950000203002B01D101236BE03949384B5B681E
:1049600023F003027B685B6813434B60FDF754FE42
:10497000F8600AE0FDF750FE0246FB68D31A41F2E8
:104980008832934201D9032353E02D4B5B6803F037
:104990000C027B685B689B009A42EBD1274B1B683B
:1049A00003F007023B689A4210D92449234B1B6845
:1049B00023F007023B6813430B60204B1B6803F096
:1049C00007023B689A4201D0012332E07B681B68F2
:1049D00003F00403002B08D01949194B5B6823F43A
:1049E000E0627B68DB6813434B607B681B6803F005
:1049F0000803002B09D01249114B5B6823F4605265
:104A00007B681B69DB0013434B6000F021F8014613
:104A10000B4B5B681B0903F00F030A4AD35C21FAB6
:104A200003F3094A1360094B1B681846FDF7B2FDF2
:104A3000002318461037BD4680BD00BF002002404D
:104A400000100240AC5800087000002074000020E4
:104A500090B48AB000AF2A4B3C1D0FCB84E80F0006
:104A6000284B1B883B800023FB610023BB61002394
:104A70007B6200237B6100233B62234B5B68FB610D
:104A8000FB6903F00C03042B02D0082B03D02DE0AC
:104A90001E4B3B622DE0FB699B0C03F00F0307F1FB
:104AA0002802134413F8243C7B61FB6903F4803330
:104AB000002B13D0144B5B685B0C03F0010307F170
:104AC0002802134413F8283CBB617B690F4A02FBA0
:104AD00003F2BB69B2FBF3F37B6204E07B690C4A2F
:104AE00002FB03F37B627B6A3B6202E0074B3B62A3
:104AF00000BF3B6A18462837BD4690BC704700BFD0
:104B000068580008785800080010024000127A0027
:104B100000093D0080B485B000AF78600A4B1B6887
:104B20000A4AA2FB03235B0A7A6802FB03F3FB60D9
:104B300000BFFB685A1EFA60002BF9D100BF143782
:104B4000BD4680BC704700BF70000020D34D62108E
:104B500080B586B000AF786000233B610023FB6026
:104B60007B681B6803F00103002B7DD00023FB75DD
:104B70004F4BDB6903F08053002B0DD14C4A4C4B5B
:104B8000DB6943F08053D361494BDB6903F0805309
:104B9000BB60BB680123FB75464B1B6803F4807345
:104BA000002B18D1434A434B1B6843F480731360B6
:104BB000FDF732FD386108E0FDF72EFD02463B6946
:104BC000D31A642B01D903236DE03A4B1B6803F41D
:104BD0008073002BF0D0364B1B6A03F44073FB60EC
:104BE000FB68002B2ED07B685B6803F44072FB6887
:104BF0009A4227D02E4B1B6A23F44073FB602E4B46
:104C000001221A602C4B00221A60294AFB681362A9
:104C1000FB6803F00103002B14D0FDF7FDFC3861A5
:104C20000AE0FDF7F9FC02463B69D31A41F28832EB
:104C3000934201D9032336E01D4B1B6A03F00203A4
:104C4000002BEED01A491A4B1B6A23F440727B6882
:104C50005B6813430B62FB7D012B05D1144A144B97
:104C6000DB6923F08053D3617B681B6803F0020388
:104C7000002B08D00E490E4B5B6823F440427B6842
:104C80009B6813434B607B681B6803F01003002B89
:104C900008D00749064B5B6823F480027B68DB6819
:104CA00013434B60002318461837BD4680BD00BF34
:104CB00000100240007000404004424280B582B0C3
:104CC00000AF78607B68002B01D1012341E07B6855
:104CD00093F83D30DBB2002B06D17B68002283F8CD
:104CE0003C207868FDF748FB7B68022283F83D2072
:104CF0007B681A687B6804331946104600F08EF909
:104D00007B68012283F846207B68012283F83E20DD
:104D10007B68012283F83F207B68012283F84020D2
:104D20007B68012283F841207B68012283F84220BE
:104D30007B68012283F843207B68012283F84420AA
:104D40007B68012283F845207B68012283F83D209F
:104D5000002318460837BD4680BD000080B584B0EA
:104D600000AF786039603B68002B09D17B6893F80D
:104D70003E30DBB2012B14BF01230023DBB222E063
:104D80003B68042B09D17B6893F83F30DBB2012BE1
:104D900014BF01230023DBB215E03B68082B09D1C7
:104DA0007B6893F84030DBB2012B14BF0123002352
:104DB000DBB208E07B6893F84130DBB2012B14BF13
:104DC00001230023DBB2002B01D001235EE03B680E
:104DD000002B04D17B68022283F83E2013E03B685D
:104DE000042B04D17B68022283F83F200BE03B6850
:104DF000082B04D17B68022283F8402003E07B6803
:104E0000022283F841207B681B680122396818461A
:104E100000F0EEFA7B681B681E4A934207D17B685C
:104E20001B687A681268526C42F400425A647B68CC
:104E30001B68184A93420ED07B681B68B3F1804F01
:104E400009D07B681B68144A934204D07B681B68B6
:104E5000124A934211D17B681B689B6803F00703D9
:104E6000FB60FB68062B10D07B681B687A681268B1
:104E7000126842F001021A6007E07B681B687A68DA
:104E80001268126842F001021A60002318461037B7
:104E9000BD4680BD002C01400004004000080040D9
:104EA00080B584B000AFF860B9607A60FB6893F8B1
:104EB0003C30012B01D10223ACE0FB68012283F8D6
:104EC0003C207B680C2B00F29F8001A252F823F05B
:104ED000054F000809500008095000080950000853
:104EE000454F000809500008095000080950000803
:104EF000874F0008095000080950000809500008B1
:104F0000C74F0008FB681B68B968184600F0E8F84E
:104F1000FB681B68FA681268926942F008029A619D
:104F2000FB681B68FA681268926922F004029A61B1
:104F3000FB681B68FA6812689169BA6812690A43CB
:104F40009A6162E0FB681B68B968184600F02EF9A8
:104F5000FB681B68FA681268926942F400629A6101
:104F6000FB681B68FA681268926922F480629A6191
:104F7000FB681B68FA6812689169BA6812691202C4
:104F80000A439A6141E0FB681B68B968184600F063
:104F900077F9FB681B68FA681268D26942F0080268
:104FA000DA61FB681B68FA681268D26922F00402B1
:104FB000DA61FB681B68FA681268D169BA6812691D
:104FC0000A43DA6121E0FB681B68B968184600F003
:104FD000C1F9FB681B68FA681268D26942F4006282
:104FE000DA61FB681B68FA681268D26922F4806291
:104FF000DA61FB681B68FA681268D169BA681269DD
:1050000012020A43DA6100E000BFFB68002283F865
:105010003C20002318461037BD4680BD80B485B0C3
:1050200000AF786039607B681B68FB607B68294A49
:1050300093420BD07B68B3F1804F07D07B68264A40
:10504000934203D07B68254A934208D1FB6823F042
:105050007003FB603B685B68FA681343FB607B6826
:105060001C4A93420BD07B68B3F1804F07D07B681A
:10507000194A934203D07B68184A934208D1FB68CF
:1050800023F44073FB603B68DB68FA681343FB6002
:10509000FB6823F080023B685B691343FB607B681D
:1050A000FA681A603B689A687B68DA623B681A683B
:1050B0007B689A627B68074A934203D13B681A690E
:1050C0007B681A637B6801225A6100BF1437BD46B2
:1050D00080BC7047002C01400004004000080040E4
:1050E00080B487B000AF786039607B681B6A23F0BA
:1050F00001027B681A627B681B6A7B617B685B6864
:105100003B617B689B69FB60FB6823F07003FB607D
:10511000FB6823F00303FB603B681B68FA681343DA
:10512000FB607B6923F002037B613B689B687A69C3
:1051300013437B617B681C4A93420CD17B6923F04B
:1051400008037B613B68DB687A6913437B617B6999
:1051500023F004037B617B68134A934211D13B69BE
:1051600023F480733B613B6923F400733B613B682C
:105170005B693A6913433B613B689B693A69134336
:105180003B617B683A695A607B68FA689A613B6860
:105190005A687B685A637B687A691A6200BF1C3759
:1051A000BD4680BC704700BF002C014080B487B072
:1051B00000AF786039607B681B6A23F010027B685F
:1051C0001A627B681B6A7B617B685B683B617B68FA
:1051D0009B69FB60FB6823F4E043FB60FB6823F4FE
:1051E0004073FB603B681B681B02FA681343FB605B
:1051F0007B6923F020037B613B689B681B017A6914
:1052000013437B617B681D4A93420DD17B6923F078
:1052100080037B613B68DB681B017A6913437B6118
:105220007B6923F040037B617B68144A934213D16E
:105230003B6923F480633B613B6923F400633B617A
:105240003B685B699B003A6913433B613B689B6920
:105250009B003A6913433B617B683A695A607B68FB
:10526000FA689A613B685A687B689A637B687A69D6
:105270001A6200BF1C37BD4680BC7047002C01403D
:1052800080B487B000AF786039607B681B6A23F414
:1052900080727B681A627B681B6A7B617B685B68D3
:1052A0003B617B68DB69FB60FB6823F07003FB609C
:1052B000FB6823F00303FB603B681B68FA68134339
:1052C000FB607B6923F400737B613B689B681B0276
:1052D0007A6913437B617B681D4A93420DD17B69D8
:1052E00023F400637B613B68DB681B027A6913432C
:1052F0007B617B6923F480637B617B68144A934202
:1053000013D13B6923F480533B613B6923F4005381
:105310003B613B685B691B013A6913433B613B6836
:105320009B691B013A6913433B617B683A695A6088
:105330007B68FA68DA613B685A687B68DA637B6885
:105340007A691A6200BF1C37BD4680BC704700BF37
:10535000002C014080B487B000AF786039607B6872
:105360001B6A23F480527B681A627B681B6A3B616C
:105370007B685B687B617B68DB69FB60FB6823F4AF
:10538000E043FB60FB6823F44073FB603B681B68F1
:105390001B02FA681343FB603B6923F400533B6133
:1053A0003B689B681B033A6913433B617B680F4A68
:1053B000934209D17B6923F480437B613B685B693D
:1053C0009B017A6913437B617B687A695A607B68C9
:1053D000FA68DA613B685A687B681A647B683A69E4
:1053E0001A6200BF1C37BD4680BC7047002C0140CC
:1053F00080B487B000AFF860B9607A60BB6803F032
:105400001F03012202FA03F37B61FB681A6A7B69BE
:10541000DB431A40FB681A62FB681A6ABB6803F038
:105420001F03796801FA03F31A43FB681A6200BF8D
:105430001C37BD4680BC704780B485B000AF786033
:1054400039607B6893F83C30012B01D1022346E0A0
:105450007B68012283F83C207B68022283F83D2090
:105460007B681B685B68FB607B681B689B68BB6034
:10547000FB6823F07003FB603B681B68FA6813430A
:10548000FB607B681B68FA685A607B681B68164A79
:1054900093420ED07B681B68B3F1804F09D07B68C4
:1054A0001B68124A934204D07B681B68104A9342DF
:1054B0000CD1BB6823F08003BB603B685B68BA68B3
:1054C0001343BB607B681B68BA689A607B680122E3
:1054D00083F83D207B68002283F83C200023184697
:1054E0001437BD4680BC7047002C014000040040CA
:1054F0000008004080B485B000AF786039600023B8
:10550000FB607B6893F83C30012B01D102233DE026
:105510007B68012283F83C20FB6823F0FF023B6894
:10552000DB681343FB60FB6823F440723B689B68B5
:105530001343FB60FB6823F480623B685B681343A2
:10554000FB60FB6823F400623B681B681343FB604D
:10555000FB6823F480523B681B691343FB60FB68C4
:1055600023F400523B685B691343FB60FB6823F440
:1055700080423B68DB691343FB607B681B68FA6809
:105580005A647B68002283F83C20002318461437B5
:10559000BD4680BC70470000002103E00B4B5B5808
:1055A000435004310A480B4B42189A42F6D30A4A38
:1055B00002E0002342F8043B084B9A42F9D3FCF77F
:1055C000CDFF00F00FF8FCF729FB7047C458000826
:1055D000000000207C0000207C00002080020020D1
:1055E000FEE7000070B500250C4E0D4CA41BA41066
:1055F000A54209D100F02CF900250A4E0A4CA41B43
:10560000A410A54205D170BD56F825309847013544
:10561000EEE756F8253098470135F2E7BC58000808
:10562000BC580008BC580008C05800080346024493
:10563000934200D1704703F8011BF9E70000000016
:105640002DE9F843C1F30A58A8F2FF36132E074696
:105650000B460C46054631DC002E12DA36A3D3E9A0
:105660000023FAF77BFD00220023FAF7A7FF28B1F9
:10567000002C58DB3C435AD00025314C23462F46A2
:1056800027E0304A42FA06F801EA0802024320D035
:1056900029A3D3E90023FAF761FD00220023FAF7DA
:1056A0008DFF0028EAD0002CC2BF4FF4801343FACC
:1056B00006F6A41924EA08040025DFE7332E0CDDE2
:1056C000B6F5806F05D10B460246FAF747FD07464F
:1056D0000B4638461946BDE8F8834FF0FF32A8F272
:1056E000134822FA08F810EA080FF2D012A3D3E9FF
:1056F0000023FAF733FD00220023FAF75FFF0028AA
:10570000BCD0002C02DD142E03D1013425EA08059B
:10571000B4E70123C6F1340603FA06F63544AF4276
:1057200088BFE418F2E700254FF00044A6E72546BD
:10573000A4E700BFAFF300809C7500883CE4377E8F
:105740000000F03FFFFF0F002DE9F843C1F30A58B6
:10575000A8F2FF36132E07460B460C46054635DCED
:10576000002E16DA36A3D3E90023FAF7F7FC00225D
:105770000023FAF723FF48B1002C5CDA24F0004341
:105780003B43314B4FF0000518BF1C4623462F46C4
:1057900027E02E4A42FA06F801EA0802024320D026
:1057A00027A3D3E90023FAF7D9FC00220023FAF754
:1057B00005FF0028EAD0002CBEBF4FF4801343FA47
:1057C00006F6A41924EA08040025DFE7332E0CDDD1
:1057D000B6F5806F05D10B460246FAF7BFFC0746C7
:1057E0000B4638461946BDE8F8834FF0FF32A8F261
:1057F000134822FA08F810EA080FF2D010A3D3E9F0
:105800000023FAF7ABFC00220023FAF7D7FE0028AA
:10581000BCD0002C02DA142E03D1013425EA08058D
:10582000B4E70123C6F1340603FA06F63544AF4265
:1058300088BFE418F2E700252C46A7E7AFF3008005
:105840009C7500883CE4377E0000F0BFFFFF0F002E
:10585000F8B500BFF8BC08BC9E467047F8B500BF5D
:08586000F8BC08BC9E4670472D
:1058680002030405060708090A0B0C0D0E0F101099
:1058780001020000000000015A0002465603505A77
:10588800045055055055065055070055F11B0008A2
:1058980002000000011C000804000000111C0008A0
:1058A800C80000000000000000000000010203041E
:0458B80006070809CE
:0458BC0035010008AA
:0458C00011010008CA
:1058C40000000000000000000000000000090009C2
:1058D4000000010000000000090900000000FFFFB3
:1058E400000000000100820A3200000002003C0FA8
:1058F40064000000030092073200000004006E05FB
:1059040032000000050078033200000006000602A1
:10591400320000000700BE00320000000800FFFF54
:105924000000000009000000000000000104000065
:0C5934000024F40010000000010000003E
:040000050800559901
:00000001FF
